{
  "contractName": "MainTokenGovernor",
  "abi": [
    {
      "inputs": [
        {
          "internalType": "contract IVotes",
          "name": "_token",
          "type": "address"
        },
        {
          "internalType": "contract TimelockController",
          "name": "_timelock",
          "type": "address"
        },
        {
          "internalType": "address",
          "name": "_multiSig",
          "type": "address"
        },
        {
          "internalType": "uint256",
          "name": "_initialVotingDelay",
          "type": "uint256"
        },
        {
          "internalType": "uint256",
          "name": "_votingPeriod",
          "type": "uint256"
        },
        {
          "internalType": "uint256",
          "name": "_initialProposalThreshold",
          "type": "uint256"
        }
      ],
      "stateMutability": "nonpayable",
      "type": "constructor"
    },
    {
      "inputs": [],
      "name": "Empty",
      "type": "error"
    },
    {
      "anonymous": false,
      "inputs": [
        {
          "indexed": true,
          "internalType": "address",
          "name": "signer",
          "type": "address"
        },
        {
          "indexed": true,
          "internalType": "uint256",
          "name": "proposalId",
          "type": "uint256"
        }
      ],
      "name": "ConfirmProposal",
      "type": "event"
    },
    {
      "anonymous": false,
      "inputs": [
        {
          "indexed": true,
          "internalType": "address",
          "name": "signer",
          "type": "address"
        },
        {
          "indexed": true,
          "internalType": "uint256",
          "name": "proposalId",
          "type": "uint256"
        }
      ],
      "name": "ExecuteProposal",
      "type": "event"
    },
    {
      "anonymous": false,
      "inputs": [
        {
          "indexed": true,
          "internalType": "uint256",
          "name": "proposalId",
          "type": "uint256"
        }
      ],
      "name": "ProposalCanceled",
      "type": "event"
    },
    {
      "anonymous": false,
      "inputs": [
        {
          "indexed": true,
          "internalType": "uint256",
          "name": "proposalId",
          "type": "uint256"
        },
        {
          "indexed": true,
          "internalType": "address",
          "name": "proposer",
          "type": "address"
        },
        {
          "indexed": false,
          "internalType": "address[]",
          "name": "targets",
          "type": "address[]"
        },
        {
          "indexed": false,
          "internalType": "uint256[]",
          "name": "values",
          "type": "uint256[]"
        },
        {
          "indexed": false,
          "internalType": "string[]",
          "name": "signatures",
          "type": "string[]"
        },
        {
          "indexed": false,
          "internalType": "bytes[]",
          "name": "calldatas",
          "type": "bytes[]"
        },
        {
          "indexed": false,
          "internalType": "uint256",
          "name": "startBlock",
          "type": "uint256"
        },
        {
          "indexed": true,
          "internalType": "uint256",
          "name": "endBlock",
          "type": "uint256"
        },
        {
          "indexed": false,
          "internalType": "string",
          "name": "description",
          "type": "string"
        }
      ],
      "name": "ProposalCreated",
      "type": "event"
    },
    {
      "anonymous": false,
      "inputs": [
        {
          "indexed": true,
          "internalType": "uint256",
          "name": "proposalId",
          "type": "uint256"
        }
      ],
      "name": "ProposalExecuted",
      "type": "event"
    },
    {
      "anonymous": false,
      "inputs": [
        {
          "indexed": false,
          "internalType": "uint256",
          "name": "proposalId",
          "type": "uint256"
        },
        {
          "indexed": false,
          "internalType": "uint256",
          "name": "eta",
          "type": "uint256"
        }
      ],
      "name": "ProposalQueued",
      "type": "event"
    },
    {
      "anonymous": false,
      "inputs": [
        {
          "indexed": false,
          "internalType": "uint256",
          "name": "oldProposalThreshold",
          "type": "uint256"
        },
        {
          "indexed": false,
          "internalType": "uint256",
          "name": "newProposalThreshold",
          "type": "uint256"
        }
      ],
      "name": "ProposalThresholdSet",
      "type": "event"
    },
    {
      "anonymous": false,
      "inputs": [
        {
          "indexed": false,
          "internalType": "uint256",
          "name": "oldQuorumNumerator",
          "type": "uint256"
        },
        {
          "indexed": false,
          "internalType": "uint256",
          "name": "newQuorumNumerator",
          "type": "uint256"
        }
      ],
      "name": "QuorumNumeratorUpdated",
      "type": "event"
    },
    {
      "anonymous": false,
      "inputs": [
        {
          "indexed": true,
          "internalType": "address",
          "name": "signer",
          "type": "address"
        },
        {
          "indexed": true,
          "internalType": "uint256",
          "name": "proposalId",
          "type": "uint256"
        }
      ],
      "name": "RevokeConfirmation",
      "type": "event"
    },
    {
      "anonymous": false,
      "inputs": [
        {
          "indexed": false,
          "internalType": "address",
          "name": "oldTimelock",
          "type": "address"
        },
        {
          "indexed": false,
          "internalType": "address",
          "name": "newTimelock",
          "type": "address"
        }
      ],
      "name": "TimelockChange",
      "type": "event"
    },
    {
      "anonymous": false,
      "inputs": [
        {
          "indexed": true,
          "internalType": "address",
          "name": "voter",
          "type": "address"
        },
        {
          "indexed": true,
          "internalType": "uint256",
          "name": "proposalId",
          "type": "uint256"
        },
        {
          "indexed": false,
          "internalType": "uint8",
          "name": "support",
          "type": "uint8"
        },
        {
          "indexed": false,
          "internalType": "uint256",
          "name": "weight",
          "type": "uint256"
        },
        {
          "indexed": false,
          "internalType": "string",
          "name": "reason",
          "type": "string"
        }
      ],
      "name": "VoteCast",
      "type": "event"
    },
    {
      "anonymous": false,
      "inputs": [
        {
          "indexed": true,
          "internalType": "address",
          "name": "voter",
          "type": "address"
        },
        {
          "indexed": true,
          "internalType": "uint256",
          "name": "proposalId",
          "type": "uint256"
        },
        {
          "indexed": false,
          "internalType": "uint8",
          "name": "support",
          "type": "uint8"
        },
        {
          "indexed": false,
          "internalType": "uint256",
          "name": "weight",
          "type": "uint256"
        },
        {
          "indexed": false,
          "internalType": "string",
          "name": "reason",
          "type": "string"
        },
        {
          "indexed": false,
          "internalType": "bytes",
          "name": "params",
          "type": "bytes"
        }
      ],
      "name": "VoteCastWithParams",
      "type": "event"
    },
    {
      "anonymous": false,
      "inputs": [
        {
          "indexed": false,
          "internalType": "uint256",
          "name": "oldVotingDelay",
          "type": "uint256"
        },
        {
          "indexed": false,
          "internalType": "uint256",
          "name": "newVotingDelay",
          "type": "uint256"
        }
      ],
      "name": "VotingDelaySet",
      "type": "event"
    },
    {
      "anonymous": false,
      "inputs": [
        {
          "indexed": false,
          "internalType": "uint256",
          "name": "oldVotingPeriod",
          "type": "uint256"
        },
        {
          "indexed": false,
          "internalType": "uint256",
          "name": "newVotingPeriod",
          "type": "uint256"
        }
      ],
      "name": "VotingPeriodSet",
      "type": "event"
    },
    {
      "inputs": [],
      "name": "BALLOT_TYPEHASH",
      "outputs": [
        {
          "internalType": "bytes32",
          "name": "",
          "type": "bytes32"
        }
      ],
      "stateMutability": "view",
      "type": "function"
    },
    {
      "inputs": [],
      "name": "EXTENDED_BALLOT_TYPEHASH",
      "outputs": [
        {
          "internalType": "bytes32",
          "name": "",
          "type": "bytes32"
        }
      ],
      "stateMutability": "view",
      "type": "function"
    },
    {
      "inputs": [
        {
          "internalType": "uint256",
          "name": "proposalId",
          "type": "uint256"
        },
        {
          "internalType": "uint8",
          "name": "support",
          "type": "uint8"
        }
      ],
      "name": "castVote",
      "outputs": [
        {
          "internalType": "uint256",
          "name": "",
          "type": "uint256"
        }
      ],
      "stateMutability": "nonpayable",
      "type": "function"
    },
    {
      "inputs": [
        {
          "internalType": "uint256",
          "name": "proposalId",
          "type": "uint256"
        },
        {
          "internalType": "uint8",
          "name": "support",
          "type": "uint8"
        },
        {
          "internalType": "uint8",
          "name": "v",
          "type": "uint8"
        },
        {
          "internalType": "bytes32",
          "name": "r",
          "type": "bytes32"
        },
        {
          "internalType": "bytes32",
          "name": "s",
          "type": "bytes32"
        }
      ],
      "name": "castVoteBySig",
      "outputs": [
        {
          "internalType": "uint256",
          "name": "",
          "type": "uint256"
        }
      ],
      "stateMutability": "nonpayable",
      "type": "function"
    },
    {
      "inputs": [
        {
          "internalType": "uint256",
          "name": "proposalId",
          "type": "uint256"
        },
        {
          "internalType": "uint8",
          "name": "support",
          "type": "uint8"
        },
        {
          "internalType": "string",
          "name": "reason",
          "type": "string"
        }
      ],
      "name": "castVoteWithReason",
      "outputs": [
        {
          "internalType": "uint256",
          "name": "",
          "type": "uint256"
        }
      ],
      "stateMutability": "nonpayable",
      "type": "function"
    },
    {
      "inputs": [
        {
          "internalType": "uint256",
          "name": "proposalId",
          "type": "uint256"
        },
        {
          "internalType": "uint8",
          "name": "support",
          "type": "uint8"
        },
        {
          "internalType": "string",
          "name": "reason",
          "type": "string"
        },
        {
          "internalType": "bytes",
          "name": "params",
          "type": "bytes"
        }
      ],
      "name": "castVoteWithReasonAndParams",
      "outputs": [
        {
          "internalType": "uint256",
          "name": "",
          "type": "uint256"
        }
      ],
      "stateMutability": "nonpayable",
      "type": "function"
    },
    {
      "inputs": [
        {
          "internalType": "uint256",
          "name": "proposalId",
          "type": "uint256"
        },
        {
          "internalType": "uint8",
          "name": "support",
          "type": "uint8"
        },
        {
          "internalType": "string",
          "name": "reason",
          "type": "string"
        },
        {
          "internalType": "bytes",
          "name": "params",
          "type": "bytes"
        },
        {
          "internalType": "uint8",
          "name": "v",
          "type": "uint8"
        },
        {
          "internalType": "bytes32",
          "name": "r",
          "type": "bytes32"
        },
        {
          "internalType": "bytes32",
          "name": "s",
          "type": "bytes32"
        }
      ],
      "name": "castVoteWithReasonAndParamsBySig",
      "outputs": [
        {
          "internalType": "uint256",
          "name": "",
          "type": "uint256"
        }
      ],
      "stateMutability": "nonpayable",
      "type": "function"
    },
    {
      "inputs": [
        {
          "internalType": "uint256",
          "name": "_proposalId",
          "type": "uint256"
        }
      ],
      "name": "confirmProposal",
      "outputs": [],
      "stateMutability": "nonpayable",
      "type": "function"
    },
    {
      "inputs": [
        {
          "internalType": "address[]",
          "name": "targets",
          "type": "address[]"
        },
        {
          "internalType": "uint256[]",
          "name": "values",
          "type": "uint256[]"
        },
        {
          "internalType": "bytes[]",
          "name": "calldatas",
          "type": "bytes[]"
        },
        {
          "internalType": "bytes32",
          "name": "descriptionHash",
          "type": "bytes32"
        }
      ],
      "name": "execute",
      "outputs": [
        {
          "internalType": "uint256",
          "name": "",
          "type": "uint256"
        }
      ],
      "stateMutability": "payable",
      "type": "function"
    },
    {
      "inputs": [
        {
          "internalType": "uint256",
          "name": "_proposalId",
          "type": "uint256"
        }
      ],
      "name": "getDescription",
      "outputs": [
        {
          "internalType": "string",
          "name": "",
          "type": "string"
        }
      ],
      "stateMutability": "view",
      "type": "function"
    },
    {
      "inputs": [],
      "name": "getProposalIds",
      "outputs": [
        {
          "internalType": "uint256[]",
          "name": "",
          "type": "uint256[]"
        }
      ],
      "stateMutability": "view",
      "type": "function"
    },
    {
      "inputs": [
        {
          "internalType": "uint256",
          "name": "_numIndexes",
          "type": "uint256"
        }
      ],
      "name": "getProposals",
      "outputs": [
        {
          "internalType": "string[]",
          "name": "",
          "type": "string[]"
        },
        {
          "internalType": "string[]",
          "name": "",
          "type": "string[]"
        },
        {
          "internalType": "string[]",
          "name": "",
          "type": "string[]"
        }
      ],
      "stateMutability": "view",
      "type": "function"
    },
    {
      "inputs": [
        {
          "internalType": "address",
          "name": "account",
          "type": "address"
        },
        {
          "internalType": "uint256",
          "name": "blockNumber",
          "type": "uint256"
        }
      ],
      "name": "getVotes",
      "outputs": [
        {
          "internalType": "uint256",
          "name": "",
          "type": "uint256"
        }
      ],
      "stateMutability": "view",
      "type": "function"
    },
    {
      "inputs": [
        {
          "internalType": "address",
          "name": "account",
          "type": "address"
        },
        {
          "internalType": "uint256",
          "name": "blockNumber",
          "type": "uint256"
        },
        {
          "internalType": "bytes",
          "name": "params",
          "type": "bytes"
        }
      ],
      "name": "getVotesWithParams",
      "outputs": [
        {
          "internalType": "uint256",
          "name": "",
          "type": "uint256"
        }
      ],
      "stateMutability": "view",
      "type": "function"
    },
    {
      "inputs": [
        {
          "internalType": "uint256",
          "name": "proposalId",
          "type": "uint256"
        },
        {
          "internalType": "address",
          "name": "account",
          "type": "address"
        }
      ],
      "name": "hasVoted",
      "outputs": [
        {
          "internalType": "bool",
          "name": "",
          "type": "bool"
        }
      ],
      "stateMutability": "view",
      "type": "function"
    },
    {
      "inputs": [
        {
          "internalType": "address[]",
          "name": "targets",
          "type": "address[]"
        },
        {
          "internalType": "uint256[]",
          "name": "values",
          "type": "uint256[]"
        },
        {
          "internalType": "bytes[]",
          "name": "calldatas",
          "type": "bytes[]"
        },
        {
          "internalType": "bytes32",
          "name": "descriptionHash",
          "type": "bytes32"
        }
      ],
      "name": "hashProposal",
      "outputs": [
        {
          "internalType": "uint256",
          "name": "",
          "type": "uint256"
        }
      ],
      "stateMutability": "pure",
      "type": "function"
    },
    {
      "inputs": [
        {
          "internalType": "uint256",
          "name": "",
          "type": "uint256"
        }
      ],
      "name": "isConfirmed",
      "outputs": [
        {
          "internalType": "bool",
          "name": "",
          "type": "bool"
        }
      ],
      "stateMutability": "view",
      "type": "function"
    },
    {
      "inputs": [],
      "name": "name",
      "outputs": [
        {
          "internalType": "string",
          "name": "",
          "type": "string"
        }
      ],
      "stateMutability": "view",
      "type": "function"
    },
    {
      "inputs": [
        {
          "internalType": "uint256",
          "name": "proposalId",
          "type": "uint256"
        }
      ],
      "name": "proposalDeadline",
      "outputs": [
        {
          "internalType": "uint256",
          "name": "",
          "type": "uint256"
        }
      ],
      "stateMutability": "view",
      "type": "function"
    },
    {
      "inputs": [
        {
          "internalType": "uint256",
          "name": "proposalId",
          "type": "uint256"
        }
      ],
      "name": "proposalEta",
      "outputs": [
        {
          "internalType": "uint256",
          "name": "",
          "type": "uint256"
        }
      ],
      "stateMutability": "view",
      "type": "function"
    },
    {
      "inputs": [
        {
          "internalType": "uint256",
          "name": "proposalId",
          "type": "uint256"
        }
      ],
      "name": "proposalSnapshot",
      "outputs": [
        {
          "internalType": "uint256",
          "name": "",
          "type": "uint256"
        }
      ],
      "stateMutability": "view",
      "type": "function"
    },
    {
      "inputs": [
        {
          "internalType": "uint256",
          "name": "proposalId",
          "type": "uint256"
        }
      ],
      "name": "proposalVotes",
      "outputs": [
        {
          "internalType": "uint256",
          "name": "againstVotes",
          "type": "uint256"
        },
        {
          "internalType": "uint256",
          "name": "forVotes",
          "type": "uint256"
        },
        {
          "internalType": "uint256",
          "name": "abstainVotes",
          "type": "uint256"
        }
      ],
      "stateMutability": "view",
      "type": "function"
    },
    {
      "inputs": [
        {
          "internalType": "address[]",
          "name": "targets",
          "type": "address[]"
        },
        {
          "internalType": "uint256[]",
          "name": "values",
          "type": "uint256[]"
        },
        {
          "internalType": "bytes[]",
          "name": "calldatas",
          "type": "bytes[]"
        },
        {
          "internalType": "bytes32",
          "name": "descriptionHash",
          "type": "bytes32"
        }
      ],
      "name": "queue",
      "outputs": [
        {
          "internalType": "uint256",
          "name": "",
          "type": "uint256"
        }
      ],
      "stateMutability": "nonpayable",
      "type": "function"
    },
    {
      "inputs": [],
      "name": "quorumDenominator",
      "outputs": [
        {
          "internalType": "uint256",
          "name": "",
          "type": "uint256"
        }
      ],
      "stateMutability": "view",
      "type": "function"
    },
    {
      "inputs": [],
      "name": "quorumNumerator",
      "outputs": [
        {
          "internalType": "uint256",
          "name": "",
          "type": "uint256"
        }
      ],
      "stateMutability": "view",
      "type": "function"
    },
    {
      "inputs": [
        {
          "internalType": "uint256",
          "name": "_proposalId",
          "type": "uint256"
        }
      ],
      "name": "revokeConfirmation",
      "outputs": [],
      "stateMutability": "nonpayable",
      "type": "function"
    },
    {
      "inputs": [
        {
          "internalType": "uint256",
          "name": "newProposalThreshold",
          "type": "uint256"
        }
      ],
      "name": "setProposalThreshold",
      "outputs": [],
      "stateMutability": "nonpayable",
      "type": "function"
    },
    {
      "inputs": [
        {
          "internalType": "uint256",
          "name": "newVotingDelay",
          "type": "uint256"
        }
      ],
      "name": "setVotingDelay",
      "outputs": [],
      "stateMutability": "nonpayable",
      "type": "function"
    },
    {
      "inputs": [
        {
          "internalType": "uint256",
          "name": "newVotingPeriod",
          "type": "uint256"
        }
      ],
      "name": "setVotingPeriod",
      "outputs": [],
      "stateMutability": "nonpayable",
      "type": "function"
    },
    {
      "inputs": [],
      "name": "timelock",
      "outputs": [
        {
          "internalType": "address",
          "name": "",
          "type": "address"
        }
      ],
      "stateMutability": "view",
      "type": "function"
    },
    {
      "inputs": [],
      "name": "token",
      "outputs": [
        {
          "internalType": "contract IVotes",
          "name": "",
          "type": "address"
        }
      ],
      "stateMutability": "view",
      "type": "function"
    },
    {
      "inputs": [
        {
          "internalType": "uint256",
          "name": "newQuorumNumerator",
          "type": "uint256"
        }
      ],
      "name": "updateQuorumNumerator",
      "outputs": [],
      "stateMutability": "nonpayable",
      "type": "function"
    },
    {
      "inputs": [
        {
          "internalType": "contract TimelockController",
          "name": "newTimelock",
          "type": "address"
        }
      ],
      "name": "updateTimelock",
      "outputs": [],
      "stateMutability": "nonpayable",
      "type": "function"
    },
    {
      "inputs": [],
      "name": "version",
      "outputs": [
        {
          "internalType": "string",
          "name": "",
          "type": "string"
        }
      ],
      "stateMutability": "view",
      "type": "function"
    },
    {
      "stateMutability": "payable",
      "type": "receive"
    },
    {
      "inputs": [
        {
          "internalType": "address[]",
          "name": "targets",
          "type": "address[]"
        },
        {
          "internalType": "uint256[]",
          "name": "values",
          "type": "uint256[]"
        },
        {
          "internalType": "bytes[]",
          "name": "calldatas",
          "type": "bytes[]"
        },
        {
          "internalType": "string",
          "name": "description",
          "type": "string"
        }
      ],
      "name": "propose",
      "outputs": [
        {
          "internalType": "uint256",
          "name": "",
          "type": "uint256"
        }
      ],
      "stateMutability": "nonpayable",
      "type": "function"
    },
    {
      "inputs": [],
      "name": "proposalThreshold",
      "outputs": [
        {
          "internalType": "uint256",
          "name": "",
          "type": "uint256"
        }
      ],
      "stateMutability": "view",
      "type": "function"
    },
    {
      "inputs": [
        {
          "internalType": "bytes4",
          "name": "interfaceId",
          "type": "bytes4"
        }
      ],
      "name": "supportsInterface",
      "outputs": [
        {
          "internalType": "bool",
          "name": "",
          "type": "bool"
        }
      ],
      "stateMutability": "view",
      "type": "function"
    },
    {
      "inputs": [],
      "name": "votingDelay",
      "outputs": [
        {
          "internalType": "uint256",
          "name": "",
          "type": "uint256"
        }
      ],
      "stateMutability": "view",
      "type": "function"
    },
    {
      "inputs": [],
      "name": "votingPeriod",
      "outputs": [
        {
          "internalType": "uint256",
          "name": "",
          "type": "uint256"
        }
      ],
      "stateMutability": "view",
      "type": "function"
    },
    {
      "inputs": [
        {
          "internalType": "uint256",
          "name": "blockNumber",
          "type": "uint256"
        }
      ],
      "name": "quorum",
      "outputs": [
        {
          "internalType": "uint256",
          "name": "",
          "type": "uint256"
        }
      ],
      "stateMutability": "view",
      "type": "function"
    },
    {
      "inputs": [
        {
          "internalType": "uint256",
          "name": "proposalId",
          "type": "uint256"
        }
      ],
      "name": "state",
      "outputs": [
        {
          "internalType": "enum IGovernor.ProposalState",
          "name": "",
          "type": "uint8"
        }
      ],
      "stateMutability": "view",
      "type": "function"
    }
  ],
  "bytecode": "0x6101606040523480156200001257600080fd5b50604051620048a3380380620048a383398101604081905262000035916200049e565b846004878585856040518060400160405280601181526020017026b0b4b72a37b5b2b723b7bb32b93737b960791b8152508a81620000786200016460201b60201c565b815160208084019190912082519183019190912060e08290526101008190527f8b73c3c69bb8fe3d512ecc4cf759cc79239f7b179b0ffacaa9a75d522b39400f4660a052620000c98184846200017f565b6080523060c0526101205250508351620000ed925060009150602085019062000385565b50600280546001600160a01b0319166001600160a01b0392909216919091179055506200011a83620001bc565b6200012582620001fe565b62000130816200026c565b5050506001600160a01b0316610140526200014b81620002ae565b5062000157816200031a565b50505050505050620006dd565b6040805180820190915260018152603160f81b602082015290565b600083838346306040516020016200019c95949392919062000549565b6040516020818303038152906040528051906020012090505b9392505050565b7fc565b045403dc03c2eea82b81a0465edad9e2e7fc4d97e11421c209da93d7a9360085482604051620001f19291906200059f565b60405180910390a1600855565b600081116200022a5760405162461bcd60e51b81526004016200022190620005be565b60405180910390fd5b7f7e3f7f0708a84de9203036abaa450dccc85ad5ff52f78c170f3edb55cf5e8828600954826040516200025f9291906200059f565b60405180910390a1600955565b7fccb45da8d5717e6c4544694297c4ba5cf151d455c9bb0ed4fc7a38411bc05461600a5482604051620002a19291906200059f565b60405180910390a1600a55565b6064811115620002d25760405162461bcd60e51b815260040162000221906200060a565b600c8054908290556040517f0553476bf02ef2726e8ce5ced78d63e26e602e4a2257b1f559418e24b4633997906200030e90839085906200059f565b60405180910390a15050565b600d546040517f08f74ea46ef7894f65eabfb5e6e695de773a000b47c529ab559178069b226401916200035b916001600160a01b0390911690849062000678565b60405180910390a1600d80546001600160a01b0319166001600160a01b0392909216919091179055565b8280546200039390620006ad565b90600052602060002090601f016020900481019282620003b7576000855562000402565b82601f10620003d257805160ff191683800117855562000402565b8280016001018555821562000402579182015b8281111562000402578251825591602001919060010190620003e5565b506200041092915062000414565b5090565b5b8082111562000410576000815560010162000415565b60006001600160a01b0382165b92915050565b600062000438826200042b565b62000456816200043e565b81146200046257600080fd5b50565b805162000438816200044b565b62000456816200042b565b8051620004388162000472565b8062000456565b805162000438816200048a565b60008060008060008060c08789031215620004bc57620004bc600080fd5b6000620004ca898962000465565b9650506020620004dd89828a0162000465565b9550506040620004f089828a016200047d565b94505060606200050389828a0162000491565b93505060806200051689828a0162000491565b92505060a06200052989828a0162000491565b9150509295509295509295565b805b82525050565b62000538816200042b565b60a0810162000559828862000536565b62000568602083018762000536565b62000577604083018662000536565b62000586606083018562000536565b6200059560808301846200053e565b9695505050505050565b60408101620005af828562000536565b620001b5602083018462000536565b602080825281016200043881602781527f476f7665726e6f7253657474696e67733a20766f74696e6720706572696f6420602082015266746f6f206c6f7760c81b604082015260600190565b602080825281016200043881604381527f476f7665726e6f72566f74657351756f72756d4672616374696f6e3a2071756f60208201527f72756d4e756d657261746f72206f7665722071756f72756d44656e6f6d696e616040820152623a37b960e91b606082015260800190565b604081016200068882856200053e565b620001b560208301846200053e565b634e487b7160e01b600052602260045260246000fd5b600281046001821680620006c257607f821691505b602082108103620006d757620006d762000697565b50919050565b60805160a05160c05160e05161010051610120516101405161415d620007466000396000818161084901528181611f3101526120dd0152600061223f0152600061228101526000612260015260006121c4015260006121ee01526000612218015261415d6000f3fe60806040526004361061025a5760003560e01c80635f398a1411610149578063b58131b0116100c6578063ea0217cf1161008a578063f4a4f4d211610064578063f4a4f4d2146107f7578063f8ce560a14610817578063fc0c546a1461083757600080fd5b8063ea0217cf14610797578063eb9019d4146107b7578063ece40cc1146107d757600080fd5b8063b58131b0146106e8578063c01f9e37146106fd578063c59057e41461071d578063d33219b41461073d578063deaaa7cc1461076357600080fd5b806397c3d3341161010d57806397c3d3341461065f5780639a802a6d14610673578063a7713a7014610693578063a890c910146106a8578063ab58fb8e146106c857600080fd5b80635f398a14146105af57806370b0f660146105cf578063784547a7146105ef5780637b3c71d31461061f5780637d5e81e21461063f57600080fd5b80632fe3e261116101d7578063438596321161019b57806343859632146104b25780634925ec55146104fc578063544ffc9c1461051c57806354fd4d5014610565578063567813881461058f57600080fd5b80632fe3e261146103fa5780633932abb11461042e5780633bccf4fd146104435780633e4f49e61461046357806340ba1b1e1461049057600080fd5b8063160cbed71161021e578063160cbed71461035857806320ea8d86146103785780632656227d146103985780632c72fdfc146103ab5780632d63f693146103da57600080fd5b806301ffc9a71461029e57806302a251a3146102d457806303420181146102f657806306f3f9e61461031657806306fdde031461033657600080fd5b366102995730610268610878565b6001600160a01b0316146102975760405162461bcd60e51b815260040161028e906129bf565b60405180910390fd5b005b600080fd5b3480156102aa57600080fd5b506102be6102b93660046129f1565b610891565b6040516102cb9190612a1c565b60405180910390f35b3480156102e057600080fd5b506102e96108a2565b6040516102cb9190612a30565b34801561030257600080fd5b506102e9610311366004612b5c565b6108ad565b34801561032257600080fd5b50610297610331366004612c2f565b61093e565b34801561034257600080fd5b5061034b6109c8565b6040516102cb9190612cb2565b34801561036457600080fd5b506102e9610373366004612e90565b610a5a565b34801561038457600080fd5b50610297610393366004612c2f565b610c5a565b6102e96103a6366004612e90565b610d33565b3480156103b757600080fd5b506103cb6103c6366004612c2f565b610e12565b6040516102cb93929190612fb3565b3480156103e657600080fd5b506102e96103f5366004612c2f565b610e59565b34801561040657600080fd5b506102e97fb3b3f3b703cd84ce352197dcff232b1b5d3cfb2025ce47cf04742d0651f1af8881565b34801561043a57600080fd5b506102e9610e90565b34801561044f57600080fd5b506102e961045e366004612fec565b610e9b565b34801561046f57600080fd5b5061048361047e366004612c2f565b610f03565b6040516102cb91906130a8565b34801561049c57600080fd5b506104a5610f0e565b6040516102cb9190613113565b3480156104be57600080fd5b506102be6104cd366004613124565b6000828152600b602090815260408083206001600160a01b038516845260030190915290205460ff1692915050565b34801561050857600080fd5b5061034b610517366004612c2f565b610f65565b34801561052857600080fd5b50610556610537366004612c2f565b6000908152600b60205260409020805460018201546002909201549092565b6040516102cb93929190613161565b34801561057157600080fd5b506040805180820190915260018152603160f81b602082015261034b565b34801561059b57600080fd5b506102e96105aa366004613189565b611007565b3480156105bb57600080fd5b506102e96105ca3660046131bc565b611028565b3480156105db57600080fd5b506102976105ea366004612c2f565b611042565b3480156105fb57600080fd5b506102be61060a366004612c2f565b60056020526000908152604090205460ff1681565b34801561062b57600080fd5b506102e961063a366004613248565b6110c9565b34801561064b57600080fd5b506102e961065a3660046132b2565b6110e3565b34801561066b57600080fd5b5060646102e9565b34801561067f57600080fd5b506102e961068e366004613346565b6110f1565b34801561069f57600080fd5b50600c546102e9565b3480156106b457600080fd5b506102976106c336600461339a565b6110fe565b3480156106d457600080fd5b506102e96106e3366004612c2f565b611185565b3480156106f457600080fd5b506102e9611221565b34801561070957600080fd5b506102e9610718366004612c2f565b61122c565b34801561072957600080fd5b506102e9610738366004612e90565b61125b565b34801561074957600080fd5b50600d546001600160a01b03166040516102cb91906133c4565b34801561076f57600080fd5b506102e97f150214d74d59b7d1e90c73fc22ef3d991dd0a76b046543d4d80ab92d2a50328f81565b3480156107a357600080fd5b506102976107b2366004612c2f565b611295565b3480156107c357600080fd5b506102e96107d23660046133d2565b61131c565b3480156107e357600080fd5b506102976107f2366004612c2f565b61133d565b34801561080357600080fd5b50610297610812366004612c2f565b6113c4565b34801561082357600080fd5b506102e9610832366004612c2f565b6114a4565b34801561084357600080fd5b5061086b7f000000000000000000000000000000000000000000000000000000000000000081565b6040516102cb9190613447565b600061088c600d546001600160a01b031690565b905090565b600061089c826114af565b92915050565b600061088c60095490565b6000806109206109187fb3b3f3b703cd84ce352197dcff232b1b5d3cfb2025ce47cf04742d0651f1af888b8b8b805190602001208b805190602001206040516020016108fd95949392919061345e565b604051602081830303815290604052805190602001206114d4565b8686866114e7565b905061092f89828a8a8a611505565b9150505b979650505050505050565b610946610878565b6001600160a01b0316336001600160a01b0316146109765760405162461bcd60e51b815260040161028e906134d7565b3061097f610878565b6001600160a01b0316146109bc576000803660405161099f9291906134fa565b604051809103902090505b806109b5600661162b565b036109aa57505b6109c5816116b3565b50565b6060600080546109d79061351d565b80601f0160208091040260200160405190810160405280929190818152602001828054610a039061351d565b8015610a505780601f10610a2557610100808354040283529160200191610a50565b820191906000526020600020905b815481529060010190602001808311610a3357829003601f168201915b5050505050905090565b600080610a698686868661125b565b90506004610a7682610f03565b6007811115610a8757610a87613064565b14610aa45760405162461bcd60e51b815260040161028e90613587565b600d546040805163793d064960e11b815290516000926001600160a01b03169163f27a0c929160048083019260209291908290030181865afa158015610aee573d6000803e3d6000fd5b505050506040513d601f19601f82011682018060405250810190610b1291906135a2565b600d5460405163b1c5f42760e01b81529192506001600160a01b03169063b1c5f42790610b4c908a908a908a906000908b9060040161367b565b602060405180830381865afa158015610b69573d6000803e3d6000fd5b505050506040513d601f19601f82011682018060405250810190610b8d91906135a2565b6000838152600e602052604080822092909255600d5491516308f2a0bb60e41b81526001600160a01b0390921691638f2a0bb091610bd8918b918b918b91908b9089906004016136c3565b600060405180830381600087803b158015610bf257600080fd5b505af1158015610c06573d6000803e3d6000fd5b505050507f9a2e42fd6722813d69113e7d0079d3d940171428df7373df9c7f7617cfda2892828242610c38919061373b565b604051610c46929190613753565b60405180910390a15090505b949350505050565b6002546001600160a01b0316336001600160a01b031614610c8d5760405162461bcd60e51b815260040161028e906137a2565b600081815260036020526040902060020154819060ff1615610cc15760405162461bcd60e51b815260040161028e906137e6565b60008281526005602052604090205460ff16610cef5760405162461bcd60e51b815260040161028e9061382a565b600082815260056020526040808220805460ff1916905551839133917ff0dca620e2e81f7841d07bcc105e1704fb01475b278a9d4c236e1c62945edd559190a35050565b600080610d428686868661125b565b90506000610d4f82610f03565b90506004816007811115610d6557610d65613064565b1480610d8257506005816007811115610d8057610d80613064565b145b610d9e5760405162461bcd60e51b815260040161028e90613587565b600082815260036020526040808220600201805460ff191660011790555183917f712ae1383f79ac853f8d882153778e0260ef8f03b504e2866e0593e04d2b291f91a2610dee828888888861171a565b610dfb82888888886117bc565b610e0882888888886117f7565b5095945050505050565b600154606090819081906000819003610e35575060609250829150819050610e52565b80851115610e41578094505b610e4a85611830565b935093509350505b9193909250565b60008181526003602090815260408083208151928301909152546001600160401b0316908190525b6001600160401b031692915050565b600061088c60085490565b600080610ed96109187f150214d74d59b7d1e90c73fc22ef3d991dd0a76b046543d4d80ab92d2a50328f89896040516020016108fd9392919061383a565b9050610ef687828860405180602001604052806000815250611af0565b9150505b95945050505050565b600061089c82611b13565b60606001805480602002602001604051908101604052809291908181526020018280548015610a5057602002820191906000526020600020905b815481526020019060010190808311610f48575050505050905090565b6000818152600460205260409020805460609190610f829061351d565b80601f0160208091040260200160405190810160405280929190818152602001828054610fae9061351d565b8015610ffb5780601f10610fd057610100808354040283529160200191610ffb565b820191906000526020600020905b815481529060010190602001808311610fde57829003601f168201915b50505050509050919050565b600080339050610c5284828560405180602001604052806000815250611af0565b6000336110388682878787611505565b9695505050505050565b61104a610878565b6001600160a01b0316336001600160a01b03161461107a5760405162461bcd60e51b815260040161028e906134d7565b30611083610878565b6001600160a01b0316146110c057600080366040516110a39291906134fa565b604051809103902090505b806110b9600661162b565b036110ae57505b6109c581611c65565b6000336110d885828686611af0565b9150505b9392505050565b6000610efa85858585611ca5565b6000610c52848484611f17565b611106610878565b6001600160a01b0316336001600160a01b0316146111365760405162461bcd60e51b815260040161028e906134d7565b3061113f610878565b6001600160a01b03161461117c576000803660405161115f9291906134fa565b604051809103902090505b80611175600661162b565b0361116a57505b6109c581611fa9565b600d546000828152600e602052604080822054905163d45c443560e01b8152919283926001600160a01b039091169163d45c4435916111c79190600401612a30565b602060405180830381865afa1580156111e4573d6000803e3d6000fd5b505050506040513d601f19601f8201168201806040525081019061120891906135a2565b90508060011461121857806110dc565b60009392505050565b600061088c600a5490565b60008181526003602090815260408083208151928301909152600101546001600160401b031690819052610e81565b6000848484846040516020016112749493929190613862565b60408051601f19818403018152919052805160209091012095945050505050565b61129d610878565b6001600160a01b0316336001600160a01b0316146112cd5760405162461bcd60e51b815260040161028e906134d7565b306112d6610878565b6001600160a01b03161461131357600080366040516112f69291906134fa565b604051809103902090505b8061130c600661162b565b0361130157505b6109c58161201f565b60006110dc838361133860408051602081019091526000815290565b611f17565b611345610878565b6001600160a01b0316336001600160a01b0316146113755760405162461bcd60e51b815260040161028e906134d7565b3061137e610878565b6001600160a01b0316146113bb576000803660405161139e9291906134fa565b604051809103902090505b806113b4600661162b565b036113a957505b6109c58161207f565b6002546001600160a01b0316336001600160a01b0316146113f75760405162461bcd60e51b815260040161028e906137a2565b600081815260036020526040902060020154819060ff161561142b5760405162461bcd60e51b815260040161028e906137e6565b600082815260056020526040902054829060ff161561145c5760405162461bcd60e51b815260040161028e906138de565b600083815260056020526040808220805460ff1916600117905551849133917fc465ffb6829baf0ff01f0180d8bc0dca7de4bb775e4d3a1bf155f9047da4026c9190a3505050565b600061089c826120bf565b60006001600160e01b03198216636e665ced60e01b148061089c575061089c82612167565b600061089c6114e16121b7565b836122a5565b60008060006114f8878787876122d8565b91509150610e08816123b8565b6000858152600360205260408120600161151e88610f03565b600781111561152f5761152f613064565b1461154c5760405162461bcd60e51b815260040161028e9061392e565b604080516020810190915281546001600160401b03169081905260009061157590889086611f17565b90506115848888888488612498565b83516000036115d85787876001600160a01b03167fb8e138887d0aa13bab447e82de9d5c1777041ecd21ca36ba824ff1e6c07ddda48884896040516115cb9392919061393e565b60405180910390a3610ef6565b87876001600160a01b03167fe2babfbac5889a709b63bb7f598b324e08bc5a4fb9ec647fb3cbc9ec07eb871288848989604051611618949392919061396b565b60405180910390a3979650505050505050565b60006116468254600f81810b600160801b909204900b131590565b1561166457604051631ed9509560e11b815260040160405180910390fd5b508054600f0b6000818152600180840160205260408220805492905583546fffffffffffffffffffffffffffffffff191692016fffffffffffffffffffffffffffffffff169190911790915590565b60648111156116d45760405162461bcd60e51b815260040161028e906139ac565b600c8054908290556040517f0553476bf02ef2726e8ce5ced78d63e26e602e4a2257b1f559418e24b46339979061170e9083908590613753565b60405180910390a15050565b30611723610878565b6001600160a01b0316146117b55760005b84518110156117b357306001600160a01b031685828151811061175957611759613a19565b60200260200101516001600160a01b0316036117a3576117a383828151811061178457611784613a19565b602002602001015180519060200120600661258490919063ffffffff16565b6117ac81613a2f565b9050611734565b505b5050505050565b60008581526005602052604090205460ff166117ea5760405162461bcd60e51b815260040161028e90613aa3565b6117b585858585856125c9565b30611800610878565b6001600160a01b0316146117b557600654600f81810b600160801b909204900b13156117b55760006006556117b5565b60608060606000846001600160401b0381111561184f5761184f612a63565b60405190808252806020026020018201604052801561188257816020015b606081526020019060019003908161186d5790505b5090506000856001600160401b0381111561189f5761189f612a63565b6040519080825280602002602001820160405280156118d257816020015b60608152602001906001900390816118bd5790505b5090506000866001600160401b038111156118ef576118ef612a63565b60405190808252806020026020018201604052801561192257816020015b606081526020019060019003908161190d5790505b5060018054919250600090611937908a613ab3565b905081891061194e5761194b600183613ab3565b90505b6000600161195c8185613ab3565b8154811061196c5761196c613a19565b906000526020600020015490506119828161263d565b84838151811061199457611994613a19565b60200260200101819052506004600082815260200190815260200160002080546119bd9061351d565b80601f01602080910402602001604051908101604052809291908181526020018280546119e99061351d565b8015611a365780601f10611a0b57610100808354040283529160200191611a36565b820191906000526020600020905b815481529060010190602001808311611a1957829003601f168201915b5050505050858381518110611a4d57611a4d613a19565b6020026020010181905250611a7d611a6482610f03565b6007811115611a7557611a75613064565b60ff1661263d565b868381518110611a8f57611a8f613a19565b6020908102919091010152611aa5600184613ab3565b600003611ab25750611ae1565b81600003611ac05750611ae1565b82611aca81613aca565b9350508180611ad890613aca565b9250505061194e565b50909791965091945092505050565b6000610efa85858585611b0e60408051602081019091526000815290565b611505565b600080611b1f83612755565b90506004816007811115611b3557611b35613064565b14611b405792915050565b6000838152600e602052604090205480611b5b575092915050565b600d54604051632ab0f52960e01b81526001600160a01b0390911690632ab0f52990611b8b908490600401612a30565b602060405180830381865afa158015611ba8573d6000803e3d6000fd5b505050506040513d601f19601f82011682018060405250810190611bcc9190613af4565b15611bdb575060079392505050565b600d54604051632c258a9f60e11b81526001600160a01b039091169063584b153e90611c0b908490600401612a30565b602060405180830381865afa158015611c28573d6000803e3d6000fd5b505050506040513d601f19601f82011682018060405250810190611c4c9190613af4565b15611c5b575060059392505050565b5060029392505050565b7fc565b045403dc03c2eea82b81a0465edad9e2e7fc4d97e11421c209da93d7a9360085482604051611c98929190613753565b60405180910390a1600855565b6000611caf611221565b611cbe336107d2600143613ab3565b1015611cdc5760405162461bcd60e51b815260040161028e90613b6f565b6000611cf1868686868051906020012061125b565b90508451865114611d145760405162461bcd60e51b815260040161028e90613bbd565b8351865114611d355760405162461bcd60e51b815260040161028e90613bbd565b6000865111611d565760405162461bcd60e51b815260040161028e90613c01565b600081815260036020908152604091829020825191820190925281546001600160401b03169081905215611d9c5760405162461bcd60e51b815260040161028e90613c4f565b6000611dae611da9610e90565b612834565b611db743612834565b611dc19190613c5f565b90506000611dd0611da96108a2565b611dda9083613c5f565b835467ffffffffffffffff19166001600160401b038416178455905060018301805467ffffffffffffffff19166001600160401b03831617905560008481526004602090815260409091208751611e33928901906128d2565b506001805480820182556000919091527fb10e2d527612073b26eecdfd717e6a320cf44b4afac2b0732d9fcbe2b7fa0cf6018490556001600160401b038116336001600160a01b0316857f7d84a6263ae0d98d3329bd7b46bb4e8d6f98cd35a7adb45c274c8b7fd5ebd5e08c8c8e516001600160401b03811115611eb957611eb9612a63565b604051908082528060200260200182016040528015611eec57816020015b6060815260200190600190039081611ed75790505b508d898e604051611f0296959493929190613cb0565b60405180910390a45091979650505050505050565b604051630748d63560e31b81526000906001600160a01b037f00000000000000000000000000000000000000000000000000000000000000001690633a46b1a890611f689087908790600401613d2a565b602060405180830381865afa158015611f85573d6000803e3d6000fd5b505050506040513d601f19601f82011682018060405250810190610c5291906135a2565b600d546040517f08f74ea46ef7894f65eabfb5e6e695de773a000b47c529ab559178069b22640191611fe8916001600160a01b03909116908490613d38565b60405180910390a1600d805473ffffffffffffffffffffffffffffffffffffffff19166001600160a01b0392909216919091179055565b6000811161203f5760405162461bcd60e51b815260040161028e90613d97565b7f7e3f7f0708a84de9203036abaa450dccc85ad5ff52f78c170f3edb55cf5e882860095482604051612072929190613753565b60405180910390a1600955565b7fccb45da8d5717e6c4544694297c4ba5cf151d455c9bb0ed4fc7a38411bc05461600a54826040516120b2929190613753565b60405180910390a1600a55565b60006064600c54604051632394e7a360e21b81526001600160a01b037f00000000000000000000000000000000000000000000000000000000000000001690638e539e8c90612112908790600401612a30565b602060405180830381865afa15801561212f573d6000803e3d6000fd5b505050506040513d601f19601f8201168201806040525081019061215391906135a2565b61215d9190613da7565b61089c9190613ddc565b60006001600160e01b03198216634785f98560e01b148061219857506001600160e01b0319821663817e587d60e01b145b8061089c57506301ffc9a760e01b6001600160e01b031983161461089c565b6000306001600160a01b037f00000000000000000000000000000000000000000000000000000000000000001614801561221057507f000000000000000000000000000000000000000000000000000000000000000046145b1561223a57507f000000000000000000000000000000000000000000000000000000000000000090565b61088c7f00000000000000000000000000000000000000000000000000000000000000007f00000000000000000000000000000000000000000000000000000000000000007f0000000000000000000000000000000000000000000000000000000000000000612861565b600082826040516020016122ba929190613df0565b60405160208183030381529060405280519060200120905092915050565b6000807f7fffffffffffffffffffffffffffffff5d576e7357a4501ddfe92f46681b20a083111561230f57506000905060036123af565b8460ff16601b1415801561232757508460ff16601c14155b1561233857506000905060046123af565b60006001878787876040516000815260200160405260405161235d9493929190613e21565b6020604051602081039080840390855afa15801561237f573d6000803e3d6000fd5b5050604051601f1901519150506001600160a01b0381166123a8576000600192509250506123af565b9150600090505b94509492505050565b60008160048111156123cc576123cc613064565b036123d45750565b60018160048111156123e8576123e8613064565b036124055760405162461bcd60e51b815260040161028e90613e8a565b600281600481111561241957612419613064565b036124365760405162461bcd60e51b815260040161028e90613ece565b600381600481111561244a5761244a613064565b036124675760405162461bcd60e51b815260040161028e90613f1d565b600481600481111561247b5761247b613064565b036109c55760405162461bcd60e51b815260040161028e90613f6c565b6000858152600b602090815260408083206001600160a01b0388168452600381019092529091205460ff16156124e05760405162461bcd60e51b815260040161028e90613fc0565b6001600160a01b03851660009081526003820160205260409020805460ff1916600117905560ff841661252c5782816000016000828254612521919061373b565b909155506117b39050565b60001960ff85160161254c5782816001016000828254612521919061373b565b60011960ff85160161256c5782816002016000828254612521919061373b565b60405162461bcd60e51b815260040161028e9061402a565b8154600160801b90819004600f0b6000818152600180860160205260409091209390935583546fffffffffffffffffffffffffffffffff908116939091011602179055565b600d5460405163e38335e560e01b81526001600160a01b039091169063e38335e590349061260490889088908890600090899060040161367b565b6000604051808303818588803b15801561261d57600080fd5b505af1158015612631573d6000803e3d6000fd5b50505050505050505050565b6060816000036126645750506040805180820190915260018152600360fc1b602082015290565b8160005b811561268e578061267881613a2f565b91506126879050600a83613ddc565b9150612668565b6000816001600160401b038111156126a8576126a8612a63565b6040519080825280601f01601f1916602001820160405280156126d2576020820181803683370190505b5090505b8415610c52576126e7600183613ab3565b91506126f4600a8661403a565b6126ff90603061373b565b60f81b81838151811061271457612714613a19565b60200101907effffffffffffffffffffffffffffffffffffffffffffffffffffffffffffff1916908160001a90535061274e600a86613ddc565b94506126d6565b6000818152600360205260408120600281015460ff16156127795750600792915050565b6002810154610100900460ff16156127945750600292915050565b600061279f84610e59565b9050806000036127c15760405162461bcd60e51b815260040161028e90614082565b4381106127d2575060009392505050565b60006127dd8561122c565b90504381106127f157506001949350505050565b6127fa8561289b565b801561281957506000858152600b602052604090208054600190910154115b1561282957506004949350505050565b506003949350505050565b60006001600160401b0382111561285d5760405162461bcd60e51b815260040161028e906140d5565b5090565b6000838383463060405160200161287c9594939291906140e5565b6040516020818303038152906040528051906020012090509392505050565b6000818152600b60205260408120600281015460018201546128bd919061373b565b6128c961083285610e59565b11159392505050565b8280546128de9061351d565b90600052602060002090601f0160209004810192826129005760008555612946565b82601f1061291957805160ff1916838001178555612946565b82800160010185558215612946579182015b8281111561294657825182559160200191906001019061292b565b5061285d9291505b8082111561285d576000815560010161294e565b603281526000602082017f476f7665726e6f722c207265636569766528293a20205f6578656375746f722881527f2920213d20616464726573732874686973290000000000000000000000000000602082015291505b5060400190565b6020808252810161089c81612962565b6001600160e01b031981165b81146109c557600080fd5b803561089c816129cf565b600060208284031215612a0657612a06600080fd5b6000610c5284846129e6565b8015155b82525050565b6020810161089c8284612a12565b80612a16565b6020810161089c8284612a2a565b806129db565b803561089c81612a3e565b60ff81166129db565b803561089c81612a4f565b634e487b7160e01b600052604160045260246000fd5b601f19601f83011681018181106001600160401b0382111715612a9e57612a9e612a63565b6040525050565b6000612ab060405190565b9050612abc8282612a79565b919050565b60006001600160401b03821115612ada57612ada612a63565b601f19601f83011660200192915050565b82818337506000910152565b6000612b0a612b0584612ac1565b612aa5565b905082815260208101848484011115612b2557612b25600080fd5b612b30848285612aeb565b509392505050565b600082601f830112612b4c57612b4c600080fd5b8135610c52848260208601612af7565b600080600080600080600060e0888a031215612b7a57612b7a600080fd5b6000612b868a8a612a44565b9750506020612b978a828b01612a58565b96505060408801356001600160401b03811115612bb657612bb6600080fd5b612bc28a828b01612b38565b95505060608801356001600160401b03811115612be157612be1600080fd5b612bed8a828b01612b38565b9450506080612bfe8a828b01612a58565b93505060a0612c0f8a828b01612a44565b92505060c0612c208a828b01612a44565b91505092959891949750929550565b600060208284031215612c4457612c44600080fd5b6000610c528484612a44565b60005b83811015612c6b578181015183820152602001612c53565b83811115612c7a576000848401525b50505050565b6000612c8a825190565b808452602084019350612ca1818560208601612c50565b601f01601f19169290920192915050565b602080825281016110dc8184612c80565b60006001600160401b03821115612cdc57612cdc612a63565b5060209081020190565b60006001600160a01b03821661089c565b6129db81612ce6565b803561089c81612cf7565b6000612d19612b0584612cc3565b83815290506020808201908402830185811115612d3857612d38600080fd5b835b81811015612d5c5780612d4d8882612d00565b84525060209283019201612d3a565b5050509392505050565b600082601f830112612d7a57612d7a600080fd5b8135610c52848260208601612d0b565b6000612d98612b0584612cc3565b83815290506020808201908402830185811115612db757612db7600080fd5b835b81811015612d5c5780612dcc8882612a44565b84525060209283019201612db9565b600082601f830112612def57612def600080fd5b8135610c52848260208601612d8a565b6000612e0d612b0584612cc3565b83815290506020808201908402830185811115612e2c57612e2c600080fd5b835b81811015612d5c5780356001600160401b03811115612e4f57612e4f600080fd5b808601612e5c8982612b38565b8552505060209283019201612e2e565b600082601f830112612e8057612e80600080fd5b8135610c52848260208601612dff565b60008060008060808587031215612ea957612ea9600080fd5b84356001600160401b03811115612ec257612ec2600080fd5b612ece87828801612d66565b94505060208501356001600160401b03811115612eed57612eed600080fd5b612ef987828801612ddb565b93505060408501356001600160401b03811115612f1857612f18600080fd5b612f2487828801612e6c565b9250506060612f3587828801612a44565b91505092959194509250565b60006110dc8383612c80565b6000612f57825190565b80845260208401935083602082028501612f718560200190565b8060005b85811015612fa65784840389528151612f8e8582612f41565b94506020830160209a909a0199925050600101612f75565b5091979650505050505050565b60608082528101612fc48186612f4d565b90508181036020830152612fd88185612f4d565b90508181036040830152610efa8184612f4d565b600080600080600060a0868803121561300757613007600080fd5b60006130138888612a44565b955050602061302488828901612a58565b945050604061303588828901612a58565b935050606061304688828901612a44565b925050608061305788828901612a44565b9150509295509295909350565b634e487b7160e01b600052602160045260246000fd5b600881106109c5576109c5613064565b80612abc8161307a565b600061089c8261308a565b612a1681613094565b6020810161089c828461309f565b60006130c28383612a2a565b505060200190565b60006130d4825190565b80845260209384019383018060005b838110156131085781516130f788826130b6565b9750602083019250506001016130e3565b509495945050505050565b602080825281016110dc81846130ca565b6000806040838503121561313a5761313a600080fd5b60006131468585612a44565b925050602061315785828601612d00565b9150509250929050565b6060810161316f8286612a2a565b61317c6020830185612a2a565b610c526040830184612a2a565b6000806040838503121561319f5761319f600080fd5b60006131ab8585612a44565b925050602061315785828601612a58565b600080600080608085870312156131d5576131d5600080fd5b60006131e18787612a44565b94505060206131f287828801612a58565b93505060408501356001600160401b0381111561321157613211600080fd5b61321d87828801612b38565b92505060608501356001600160401b0381111561323c5761323c600080fd5b612f3587828801612b38565b60008060006060848603121561326057613260600080fd5b600061326c8686612a44565b935050602061327d86828701612a58565b92505060408401356001600160401b0381111561329c5761329c600080fd5b6132a886828701612b38565b9150509250925092565b600080600080608085870312156132cb576132cb600080fd5b84356001600160401b038111156132e4576132e4600080fd5b6132f087828801612d66565b94505060208501356001600160401b0381111561330f5761330f600080fd5b61331b87828801612ddb565b93505060408501356001600160401b0381111561333a5761333a600080fd5b61321d87828801612e6c565b60008060006060848603121561335e5761335e600080fd5b600061336a8686612d00565b935050602061327d86828701612a44565b600061089c82612ce6565b6129db8161337b565b803561089c81613386565b6000602082840312156133af576133af600080fd5b6000610c52848461338f565b612a1681612ce6565b6020810161089c82846133bb565b600080604083850312156133e8576133e8600080fd5b60006133f48585612d00565b925050602061315785828601612a44565b600061089c6001600160a01b03831661341c565b90565b6001600160a01b031690565b600061089c82613405565b600061089c82613428565b612a1681613433565b6020810161089c828461343e565b60ff8116612a16565b60a0810161346c8288612a2a565b6134796020830187612a2a565b6134866040830186613455565b6134936060830185612a2a565b6110386080830184612a2a565b601881526000602082017f476f7665726e6f723a206f6e6c79476f7665726e616e63650000000000000000815291505b5060200190565b6020808252810161089c816134a0565b60006134f4838584612aeb565b50500190565b6000610c528284866134e7565b634e487b7160e01b600052602260045260246000fd5b60028104600182168061353157607f821691505b60208210810361354357613543613507565b50919050565b602181526000602082017f476f7665726e6f723a2070726f706f73616c206e6f74207375636365737366758152601b60fa1b602082015291506129b8565b6020808252810161089c81613549565b805161089c81612a3e565b6000602082840312156135b7576135b7600080fd5b6000610c528484613597565b60006130c283836133bb565b60006135d9825190565b80845260209384019383018060005b838110156131085781516135fc88826135c3565b9750602083019250506001016135e8565b6000613617825190565b808452602084019350836020820285016136318560200190565b8060005b85811015612fa6578484038952815161364e8582612f41565b94506020830160209a909a0199925050600101613635565b600061089c6134198381565b612a1681613666565b60a0808252810161368c81886135cf565b905081810360208301526136a081876130ca565b905081810360408301526136b4818661360d565b90506134936060830185613672565b60c080825281016136d481896135cf565b905081810360208301526136e881886130ca565b905081810360408301526136fc818761360d565b905061370b6060830186613672565b6137186080830185612a2a565b61093360a0830184612a2a565b634e487b7160e01b600052601160045260246000fd5b6000821982111561374e5761374e613725565b500190565b604081016137618285612a2a565b6110dc6020830184612a2a565b601681526000602082017f476f7665726e6f723a206f6e6c794d756c746953696700000000000000000000815291506134d0565b6020808252810161089c8161376e565b601981526000602082017f70726f706f73616c20616c726561647920657865637574656400000000000000815291506134d0565b6020808252810161089c816137b2565b601681526000602082017f70726f706f73616c206e6f7420636f6e6669726d656400000000000000000000815291506134d0565b6020808252810161089c816137f6565b606081016138488286612a2a565b6138556020830185612a2a565b610c526040830184613455565b6080808252810161387381876135cf565b9050818103602083015261388781866130ca565b9050818103604083015261389b818561360d565b9050610efa6060830184612a2a565b601a81526000602082017f70726f706f73616c20616c726561647920636f6e6669726d6564000000000000815291506134d0565b6020808252810161089c816138aa565b602381526000602082017f476f7665726e6f723a20766f7465206e6f742063757272656e746c792061637481526269766560e81b602082015291506129b8565b6020808252810161089c816138ee565b6060810161394c8286613455565b6139596020830185612a2a565b8181036040830152610efa8184612c80565b608081016139798287613455565b6139866020830186612a2a565b81810360408301526139988185612c80565b905081810360608301526110388184612c80565b6020808252810161089c81604381527f476f7665726e6f72566f74657351756f72756d4672616374696f6e3a2071756f60208201527f72756d4e756d657261746f72206f7665722071756f72756d44656e6f6d696e616040820152623a37b960e91b606082015260800190565b634e487b7160e01b600052603260045260246000fd5b60006000198203613a4257613a42613725565b5060010190565b603481526000602082017f4d61696e546f6b656e476f7665726e6f723a2050726f706f73616c206e6f742081527f636f6e6669726d656420627920636f756e63696c000000000000000000000000602082015291506129b8565b6020808252810161089c81613a49565b600082821015613ac557613ac5613725565b500390565b600081613ad957613ad9613725565b506000190190565b8015156129db565b805161089c81613ae1565b600060208284031215613b0957613b09600080fd5b6000610c528484613ae9565b603181526000602082017f476f7665726e6f723a2070726f706f73657220766f7465732062656c6f77207081527f726f706f73616c207468726573686f6c64000000000000000000000000000000602082015291506129b8565b6020808252810161089c81613b15565b602181526000602082017f476f7665726e6f723a20696e76616c69642070726f706f73616c206c656e67748152600d60fb1b602082015291506129b8565b6020808252810161089c81613b7f565b601881526000602082017f476f7665726e6f723a20656d7074792070726f706f73616c0000000000000000815291506134d0565b6020808252810161089c81613bcd565b602181526000602082017f476f7665726e6f723a2070726f706f73616c20616c72656164792065786973748152607360f81b602082015291506129b8565b6020808252810161089c81613c11565b60006001600160401b03821691506001600160401b0383169250826001600160401b030382111561374e5761374e613725565b600061089c6134196001600160401b03841681565b612a1681613c92565b60c08082528101613cc181896135cf565b90508181036020830152613cd581886130ca565b90508181036040830152613ce98187612f4d565b90508181036060830152613cfd818661360d565b9050613d0c6080830185613ca7565b81810360a0830152613d1e8184612c80565b98975050505050505050565b6040810161376182856133bb565b60408101613d4682856133bb565b6110dc60208301846133bb565b602781526000602082017f476f7665726e6f7253657474696e67733a20766f74696e6720706572696f6420815266746f6f206c6f7760c81b602082015291506129b8565b6020808252810161089c81613d53565b6000816000190483118215151615613dc157613dc1613725565b500290565b634e487b7160e01b600052601260045260246000fd5b600082613deb57613deb613dc6565b500490565b61190160f01b81526002016000613e078285612a2a565b602082019150613e178284612a2a565b5060200192915050565b60808101613e2f8287612a2a565b613e3c6020830186613455565b613e496040830185612a2a565b610efa6060830184612a2a565b601881526000602082017f45434453413a20696e76616c6964207369676e61747572650000000000000000815291506134d0565b6020808252810161089c81613e56565b601f81526000602082017f45434453413a20696e76616c6964207369676e6174757265206c656e67746800815291506134d0565b6020808252810161089c81613e9a565b602281526000602082017f45434453413a20696e76616c6964207369676e6174757265202773272076616c815261756560f01b602082015291506129b8565b6020808252810161089c81613ede565b602281526000602082017f45434453413a20696e76616c6964207369676e6174757265202776272076616c815261756560f01b602082015291506129b8565b6020808252810161089c81613f2d565b602781526000602082017f476f7665726e6f72566f74696e6753696d706c653a20766f746520616c726561815266191e4818d85cdd60ca1b602082015291506129b8565b6020808252810161089c81613f7c565b603581526000602082017f476f7665726e6f72566f74696e6753696d706c653a20696e76616c696420766181527f6c756520666f7220656e756d20566f7465547970650000000000000000000000602082015291506129b8565b6020808252810161089c81613fd0565b60008261404957614049613dc6565b500690565b601d81526000602082017f476f7665726e6f723a20756e6b6e6f776e2070726f706f73616c206964000000815291506134d0565b6020808252810161089c8161404e565b602681526000602082017f53616665436173743a2076616c756520646f65736e27742066697420696e203681526534206269747360d01b602082015291506129b8565b6020808252810161089c81614092565b60a081016140f38288612a2a565b6141006020830187612a2a565b61410d6040830186612a2a565b61411a6060830185612a2a565b61103860808301846133bb56fea2646970667358221220e2f13d8716b46f1cb16287e7eff3229af988e56eb628778c5a85769a25d4355f64736f6c634300080d0033",
  "immutableReferences": {
    "3828": [
      {
        "length": 32,
        "start": 8728
      }
    ],
    "3830": [
      {
        "length": 32,
        "start": 8686
      }
    ],
    "3832": [
      {
        "length": 32,
        "start": 8644
      }
    ],
    "3834": [
      {
        "length": 32,
        "start": 8800
      }
    ],
    "3836": [
      {
        "length": 32,
        "start": 8833
      }
    ],
    "3838": [
      {
        "length": 32,
        "start": 8767
      }
    ],
    "11441": [
      {
        "length": 32,
        "start": 2121
      },
      {
        "length": 32,
        "start": 7985
      },
      {
        "length": 32,
        "start": 8413
      }
    ]
  },
  "source": "// SPDX-License-Identifier: MIT\n// Copyright Fathom 2022\n\npragma solidity 0.8.13;\n\nimport \"./Governor.sol\";\nimport \"./extensions/GovernorSettings.sol\";\nimport \"./extensions/GovernorCountingSimple.sol\";\nimport \"./extensions/GovernorVotes.sol\";\nimport \"./extensions/GovernorVotesQuorumFraction.sol\";\nimport \"./extensions/GovernorTimelockControl.sol\";\n\ncontract MainTokenGovernor is\n    Governor,\n    GovernorSettings,\n    GovernorCountingSimple,\n    GovernorVotes,\n    GovernorVotesQuorumFraction,\n    GovernorTimelockControl\n{\n    constructor(\n        IVotes _token,\n        TimelockController _timelock,\n        address _multiSig,\n        uint256 _initialVotingDelay,\n        uint256 _votingPeriod,\n        uint256 _initialProposalThreshold\n    )\n        Governor(\"MainTokenGovernor\", _multiSig)\n        GovernorSettings(_initialVotingDelay, _votingPeriod, _initialProposalThreshold)\n        GovernorVotes(_token)\n        GovernorVotesQuorumFraction(4)\n        GovernorTimelockControl(_timelock)\n    {}\n\n    function propose(\n        address[] memory targets,\n        uint256[] memory values,\n        bytes[] memory calldatas,\n        string memory description\n    ) public override(Governor, IGovernor) returns (uint256) {\n        return super.propose(targets, values, calldatas, description);\n    }\n\n    function proposalThreshold() public view override(Governor, GovernorSettings) returns (uint256) {\n        return super.proposalThreshold();\n    }\n\n    function supportsInterface(bytes4 interfaceId) public view override(Governor, GovernorTimelockControl) returns (bool) {\n        return super.supportsInterface(interfaceId);\n    }\n\n    function votingDelay() public view override(IGovernor, GovernorSettings) returns (uint256) {\n        return super.votingDelay();\n    }\n\n    function votingPeriod() public view override(IGovernor, GovernorSettings) returns (uint256) {\n        return super.votingPeriod();\n    }\n\n    function quorum(uint256 blockNumber) public view override(IGovernor, GovernorVotesQuorumFraction) returns (uint256) {\n        return super.quorum(blockNumber);\n    }\n\n    function state(uint256 proposalId) public view override(Governor, GovernorTimelockControl) returns (ProposalState) {\n        return super.state(proposalId);\n    }\n\n    function _execute(\n        uint256 proposalId,\n        address[] memory targets,\n        uint256[] memory values,\n        bytes[] memory calldatas,\n        bytes32 descriptionHash\n    ) internal override(Governor, GovernorTimelockControl) {\n        require(isConfirmed[proposalId], \"MainTokenGovernor: Proposal not confirmed by council\");\n        super._execute(proposalId, targets, values, calldatas, descriptionHash);\n    }\n\n    function _cancel(\n        address[] memory targets,\n        uint256[] memory values,\n        bytes[] memory calldatas,\n        bytes32 descriptionHash\n    ) internal override(Governor, GovernorTimelockControl) returns (uint256) {\n        return super._cancel(targets, values, calldatas, descriptionHash);\n    }\n\n    function _executor() internal view override(Governor, GovernorTimelockControl) returns (address) {\n        return super._executor();\n    }\n}\n",
  "sourcePath": "/Users/subiksinghshrestha/Documents/FATHOM/fathom-dao-smart-contracts/contracts/dao/governance/MainTokenGovernor.sol",
  "compiler": {
    "name": "solc",
    "version": "0.8.13+commit.abaa5c0e.Darwin.appleclang"
  },
  "schemaVersion": "3.4.10",
  "updatedAt": "2022-12-12T16:04:25.523Z",
  "devdoc": {
    "errors": {
      "Empty()": [
        {
          "details": "An operation (e.g. {front}) couldn't be completed due to the queue being empty."
        }
      ]
    },
    "kind": "dev",
    "methods": {
      "hashProposal(address[],uint256[],bytes[],bytes32)": {
        "details": "A description of the possible `support` values for {castVote} and the way these votes are counted, meant to be consumed by UIs to show correct vote options and interpret the results. The string is a URL-encoded sequence of key-value pairs that each describe one aspect, for example `support=bravo&quorum=for,abstain`. There are 2 standard keys: `support` and `quorum`. - `support=bravo` refers to the vote options 0 = Against, 1 = For, 2 = Abstain, as in `GovernorBravo`. - `quorum=bravo` means that only For votes are counted towards quorum. - `quorum=for,abstain` means that both For and Abstain votes are counted towards quorum. If a counting module makes use of encoded `params`, it should  include this under a `params` key with a unique name that describes the behavior. For example: - `params=fractional` might refer to a scheme where votes are divided fractionally between for/against/abstain. - `params=erc721` might refer to a scheme where specific NFTs are delegated to vote. NOTE: The string can be decoded by the standard https://developer.mozilla.org/en-US/docs/Web/API/URLSearchParams[`URLSearchParams`] JavaScript class."
      },
      "updateQuorumNumerator(uint256)": {
        "details": "Changes the quorum numerator. Emits a {QuorumNumeratorUpdated} event. Requirements: - Must be called through a governance proposal. - New numerator must be smaller or equal to the denominator."
      }
    },
    "version": 1
  },
  "userdoc": {
    "kind": "user",
    "methods": {},
    "version": 1
  }
}