{
    "contractName": "StakingGettersHelper",
    "abi": [
        {
            "inputs": [
                {
                    "internalType": "address",
                    "name": "_stakingContract",
                    "type": "address"
                },
                {
                    "internalType": "address",
                    "name": "admin",
                    "type": "address"
                }
            ],
            "stateMutability": "nonpayable",
            "type": "constructor"
        },
        {
            "anonymous": false,
            "inputs": [
                {
                    "indexed": true,
                    "internalType": "bytes32",
                    "name": "role",
                    "type": "bytes32"
                },
                {
                    "indexed": true,
                    "internalType": "bytes32",
                    "name": "previousAdminRole",
                    "type": "bytes32"
                },
                {
                    "indexed": true,
                    "internalType": "bytes32",
                    "name": "newAdminRole",
                    "type": "bytes32"
                }
            ],
            "name": "RoleAdminChanged",
            "type": "event"
        },
        {
            "anonymous": false,
            "inputs": [
                {
                    "indexed": true,
                    "internalType": "bytes32",
                    "name": "role",
                    "type": "bytes32"
                },
                {
                    "indexed": true,
                    "internalType": "address",
                    "name": "account",
                    "type": "address"
                },
                {
                    "indexed": true,
                    "internalType": "address",
                    "name": "sender",
                    "type": "address"
                }
            ],
            "name": "RoleGranted",
            "type": "event"
        },
        {
            "anonymous": false,
            "inputs": [
                {
                    "indexed": true,
                    "internalType": "bytes32",
                    "name": "role",
                    "type": "bytes32"
                },
                {
                    "indexed": true,
                    "internalType": "address",
                    "name": "account",
                    "type": "address"
                },
                {
                    "indexed": true,
                    "internalType": "address",
                    "name": "sender",
                    "type": "address"
                }
            ],
            "name": "RoleRevoked",
            "type": "event"
        },
        {
            "inputs": [],
            "name": "DEFAULT_ADMIN_ROLE",
            "outputs": [
                {
                    "internalType": "bytes32",
                    "name": "",
                    "type": "bytes32"
                }
            ],
            "stateMutability": "view",
            "type": "function"
        },
        {
            "inputs": [
                {
                    "internalType": "bytes32",
                    "name": "role",
                    "type": "bytes32"
                }
            ],
            "name": "getRoleAdmin",
            "outputs": [
                {
                    "internalType": "bytes32",
                    "name": "",
                    "type": "bytes32"
                }
            ],
            "stateMutability": "view",
            "type": "function"
        },
        {
            "inputs": [
                {
                    "internalType": "bytes32",
                    "name": "role",
                    "type": "bytes32"
                },
                {
                    "internalType": "address",
                    "name": "account",
                    "type": "address"
                }
            ],
            "name": "grantRole",
            "outputs": [],
            "stateMutability": "nonpayable",
            "type": "function"
        },
        {
            "inputs": [
                {
                    "internalType": "bytes32",
                    "name": "role",
                    "type": "bytes32"
                },
                {
                    "internalType": "address",
                    "name": "account",
                    "type": "address"
                }
            ],
            "name": "hasRole",
            "outputs": [
                {
                    "internalType": "bool",
                    "name": "",
                    "type": "bool"
                }
            ],
            "stateMutability": "view",
            "type": "function"
        },
        {
            "inputs": [
                {
                    "internalType": "bytes32",
                    "name": "role",
                    "type": "bytes32"
                },
                {
                    "internalType": "address",
                    "name": "account",
                    "type": "address"
                }
            ],
            "name": "renounceRole",
            "outputs": [],
            "stateMutability": "nonpayable",
            "type": "function"
        },
        {
            "inputs": [
                {
                    "internalType": "bytes32",
                    "name": "role",
                    "type": "bytes32"
                },
                {
                    "internalType": "address",
                    "name": "account",
                    "type": "address"
                }
            ],
            "name": "revokeRole",
            "outputs": [],
            "stateMutability": "nonpayable",
            "type": "function"
        },
        {
            "inputs": [
                {
                    "internalType": "bytes4",
                    "name": "interfaceId",
                    "type": "bytes4"
                }
            ],
            "name": "supportsInterface",
            "outputs": [
                {
                    "internalType": "bool",
                    "name": "",
                    "type": "bool"
                }
            ],
            "stateMutability": "view",
            "type": "function"
        },
        {
            "inputs": [
                {
                    "internalType": "address",
                    "name": "account",
                    "type": "address"
                },
                {
                    "internalType": "uint256",
                    "name": "lockId",
                    "type": "uint256"
                }
            ],
            "name": "getLockInfo",
            "outputs": [
                {
                    "components": [
                        {
                            "internalType": "uint128",
                            "name": "amountOfToken",
                            "type": "uint128"
                        },
                        {
                            "internalType": "uint128",
                            "name": "amountOfVoteToken",
                            "type": "uint128"
                        },
                        {
                            "internalType": "uint128",
                            "name": "positionStreamShares",
                            "type": "uint128"
                        },
                        {
                            "internalType": "uint64",
                            "name": "end",
                            "type": "uint64"
                        },
                        {
                            "internalType": "address",
                            "name": "owner",
                            "type": "address"
                        }
                    ],
                    "internalType": "struct LockedBalance",
                    "name": "",
                    "type": "tuple"
                }
            ],
            "stateMutability": "view",
            "type": "function"
        },
        {
            "inputs": [
                {
                    "internalType": "address",
                    "name": "account",
                    "type": "address"
                }
            ],
            "name": "getLocksLength",
            "outputs": [
                {
                    "internalType": "uint256",
                    "name": "",
                    "type": "uint256"
                }
            ],
            "stateMutability": "view",
            "type": "function"
        },
        {
            "inputs": [
                {
                    "internalType": "address",
                    "name": "account",
                    "type": "address"
                },
                {
                    "internalType": "uint256",
                    "name": "lockId",
                    "type": "uint256"
                }
            ],
            "name": "getLock",
            "outputs": [
                {
                    "internalType": "uint128",
                    "name": "",
                    "type": "uint128"
                },
                {
                    "internalType": "uint128",
                    "name": "",
                    "type": "uint128"
                },
                {
                    "internalType": "uint128",
                    "name": "",
                    "type": "uint128"
                },
                {
                    "internalType": "uint64",
                    "name": "",
                    "type": "uint64"
                },
                {
                    "internalType": "address",
                    "name": "",
                    "type": "address"
                }
            ],
            "stateMutability": "view",
            "type": "function"
        },
        {
            "inputs": [
                {
                    "internalType": "address",
                    "name": "account",
                    "type": "address"
                }
            ],
            "name": "getUserTotalDeposit",
            "outputs": [
                {
                    "internalType": "uint256",
                    "name": "",
                    "type": "uint256"
                }
            ],
            "stateMutability": "view",
            "type": "function"
        },
        {
            "inputs": [
                {
                    "internalType": "uint256",
                    "name": "streamId",
                    "type": "uint256"
                },
                {
                    "internalType": "address",
                    "name": "account",
                    "type": "address"
                }
            ],
            "name": "getStreamClaimableAmount",
            "outputs": [
                {
                    "internalType": "uint256",
                    "name": "",
                    "type": "uint256"
                }
            ],
            "stateMutability": "view",
            "type": "function"
        },
        {
            "inputs": [
                {
                    "internalType": "address",
                    "name": "account",
                    "type": "address"
                }
            ],
            "name": "getUserTotalVotes",
            "outputs": [
                {
                    "internalType": "uint256",
                    "name": "",
                    "type": "uint256"
                }
            ],
            "stateMutability": "view",
            "type": "function"
        },
        {
            "inputs": [
                {
                    "internalType": "uint256",
                    "name": "lockId",
                    "type": "uint256"
                },
                {
                    "internalType": "address",
                    "name": "account",
                    "type": "address"
                }
            ],
            "name": "getFeesForEarlyUnlock",
            "outputs": [
                {
                    "internalType": "uint256",
                    "name": "",
                    "type": "uint256"
                }
            ],
            "stateMutability": "view",
            "type": "function"
        }
    ],
    "bytecode": "0x60806040523480156200001157600080fd5b506040516200175238038062001752833981016040819052620000349162000151565b600180546001600160a01b0319166001600160a01b0384161790556200005c60008262000064565b505062000194565b620000708282620000ed565b620000e9576000828152602081815260408083206001600160a01b03851684529091529020805460ff19166001179055620000a83390565b6001600160a01b0316816001600160a01b0316837f2f8788117e7eff1d82e926ec794901d17c78024a50270940304540a733656f0d60405160405180910390a45b5050565b6000828152602081815260408083206001600160a01b038516845290915290205460ff165b92915050565b60006001600160a01b03821662000112565b620001358162000118565b81146200014157600080fd5b50565b805162000112816200012a565b60008060408385031215620001695762000169600080fd5b600062000177858562000144565b92505060206200018a8582860162000144565b9150509250929050565b6115ae80620001a46000396000f3fe608060405234801561001057600080fd5b50600436106100ea5760003560e01c806336568abe1161008c578063a217fddf11610066578063a217fddf14610224578063a4c828dc1461022c578063b37a7c101461023f578063d547741f1461025257600080fd5b806336568abe146101c75780637183ab24146101da57806391d14854146101ed57600080fd5b806315b9672c116100c857806315b9672c1461015c5780631c61e6171461017c578063248a9ca31461018f5780632f2ff15d146101b257600080fd5b806301ffc9a7146100ef5780630e0930f0146101185780631208a25614610138575b600080fd5b6101026100fd366004610cbe565b610265565b60405161010f9190610cf1565b60405180910390f35b61012b610126366004610d24565b61029c565b60405161010f9190610d4b565b61014b610146366004610d6a565b6102b0565b60405161010f959493929190610dcf565b61016f61016a366004610d6a565b610360565b60405161010f9190610e7e565b61012b61018a366004610e8c565b610404565b61012b61019d366004610ebf565b60009081526020819052604090206001015490565b6101c56101c0366004610e8c565b6104ce565b005b6101c56101d5366004610e8c565b6104f8565b61012b6101e8366004610d24565b61052e565b6101026101fb366004610e8c565b6000918252602082815260408084206001600160a01b0393909316845291905290205460ff1690565b61012b600081565b61012b61023a366004610d24565b6105b3565b61012b61024d366004610e8c565b610630565b6101c5610260366004610e8c565b610726565b60006001600160e01b03198216637965db0b60e01b148061029657506301ffc9a760e01b6001600160e01b03198316145b92915050565b6000806102a88361074b565b519392505050565b6000806000806000806102c28861074b565b90506000816102d260018a610ef6565b815181106102e2576102e2610f11565b6020026020010151905081518811156103165760405162461bcd60e51b815260040161030d90610f4d565b60405180910390fd5b600088116103365760405162461bcd60e51b815260040161030d90610f84565b8051602082015160408301516060840151608090940151929c919b50995091975095509350505050565b6040805160a0810182526000808252602082018190529181018290526060810182905260808101829052906103948461074b565b905080518311156103b75760405162461bcd60e51b815260040161030d90610f4d565b600083116103d75760405162461bcd60e51b815260040161030d90610f84565b806103e3600185610ef6565b815181106103f3576103f3610f11565b602002602001015191505092915050565b6000806104108361074b565b90508051600003610425576000915050610296565b600060015b825181116104c55760015460405163ddcf3e2960e01b81526001600160a01b039091169063ddcf3e299061046690899089908690600401610f94565b602060405180830381865afa158015610483573d6000803e3d6000fd5b505050506040513d601f19601f820116820180604052508101906104a79190610fc7565b6104b19083610fe8565b9150806104bd81611000565b91505061042a565b50949350505050565b6000828152602081905260409020600101546104e9816107cd565b6104f383836107da565b505050565b6001600160a01b03811633146105205760405162461bcd60e51b815260040161030d9061101a565b61052a8282610878565b5050565b60008061053a8361074b565b9050805160000361054e5750600092915050565b600060015b825181116105ab5782610567600183610ef6565b8151811061057757610577610f11565b6020026020010151602001516001600160801b0316826105979190610fe8565b9150806105a381611000565b915050610553565b509392505050565b6000806105bf8361074b565b905080516000036105d35750600092915050565b600060015b825181116105ab57826105ec600183610ef6565b815181106105fc576105fc610f11565b6020026020010151600001516001600160801b03168261061c9190610fe8565b91508061062881611000565b9150506105d8565b60008061063c8361074b565b9050805184111561065f5760405162461bcd60e51b815260040161030d90610f4d565b60008161066d600187610ef6565b8151811061067d5761067d610f11565b60200260200101519050600085116106a75760405162461bcd60e51b815260040161030d90610f84565b42816060015167ffffffffffffffff16116106d45760405162461bcd60e51b815260040161030d906110a1565b805160608201516001600160801b039091169067ffffffffffffffff1660006106fd82426108f7565b90506000620186a061070f85846110b1565b61071991906110e6565b9998505050505050505050565b600082815260208190526040902060010154610741816107cd565b6104f38383610878565b600154604051630a8d85f760e41b81526060916000916001600160a01b039091169063a8d85f70906107819086906004016110fa565b600060405180830381865afa15801561079e573d6000803e3d6000fd5b505050506040513d6000823e601f3d908101601f191682016040526107c691908101906112d7565b9392505050565b6107d78133610a19565b50565b6000828152602081815260408083206001600160a01b038516845290915290205460ff1661052a576000828152602081815260408083206001600160a01b03851684529091529020805460ff191660011790556108343390565b6001600160a01b0316816001600160a01b0316837f2f8788117e7eff1d82e926ec794901d17c78024a50270940304540a733656f0d60405160405180910390a45050565b6000828152602081815260408083206001600160a01b038516845290915290205460ff161561052a576000828152602081815260408083206001600160a01b0385168085529252808320805460ff1916905551339285917ff6391f5c32d9c69d2a47ea670b442974b53935d1edc7fd64eb21e047a839171b9190a45050565b600080610902610a97565b90506000600160009054906101000a90046001600160a01b03166001600160a01b0316634b1d29b46040518163ffffffff1660e01b8152600401602060405180830381865afa158015610959573d6000803e3d6000fd5b505050506040513d601f19601f8201168201806040525081019061097d9190611312565b67ffffffffffffffff1690508480851061099d5760009350505050610296565b60006109a98683610ef6565b90508281856060015186604001516109c19190611333565b86608001516109d0919061134a565b63ffffffff166109e091906110b1565b6109ea91906110e6565b846060015185608001516109fe919061134a565b63ffffffff16610a0e9190610fe8565b979650505050505050565b6000828152602081815260408083206001600160a01b038516845290915290205460ff1661052a57610a55816001600160a01b03166014610b30565b610a60836020610b30565b604051602001610a719291906113c6565b60408051601f198184030181529082905262461bcd60e51b825261030d9160040161145c565b6040805160a080820183526000808352602083018190528284018190526060830181905260808301526001548351630153696f60e71b8152935192936001600160a01b039091169263a9b4b780926004808401939192918290030181865afa158015610b07573d6000803e3d6000fd5b505050506040513d601f19601f82011682018060405250810190610b2b91906114fe565b905090565b60606000610b3f8360026110b1565b610b4a906002610fe8565b67ffffffffffffffff811115610b6257610b62611108565b6040519080825280601f01601f191660200182016040528015610b8c576020820181803683370190505b509050600360fc1b81600081518110610ba757610ba7610f11565b60200101906001600160f81b031916908160001a905350600f60fb1b81600181518110610bd657610bd6610f11565b60200101906001600160f81b031916908160001a9053506000610bfa8460026110b1565b610c05906001610fe8565b90505b6001811115610c7d576f181899199a1a9b1b9c1cb0b131b232b360811b85600f1660108110610c3957610c39610f11565b1a60f81b828281518110610c4f57610c4f610f11565b60200101906001600160f81b031916908160001a90535060049490941c93610c768161151f565b9050610c08565b5083156107c65760405162461bcd60e51b815260040161030d90611568565b6001600160e01b031981165b81146107d757600080fd5b803561029681610c9c565b600060208284031215610cd357610cd3600080fd5b6000610cdf8484610cb3565b949350505050565b8015155b82525050565b602081016102968284610ce7565b60006001600160a01b038216610296565b610ca881610cff565b803561029681610d10565b600060208284031215610d3957610d39600080fd5b6000610cdf8484610d19565b80610ceb565b602081016102968284610d45565b80610ca8565b803561029681610d59565b60008060408385031215610d8057610d80600080fd5b6000610d8c8585610d19565b9250506020610d9d85828601610d5f565b9150509250929050565b6001600160801b038116610ceb565b67ffffffffffffffff8116610ceb565b610ceb81610cff565b60a08101610ddd8288610da7565b610dea6020830187610da7565b610df76040830186610da7565b610e046060830185610db6565b610e116080830184610dc6565b9695505050505050565b805160a0830190610e2c8482610da7565b506020820151610e3f6020850182610da7565b506040820151610e526040850182610da7565b506060820151610e656060850182610db6565b506080820151610e786080850182610dc6565b50505050565b60a081016102968284610e1b565b60008060408385031215610ea257610ea2600080fd5b6000610eae8585610d5f565b9250506020610d9d85828601610d19565b600060208284031215610ed457610ed4600080fd5b6000610cdf8484610d5f565b634e487b7160e01b600052601160045260246000fd5b6000825b925082821015610f0c57610f0c610ee0565b500390565b634e487b7160e01b600052603260045260246000fd5b600c81526000602082016b0deeae840decc40d2dcc8caf60a31b815291505b5060200190565b6020808252810161029681610f27565b601081526000602082016f06c6f636b49642063616e7420626520360841b81529150610f46565b6020808252810161029681610f5d565b60608101610fa28286610d45565b610faf6020830185610dc6565b610cdf6040830184610d45565b805161029681610d59565b600060208284031215610fdc57610fdc600080fd5b6000610cdf8484610fbc565b60008219821115610ffb57610ffb610ee0565b500190565b6000600019820361101357611013610ee0565b5060010190565b6020808252810161029681602f81527f416363657373436f6e74726f6c3a2063616e206f6e6c792072656e6f756e636560208201526e103937b632b9903337b91039b2b63360891b604082015260600190565b601781526000602082017f6c6f636b206f70656e65642c206e6f2070656e616c747900000000000000000081529150610f46565b602080825281016102968161106d565b60008160001904831182151516156110cb576110cb610ee0565b500290565b634e487b7160e01b600052601260045260246000fd5b6000826110f5576110f56110d0565b500490565b602081016102968284610dc6565b634e487b7160e01b600052604160045260246000fd5b601f19601f830116810181811067ffffffffffffffff8211171561114457611144611108565b6040525050565b600061115660405190565b9050611162828261111e565b919050565b600067ffffffffffffffff82111561118157611181611108565b5060209081020190565b6001600160801b038116610ca8565b80516102968161118b565b67ffffffffffffffff8116610ca8565b8051610296816111a5565b805161029681610d10565b600060a082840312156111e0576111e0600080fd5b6111ea60a061114b565b905060006111f8848461119a565b82525060206112098484830161119a565b602083015250604061121d8482850161119a565b6040830152506060611231848285016111b5565b6060830152506080611245848285016111c0565b60808301525092915050565b600061126461125f84611167565b61114b565b83815290506020810160a0840283018581111561128357611283600080fd5b835b818110156112a9578061129888826111cb565b84525060209092019160a001611285565b5050509392505050565b600082601f8301126112c7576112c7600080fd5b8151610cdf848260208601611251565b6000602082840312156112ec576112ec600080fd5b815167ffffffffffffffff81111561130657611306600080fd5b610cdf848285016112b3565b60006020828403121561132757611327600080fd5b6000610cdf84846111b5565b600063ffffffff8216915063ffffffff8316610efa565b600063ffffffff8216915063ffffffff831692508163ffffffff04831182151516156110cb576110cb610ee0565b60005b8381101561139357818101518382015260200161137b565b83811115610e785750506000910152565b60006113ae825190565b6113bc818560208601611378565b9290920192915050565b7f416363657373436f6e74726f6c3a206163636f756e7420000000000000000000815260170160006113f882856113a4565b7f206973206d697373696e6720726f6c652000000000000000000000000000000081526011019150610cdf82846113a4565b6000611434825190565b80845260208401935061144b818560208601611378565b601f01601f19169290920192915050565b602080825281016107c6818461142a565b63ffffffff8116610ca8565b80516102968161146d565b600060a0828403121561149957611499600080fd5b6114a360a061114b565b905060006114b18484611479565b82525060206114c284848301611479565b60208301525060406114d684828501611479565b60408301525060606114ea84828501611479565b606083015250608061124584828501611479565b600060a0828403121561151357611513600080fd5b6000610cdf8484611484565b60008161152e5761152e610ee0565b506000190190565b60208082527f537472696e67733a20686578206c656e67746820696e73756666696369656e7491019081526000610f46565b602080825281016102968161153656fea2646970667358221220f6ba2d41daec52cf908a4fd7f026866cb6c07445d5aecc5dfc2ddc9dc2fc36a264736f6c634300080d0033",
    "immutableReferences": {},
    "source": "// Copyright SECURRENCY INC.\n// SPDX-License-Identifier: AGPL 3.0\npragma solidity 0.8.13;\n\nimport \"./IStakingHelper.sol\";\nimport \"./IStakingGetterHelper.sol\";\nimport \"../interfaces/IStakingGetter.sol\";\nimport \"../StakingStructs.sol\";\nimport \"../../../common/access/AccessControl.sol\";\n\ncontract StakingGettersHelper is IStakingGetterHelper, AccessControl {\n    address private stakingContract;\n    uint256 internal constant ONE_MONTH = 2629746;\n    uint256 internal constant ONE_YEAR = 31536000;\n    uint256 internal constant WEEK = 604800;\n\n    constructor(address _stakingContract, address admin) {\n        stakingContract = _stakingContract;\n        _grantRole(DEFAULT_ADMIN_ROLE, admin);\n    }\n\n    function getLockInfo(address account, uint256 lockId) public view override returns (LockedBalance memory) {\n        LockedBalance[] memory locks = _getAllLocks(account);\n        require(lockId <= locks.length, \"out of index\");\n        require(lockId > 0, \"lockId cant be 0\");\n        return locks[lockId - 1];\n    }\n\n    function getLocksLength(address account) public view override returns (uint256) {\n        LockedBalance[] memory locks = _getAllLocks(account);\n        return locks.length;\n    }\n\n    function getLock(address account, uint lockId) public view override returns (uint128, uint128, uint128, uint64, address) {\n        LockedBalance[] memory locks = _getAllLocks(account);\n        LockedBalance memory lock = locks[lockId - 1];\n        require(lockId <= locks.length, \"out of index\");\n        require(lockId > 0, \"lockId cant be 0\");\n        return (lock.amountOfToken, lock.amountOfVoteToken, lock.positionStreamShares, lock.end, lock.owner);\n    }\n\n    function getUserTotalDeposit(address account) public view override returns (uint256) {\n        LockedBalance[] memory locks = _getAllLocks(account);\n        if (locks.length == 0) {\n            return 0;\n        }\n        uint totalDeposit = 0;\n        for (uint lockId = 1; lockId <= locks.length; lockId++) {\n            totalDeposit += locks[lockId - 1].amountOfToken;\n        }\n        return totalDeposit;\n    }\n\n    function getStreamClaimableAmount(uint256 streamId, address account) public view override returns (uint256) {\n        LockedBalance[] memory locks = _getAllLocks(account);\n        if (locks.length == 0) {\n            return 0;\n        }\n        uint totalRewards = 0;\n        for (uint lockId = 1; lockId <= locks.length; lockId++) {\n            totalRewards += IStakingHelper(stakingContract).getStreamClaimableAmountPerLock(streamId, account, lockId);\n        }\n        return totalRewards;\n    }\n\n    function getUserTotalVotes(address account) public view override returns (uint256) {\n        LockedBalance[] memory locks = _getAllLocks(account);\n        if (locks.length == 0) {\n            return 0;\n        }\n        uint totalVotes = 0;\n        for (uint lockId = 1; lockId <= locks.length; lockId++) {\n            totalVotes += locks[lockId - 1].amountOfVoteToken;\n        }\n        return totalVotes;\n    }\n\n    function getFeesForEarlyUnlock(uint256 lockId, address account) public view override returns (uint256) {\n        LockedBalance[] memory locks = _getAllLocks(account);\n        require(lockId <= locks.length, \"out of index\");\n        LockedBalance memory lock = locks[lockId - 1];\n        require(lockId > 0, \"lockId cant be 0\");\n        require(lock.end > block.timestamp, \"lock opened, no penalty\");\n\n        uint256 amount = lock.amountOfToken;\n        uint256 lockEnd = lock.end;\n        uint256 weighingCoef = _weightedPenalty(lockEnd, block.timestamp);\n        uint256 penalty = (weighingCoef * amount) / 100000;\n        return penalty;\n    }\n\n    function _getAllLocks(address account) internal view returns (LockedBalance[] memory) {\n        LockedBalance[] memory locks = IStakingHelper(stakingContract).getAllLocks(account);\n        return locks;\n    }\n\n    function _weightedPenalty(uint256 lockEnd, uint256 timestamp) internal view returns (uint256) {\n        Weight memory weight = _getWeight();\n        uint maxLockPeriod = IStakingHelper(stakingContract).maxLockPeriod();\n        uint256 slopeStart = lockEnd;\n        if (timestamp >= slopeStart) return 0;\n        uint256 remainingTime = slopeStart - timestamp;\n\n        //why weight multiplier: Because if a person remaining time is less than 12 hours, the calculation\n        //would only give minWeightPenalty, because 2900 * 12hours/4days = 0\n        return (weight.penaltyWeightMultiplier *\n            weight.minWeightPenalty +\n            (weight.penaltyWeightMultiplier * (weight.maxWeightPenalty - weight.minWeightPenalty) * remainingTime) /\n            maxLockPeriod);\n    }\n\n    function _getWeight() internal view returns (Weight memory) {\n        return IStakingHelper(stakingContract).getWeight();\n    }\n}\n",
    "sourcePath": "/Users/subiksinghshrestha/Documents/FATHOM/fathom-dao-smart-contracts/contracts/dao/staking/helpers/StakingGettersHelper.sol",
    "compiler": {
        "name": "solc",
        "version": "0.8.13+commit.abaa5c0e.Darwin.appleclang"
    },
    "schemaVersion": "3.4.10",
    "updatedAt": "2022-12-12T16:38:32.975Z",
    "devdoc": {
        "kind": "dev",
        "methods": {
            "getRoleAdmin(bytes32)": {
                "details": "Returns the admin role that controls `role`. See {grantRole} and {revokeRole}. To change a role's admin, use {_setRoleAdmin}."
            },
            "grantRole(bytes32,address)": {
                "details": "Grants `role` to `account`. If `account` had not been already granted `role`, emits a {RoleGranted} event. Requirements: - the caller must have ``role``'s admin role. May emit a {RoleGranted} event."
            },
            "hasRole(bytes32,address)": {
                "details": "Returns `true` if `account` has been granted `role`."
            },
            "renounceRole(bytes32,address)": {
                "details": "Revokes `role` from the calling account. Roles are often managed via {grantRole} and {revokeRole}: this function's purpose is to provide a mechanism for accounts to lose their privileges if they are compromised (such as when a trusted device is misplaced). If the calling account had been revoked `role`, emits a {RoleRevoked} event. Requirements: - the caller must be `account`. May emit a {RoleRevoked} event."
            },
            "revokeRole(bytes32,address)": {
                "details": "Revokes `role` from `account`. If `account` had been granted `role`, emits a {RoleRevoked} event. Requirements: - the caller must have ``role``'s admin role. May emit a {RoleRevoked} event."
            },
            "supportsInterface(bytes4)": {
                "details": "See {IERC165-supportsInterface}."
            }
        },
        "version": 1
    },
    "userdoc": {
        "kind": "user",
        "methods": {},
        "version": 1
    }
}