{
  "_format": "hh-sol-artifact-1",
  "contractName": "StakingGetters",
  "sourceName": "contracts/dao/staking/helpers/StakingGetters.sol",
  "abi": [
    {
      "inputs": [
        {
          "internalType": "address",
          "name": "_stakingContract",
          "type": "address"
        }
      ],
      "stateMutability": "nonpayable",
      "type": "constructor"
    },
    {
      "inputs": [
        {
          "internalType": "uint256",
          "name": "streamId",
          "type": "uint256"
        }
      ],
      "name": "getLatestRewardsPerShare",
      "outputs": [
        {
          "internalType": "uint256",
          "name": "",
          "type": "uint256"
        }
      ],
      "stateMutability": "view",
      "type": "function"
    },
    {
      "inputs": [
        {
          "internalType": "address",
          "name": "account",
          "type": "address"
        },
        {
          "internalType": "uint256",
          "name": "lockId",
          "type": "uint256"
        }
      ],
      "name": "getLock",
      "outputs": [
        {
          "internalType": "uint128",
          "name": "",
          "type": "uint128"
        },
        {
          "internalType": "uint128",
          "name": "",
          "type": "uint128"
        },
        {
          "internalType": "uint128",
          "name": "",
          "type": "uint128"
        },
        {
          "internalType": "uint128",
          "name": "",
          "type": "uint128"
        },
        {
          "internalType": "uint64",
          "name": "",
          "type": "uint64"
        },
        {
          "internalType": "address",
          "name": "",
          "type": "address"
        }
      ],
      "stateMutability": "view",
      "type": "function"
    },
    {
      "inputs": [
        {
          "internalType": "address",
          "name": "account",
          "type": "address"
        },
        {
          "internalType": "uint256",
          "name": "lockId",
          "type": "uint256"
        }
      ],
      "name": "getLockInfo",
      "outputs": [
        {
          "components": [
            {
              "internalType": "uint128",
              "name": "amountOfMAINTkn",
              "type": "uint128"
            },
            {
              "internalType": "uint128",
              "name": "amountOfveMAINTkn",
              "type": "uint128"
            },
            {
              "internalType": "uint128",
              "name": "mainTknShares",
              "type": "uint128"
            },
            {
              "internalType": "uint128",
              "name": "positionStreamShares",
              "type": "uint128"
            },
            {
              "internalType": "uint64",
              "name": "end",
              "type": "uint64"
            },
            {
              "internalType": "address",
              "name": "owner",
              "type": "address"
            }
          ],
          "internalType": "struct LockedBalance",
          "name": "",
          "type": "tuple"
        }
      ],
      "stateMutability": "view",
      "type": "function"
    },
    {
      "inputs": [
        {
          "internalType": "address",
          "name": "account",
          "type": "address"
        }
      ],
      "name": "getLocksLength",
      "outputs": [
        {
          "internalType": "uint256",
          "name": "",
          "type": "uint256"
        }
      ],
      "stateMutability": "view",
      "type": "function"
    },
    {
      "inputs": [
        {
          "internalType": "address",
          "name": "account",
          "type": "address"
        }
      ],
      "name": "getUserTotalDeposit",
      "outputs": [
        {
          "internalType": "uint256",
          "name": "",
          "type": "uint256"
        }
      ],
      "stateMutability": "view",
      "type": "function"
    }
  ],
  "bytecode": "0x608060405234801561001057600080fd5b50604051610a99380380610a9983398101604081905261002f91610089565b600080546001600160a01b0319166001600160a01b03929092169190911790556100b2565b60006001600160a01b0382165b92915050565b61007081610054565b811461007b57600080fd5b50565b805161006181610067565b60006020828403121561009e5761009e600080fd5b60006100aa848461007e565b949350505050565b6109d8806100c16000396000f3fe608060405234801561001057600080fd5b50600436106100575760003560e01c80630e0930f01461005c5780631208a2561461008557806315b9672c146100aa578063277d96b7146100ca578063a4c828dc146100dd575b600080fd5b61006f61006a3660046104e7565b6100f0565b60405161007c9190610518565b60405180910390f35b610098610093366004610537565b61016e565b60405161007c9695949392919061059c565b6100bd6100b8366004610537565b610276565b60405161007c919061066c565b61006f6100d836600461067a565b61036f565b61006f6100eb3660046104e7565b6103e1565b60008054604051630a8d85f760e41b815282916001600160a01b03169063a8d85f709061012190869060040161069b565b600060405180830381865afa15801561013e573d6000803e3d6000fd5b505050506040513d6000823e601f3d908101601f19168201604052610166919081019061088c565b519392505050565b60008054604051630a8d85f760e41b81528291829182918291829182916001600160a01b039091169063a8d85f70906101ab908c9060040161069b565b600060405180830381865afa1580156101c8573d6000803e3d6000fd5b505050506040513d6000823e601f3d908101601f191682016040526101f0919081019061088c565b905060008161020060018b6108dd565b81518110610210576102106108f4565b6020026020010151905081518911156102445760405162461bcd60e51b815260040161023b9061090a565b60405180910390fd5b8051602082015160408301516060840151608085015160a090950151939e929d50909b50995091975095509350505050565b6040805160c081018252600080825260208201819052918101829052606081018290526080810182905260a081019190915260008054604051630a8d85f760e41b81526001600160a01b039091169063a8d85f70906102d990879060040161069b565b600060405180830381865afa1580156102f6573d6000803e3d6000fd5b505050506040513d6000823e601f3d908101601f1916820160405261031e919081019061088c565b905080518311156103415760405162461bcd60e51b815260040161023b9061090a565b8061034d6001856108dd565b8151811061035d5761035d6108f4565b60200260200101519150505b92915050565b6000805460405163277d96b760e01b81526001600160a01b039091169063277d96b7906103a0908590600401610518565b602060405180830381865afa1580156103bd573d6000803e3d6000fd5b505050506040513d601f19601f82011682018060405250810190610369919061094f565b60008054604051630a8d85f760e41b815282916001600160a01b03169063a8d85f709061041290869060040161069b565b600060405180830381865afa15801561042f573d6000803e3d6000fd5b505050506040513d6000823e601f3d908101601f19168201604052610457919081019061088c565b90506000805b82518110156104ac57828181518110610478576104786108f4565b6020026020010151600001516001600160801b0316826104989190610970565b9150806104a481610988565b91505061045d565b509392505050565b60006001600160a01b038216610369565b6104ce816104b4565b81146104d957600080fd5b50565b8035610369816104c5565b6000602082840312156104fc576104fc600080fd5b600061050884846104dc565b949350505050565b805b82525050565b602081016103698284610510565b806104ce565b803561036981610526565b6000806040838503121561054d5761054d600080fd5b600061055985856104dc565b925050602061056a8582860161052c565b9150509250929050565b6001600160801b038116610512565b67ffffffffffffffff8116610512565b610512816104b4565b60c081016105aa8289610574565b6105b76020830188610574565b6105c46040830187610574565b6105d16060830186610574565b6105de6080830185610583565b6105eb60a0830184610593565b979650505050505050565b805160c08301906106078482610574565b50602082015161061a6020850182610574565b50604082015161062d6040850182610574565b5060608201516106406060850182610574565b5060808201516106536080850182610583565b5060a082015161066660a0850182610593565b50505050565b60c0810161036982846105f6565b60006020828403121561068f5761068f600080fd5b6000610508848461052c565b602081016103698284610593565b634e487b7160e01b600052604160045260246000fd5b601f19601f830116810181811067ffffffffffffffff821117156106e5576106e56106a9565b6040525050565b60006106f760405190565b905061070382826106bf565b919050565b600067ffffffffffffffff821115610722576107226106a9565b5060209081020190565b6001600160801b0381166104ce565b80516103698161072c565b67ffffffffffffffff81166104ce565b805161036981610746565b8051610369816104c5565b600060c0828403121561078157610781600080fd5b61078b60c06106ec565b90506000610799848461073b565b82525060206107aa8484830161073b565b60208301525060406107be8482850161073b565b60408301525060606107d28482850161073b565b60608301525060806107e684828501610756565b60808301525060a06107fa84828501610761565b60a08301525092915050565b600061081961081484610708565b6106ec565b83815290506020810160c0840283018581111561083857610838600080fd5b835b8181101561085e578061084d888261076c565b84525060209092019160c00161083a565b5050509392505050565b600082601f83011261087c5761087c600080fd5b8151610508848260208601610806565b6000602082840312156108a1576108a1600080fd5b815167ffffffffffffffff8111156108bb576108bb600080fd5b61050884828501610868565b634e487b7160e01b600052601160045260246000fd5b6000828210156108ef576108ef6108c7565b500390565b634e487b7160e01b600052603260045260246000fd5b60208082528181019081527f6765744c6f636b496e666f3a204c6f636b4964206f7574206f6620696e646578604083015260608201610369565b805161036981610526565b60006020828403121561096457610964600080fd5b60006105088484610944565b60008219821115610983576109836108c7565b500190565b6000600019820361099b5761099b6108c7565b506001019056fea26469706673582212205639c91b3122e137e63069d55e60ac4696720107fa4acd07b6b3262c3443284864736f6c634300080d0033",
  "linkReferences": {},
  "deployedLinkReferences": {}
}