{
  "contractName": "StakingGetters",
  "abi": [
    {
      "anonymous": false,
      "inputs": [
        {
          "indexed": true,
          "internalType": "address",
          "name": "account",
          "type": "address"
        },
        {
          "indexed": false,
          "internalType": "uint256",
          "name": "amount",
          "type": "uint256"
        },
        {
          "indexed": true,
          "internalType": "uint256",
          "name": "lockId",
          "type": "uint256"
        }
      ],
      "name": "PartialUnstaked",
      "type": "event"
    },
    {
      "anonymous": false,
      "inputs": [
        {
          "indexed": true,
          "internalType": "uint256",
          "name": "streamId",
          "type": "uint256"
        },
        {
          "indexed": true,
          "internalType": "address",
          "name": "account",
          "type": "address"
        },
        {
          "indexed": false,
          "internalType": "uint256",
          "name": "pendings",
          "type": "uint256"
        }
      ],
      "name": "Pending",
      "type": "event"
    },
    {
      "anonymous": false,
      "inputs": [
        {
          "indexed": true,
          "internalType": "uint256",
          "name": "streamId",
          "type": "uint256"
        },
        {
          "indexed": true,
          "internalType": "address",
          "name": "user",
          "type": "address"
        },
        {
          "indexed": false,
          "internalType": "uint256",
          "name": "pendingAmount",
          "type": "uint256"
        }
      ],
      "name": "Released",
      "type": "event"
    },
    {
      "anonymous": false,
      "inputs": [
        {
          "indexed": true,
          "internalType": "address",
          "name": "account",
          "type": "address"
        },
        {
          "indexed": false,
          "internalType": "uint256",
          "name": "amount",
          "type": "uint256"
        },
        {
          "indexed": false,
          "internalType": "uint256",
          "name": "streamShares",
          "type": "uint256"
        },
        {
          "indexed": false,
          "internalType": "uint256",
          "name": "nVoteToken",
          "type": "uint256"
        },
        {
          "indexed": true,
          "internalType": "uint256",
          "name": "lockId",
          "type": "uint256"
        },
        {
          "indexed": false,
          "internalType": "uint256",
          "name": "end",
          "type": "uint256"
        }
      ],
      "name": "Staked",
      "type": "event"
    },
    {
      "anonymous": false,
      "inputs": [
        {
          "indexed": true,
          "internalType": "uint256",
          "name": "streamId",
          "type": "uint256"
        },
        {
          "indexed": true,
          "internalType": "address",
          "name": "owner",
          "type": "address"
        },
        {
          "indexed": true,
          "internalType": "address",
          "name": "token",
          "type": "address"
        },
        {
          "indexed": false,
          "internalType": "uint256",
          "name": "tokenAmount",
          "type": "uint256"
        }
      ],
      "name": "StreamCreated",
      "type": "event"
    },
    {
      "anonymous": false,
      "inputs": [
        {
          "indexed": true,
          "internalType": "uint256",
          "name": "streamId",
          "type": "uint256"
        },
        {
          "indexed": true,
          "internalType": "address",
          "name": "owner",
          "type": "address"
        },
        {
          "indexed": true,
          "internalType": "address",
          "name": "token",
          "type": "address"
        }
      ],
      "name": "StreamProposalCancelled",
      "type": "event"
    },
    {
      "anonymous": false,
      "inputs": [
        {
          "indexed": true,
          "internalType": "uint256",
          "name": "streamId",
          "type": "uint256"
        },
        {
          "indexed": true,
          "internalType": "address",
          "name": "streamOwner",
          "type": "address"
        },
        {
          "indexed": true,
          "internalType": "address",
          "name": "rewardToken",
          "type": "address"
        },
        {
          "indexed": false,
          "internalType": "uint256",
          "name": "maxDepositAmount",
          "type": "uint256"
        }
      ],
      "name": "StreamProposed",
      "type": "event"
    },
    {
      "anonymous": false,
      "inputs": [
        {
          "indexed": true,
          "internalType": "uint256",
          "name": "streamId",
          "type": "uint256"
        },
        {
          "indexed": true,
          "internalType": "address",
          "name": "owner",
          "type": "address"
        },
        {
          "indexed": true,
          "internalType": "address",
          "name": "token",
          "type": "address"
        }
      ],
      "name": "StreamRemoved",
      "type": "event"
    },
    {
      "anonymous": false,
      "inputs": [
        {
          "indexed": true,
          "internalType": "address",
          "name": "account",
          "type": "address"
        },
        {
          "indexed": false,
          "internalType": "uint256",
          "name": "amount",
          "type": "uint256"
        },
        {
          "indexed": true,
          "internalType": "uint256",
          "name": "lockId",
          "type": "uint256"
        }
      ],
      "name": "Unstaked",
      "type": "event"
    },
    {
      "inputs": [],
      "name": "mainToken",
      "outputs": [
        {
          "internalType": "address",
          "name": "",
          "type": "address"
        }
      ],
      "stateMutability": "view",
      "type": "function"
    },
    {
      "inputs": [],
      "name": "maxLockPeriod",
      "outputs": [
        {
          "internalType": "uint256",
          "name": "",
          "type": "uint256"
        }
      ],
      "stateMutability": "view",
      "type": "function"
    },
    {
      "inputs": [],
      "name": "maxLockPositions",
      "outputs": [
        {
          "internalType": "uint256",
          "name": "",
          "type": "uint256"
        }
      ],
      "stateMutability": "view",
      "type": "function"
    },
    {
      "inputs": [
        {
          "internalType": "address",
          "name": "",
          "type": "address"
        },
        {
          "internalType": "uint256",
          "name": "",
          "type": "uint256"
        }
      ],
      "name": "prohibitedEarlyWithdraw",
      "outputs": [
        {
          "internalType": "bool",
          "name": "",
          "type": "bool"
        }
      ],
      "stateMutability": "view",
      "type": "function"
    },
    {
      "inputs": [],
      "name": "rewardsCalculator",
      "outputs": [
        {
          "internalType": "address",
          "name": "",
          "type": "address"
        }
      ],
      "stateMutability": "view",
      "type": "function"
    },
    {
      "inputs": [],
      "name": "totalAmountOfStakedToken",
      "outputs": [
        {
          "internalType": "uint256",
          "name": "",
          "type": "uint256"
        }
      ],
      "stateMutability": "view",
      "type": "function"
    },
    {
      "inputs": [],
      "name": "totalAmountOfVoteToken",
      "outputs": [
        {
          "internalType": "uint256",
          "name": "",
          "type": "uint256"
        }
      ],
      "stateMutability": "view",
      "type": "function"
    },
    {
      "inputs": [],
      "name": "totalPenaltyBalance",
      "outputs": [
        {
          "internalType": "uint256",
          "name": "",
          "type": "uint256"
        }
      ],
      "stateMutability": "view",
      "type": "function"
    },
    {
      "inputs": [],
      "name": "totalStreamShares",
      "outputs": [
        {
          "internalType": "uint256",
          "name": "",
          "type": "uint256"
        }
      ],
      "stateMutability": "view",
      "type": "function"
    },
    {
      "inputs": [
        {
          "internalType": "address",
          "name": "",
          "type": "address"
        }
      ],
      "name": "users",
      "outputs": [
        {
          "internalType": "uint128",
          "name": "voteTokenBalance",
          "type": "uint128"
        }
      ],
      "stateMutability": "view",
      "type": "function"
    },
    {
      "inputs": [],
      "name": "vault",
      "outputs": [
        {
          "internalType": "address",
          "name": "",
          "type": "address"
        }
      ],
      "stateMutability": "view",
      "type": "function"
    },
    {
      "inputs": [],
      "name": "voteToken",
      "outputs": [
        {
          "internalType": "address",
          "name": "",
          "type": "address"
        }
      ],
      "stateMutability": "view",
      "type": "function"
    },
    {
      "inputs": [
        {
          "internalType": "address",
          "name": "account",
          "type": "address"
        },
        {
          "internalType": "uint256",
          "name": "streamId",
          "type": "uint256"
        }
      ],
      "name": "getUsersPendingRewards",
      "outputs": [
        {
          "internalType": "uint256",
          "name": "",
          "type": "uint256"
        }
      ],
      "stateMutability": "view",
      "type": "function"
    },
    {
      "inputs": [
        {
          "internalType": "address",
          "name": "account",
          "type": "address"
        }
      ],
      "name": "getAllLocks",
      "outputs": [
        {
          "components": [
            {
              "internalType": "uint128",
              "name": "amountOfToken",
              "type": "uint128"
            },
            {
              "internalType": "uint128",
              "name": "amountOfVoteToken",
              "type": "uint128"
            },
            {
              "internalType": "uint128",
              "name": "positionStreamShares",
              "type": "uint128"
            },
            {
              "internalType": "uint64",
              "name": "end",
              "type": "uint64"
            },
            {
              "internalType": "address",
              "name": "owner",
              "type": "address"
            }
          ],
          "internalType": "struct LockedBalance[]",
          "name": "",
          "type": "tuple[]"
        }
      ],
      "stateMutability": "view",
      "type": "function"
    },
    {
      "inputs": [
        {
          "internalType": "uint256",
          "name": "streamId",
          "type": "uint256"
        },
        {
          "internalType": "address",
          "name": "account",
          "type": "address"
        },
        {
          "internalType": "uint256",
          "name": "lockId",
          "type": "uint256"
        }
      ],
      "name": "getStreamClaimableAmountPerLock",
      "outputs": [
        {
          "internalType": "uint256",
          "name": "",
          "type": "uint256"
        }
      ],
      "stateMutability": "view",
      "type": "function"
    },
    {
      "inputs": [
        {
          "internalType": "uint256",
          "name": "streamId",
          "type": "uint256"
        }
      ],
      "name": "getStream",
      "outputs": [
        {
          "internalType": "address",
          "name": "streamOwner",
          "type": "address"
        },
        {
          "internalType": "address",
          "name": "rewardToken",
          "type": "address"
        },
        {
          "internalType": "uint256",
          "name": "rewardDepositAmount",
          "type": "uint256"
        },
        {
          "internalType": "uint256",
          "name": "rewardClaimedAmount",
          "type": "uint256"
        },
        {
          "internalType": "uint256",
          "name": "maxDepositAmount",
          "type": "uint256"
        },
        {
          "internalType": "uint256",
          "name": "rps",
          "type": "uint256"
        },
        {
          "internalType": "uint256",
          "name": "tau",
          "type": "uint256"
        },
        {
          "internalType": "enum StreamStatus",
          "name": "status",
          "type": "uint8"
        }
      ],
      "stateMutability": "view",
      "type": "function"
    },
    {
      "inputs": [
        {
          "internalType": "uint256",
          "name": "streamId",
          "type": "uint256"
        }
      ],
      "name": "getStreamSchedule",
      "outputs": [
        {
          "internalType": "uint256[]",
          "name": "scheduleTimes",
          "type": "uint256[]"
        },
        {
          "internalType": "uint256[]",
          "name": "scheduleRewards",
          "type": "uint256[]"
        }
      ],
      "stateMutability": "view",
      "type": "function"
    },
    {
      "inputs": [],
      "name": "getStreamsCount",
      "outputs": [
        {
          "internalType": "uint256",
          "name": "",
          "type": "uint256"
        }
      ],
      "stateMutability": "view",
      "type": "function"
    },
    {
      "inputs": [
        {
          "internalType": "uint256",
          "name": "streamId",
          "type": "uint256"
        }
      ],
      "name": "getLatestRewardsPerShare",
      "outputs": [
        {
          "internalType": "uint256",
          "name": "",
          "type": "uint256"
        }
      ],
      "stateMutability": "view",
      "type": "function"
    },
    {
      "inputs": [],
      "name": "getWeight",
      "outputs": [
        {
          "components": [
            {
              "internalType": "uint32",
              "name": "maxWeightShares",
              "type": "uint32"
            },
            {
              "internalType": "uint32",
              "name": "minWeightShares",
              "type": "uint32"
            },
            {
              "internalType": "uint32",
              "name": "maxWeightPenalty",
              "type": "uint32"
            },
            {
              "internalType": "uint32",
              "name": "minWeightPenalty",
              "type": "uint32"
            },
            {
              "internalType": "uint32",
              "name": "penaltyWeightMultiplier",
              "type": "uint32"
            }
          ],
          "internalType": "struct Weight",
          "name": "",
          "type": "tuple"
        }
      ],
      "stateMutability": "view",
      "type": "function"
    }
  ],
  "bytecode": "0x608060405234801561001057600080fd5b50610f32806100206000396000f3fe608060405234801561001057600080fd5b506004361061012c5760003560e01c806391132812116100ad578063bd5cf8ff11610071578063bd5cf8ff14610377578063ddcf3e2914610380578063e335e79a14610393578063f60403731461039b578063fbfa77cf146103a457600080fd5b8063911328121461023e578063a87430ba14610278578063a8d85f70146102ae578063a9b4b780146102ce578063b0abc9811461036e57600080fd5b80636d878d10116100f45780636d878d101461019f5780636db8e53d146101b257806370bc770c146101bb5780637c9b8f0c146101dc578063894e9a0d1461021757600080fd5b8063160d66ae14610131578063277d96b71461015a5780633a3f15111461017a5780633fc15f15146101835780634b1d29b414610196575b600080fd5b600b54610144906001600160a01b031681565b60405161015191906108df565b60405180910390f35b61016d610168366004610908565b6103b7565b6040516101519190610937565b61016d60015481565b600a54610144906001600160a01b031681565b61016d60005481565b600d54610144906001600160a01b031681565b61016d60055481565b6101ce6101c9366004610908565b6103c8565b6040516101519291906109a2565b61020a6101ea3660046109db565b600260209081526000928352604080842090915290825290205460ff1681565b6040516101519190610a20565b61022a610225366004610908565b6104c6565b604051610151989796959493929190610a77565b61016d61024c3660046109db565b6001600160a01b03919091166000908152600f6020908152604080832093835260019093019052205490565b6102a1610286366004610aee565b600f602052600090815260409020546001600160801b031681565b6040516101519190610b1e565b6102c16102bc366004610aee565b61056e565b6040516101519190610bf1565b6103616040805160a081018252600080825260208201819052918101829052606081018290526080810191909152506040805160a081018252600e5463ffffffff80821683526401000000008204811660208401526801000000000000000082048116938301939093526c01000000000000000000000000810483166060830152600160801b9004909116608082015290565b6040516101519190610c6b565b61016d60045481565b61016d60065481565b61016d61038e366004610c79565b610632565b60105461016d565b61016d60075481565b600c54610144906001600160a01b031681565b60006103c282610799565b92915050565b606080601083815481106103de576103de610cc9565b90600052602060002090600c02016009016000016010848154811061040557610405610cc9565b90600052602060002090600c02016009016001018180548060200260200160405190810160405280929190818152602001828054801561046457602002820191906000526020600020905b815481526020019060010190808311610450575b50505050509150808054806020026020016040519081016040528092919081815260200182805480156104b657602002820191906000526020600020905b8154815260200190600101908083116104a2575b5050505050905091509150915091565b600080600080600080600080600060108a815481106104e7576104e7610cc9565b90600052602060002090600c020190508060000160009054906101000a90046001600160a01b03168160020160009054906101000a90046001600160a01b03168260030154836004015484600501548560080154866007015487600b0160009054906101000a900460ff169850985098509850985098509850985050919395975091939597565b6001600160a01b0381166000908152601160209081526040808320805482518185028101850190935280835260609492939192909184015b828210156106275760008481526020908190206040805160a0810182526003860290920180546001600160801b038082168552600160801b91829004811685870152600180840154918216948601949094520467ffffffffffffffff166060840152600201546001600160a01b0316608083015290835290920191016105a6565b505050509050919050565b600060026010858154811061064957610649610cc9565b60009182526020909120600b600c90920201015460ff16600281111561067157610671610a2e565b146106975760405162461bcd60e51b815260040161068e90610d16565b60405180910390fd5b6001600160a01b0383166000908152601160205260409020548211156106cf5760405162461bcd60e51b815260040161068e90610d46565b60006106da85610799565b6001600160a01b0385166000908152600f60209081526040808320601190925282209293509161070b600187610d6c565b8154811061071b5761071b610cc9565b600091825260208083208884526003868101835260408086208d87529093529190932054910290910160018101549092506001600160801b031674446c3b15f9926687d2c40534fdb564000000000000816107768488610d6c565b6107809190610d83565b61078a9190610db8565b955050505050505b9392505050565b60006005546000036107bd5760405162461bcd60e51b815260040161068e90610df3565b60055474446c3b15f9926687d2c40534fdb5640000000000006107e284600354610825565b6107ec9190610d83565b6107f69190610db8565b6010838154811061080957610809610cc9565b90600052602060002090600c0201600801546103c29190610e03565b600d54601080546000926001600160a01b0316916351e1551a918690811061084f5761084f610cc9565b90600052602060002090600c0201600901846040518363ffffffff1660e01b815260040161087e929190610eb0565b602060405180830381865afa15801561089b573d6000803e3d6000fd5b505050506040513d601f19601f820116820180604052508101906107929190610edb565b60006001600160a01b0382166103c2565b6108d9816108bf565b82525050565b602081016103c282846108d0565b805b81146108fa57600080fd5b50565b80356103c2816108ed565b60006020828403121561091d5761091d600080fd5b600061092984846108fd565b949350505050565b806108d9565b602081016103c28284610931565b60006109518383610931565b505060200190565b6000610963825190565b80845260209384019383018060005b838110156109975781516109868882610945565b975060208301925050600101610972565b509495945050505050565b604080825281016109b38185610959565b905081810360208301526109298184610959565b6108ef816108bf565b80356103c2816109c7565b600080604083850312156109f1576109f1600080fd5b60006109fd85856109d0565b9250506020610a0e858286016108fd565b9150509250929050565b8015156108d9565b602081016103c28284610a18565b634e487b7160e01b600052602160045260246000fd5b600381106108fa576108fa610a2e565b80610a5e81610a44565b919050565b60006103c282610a54565b6108d981610a63565b6101008101610a86828b6108d0565b610a93602083018a6108d0565b610aa06040830189610931565b610aad6060830188610931565b610aba6080830187610931565b610ac760a0830186610931565b610ad460c0830185610931565b610ae160e0830184610a6e565b9998505050505050505050565b600060208284031215610b0357610b03600080fd5b600061092984846109d0565b6001600160801b0381166108d9565b602081016103c28284610b0f565b67ffffffffffffffff81166108d9565b805160a0830190610b4d8482610b0f565b506020820151610b606020850182610b0f565b506040820151610b736040850182610b0f565b506060820151610b866060850182610b2c565b506080820151610b9960808501826108d0565b50505050565b6000610bab8383610b3c565b505060a00190565b6000610bbd825190565b80845260209384019383018060005b83811015610997578151610be08882610b9f565b975060208301925050600101610bcc565b602080825281016107928184610bb3565b63ffffffff81166108d9565b805160a0830190610c1f8482610c02565b506020820151610c326020850182610c02565b506040820151610c456040850182610c02565b506060820151610c586060850182610c02565b506080820151610b996080850182610c02565b60a081016103c28284610c0e565b600080600060608486031215610c9157610c91600080fd5b6000610c9d86866108fd565b9350506020610cae868287016109d0565b9250506040610cbf868287016108fd565b9150509250925092565b634e487b7160e01b600052603260045260246000fd5b601181526000602082017f73747265616d206e6f7420616374697665000000000000000000000000000000815291505b5060200190565b602080825281016103c281610cdf565b60098152600060208201680c4c2c840d2dcc8caf60bb1b81529150610d0f565b602080825281016103c281610d26565b634e487b7160e01b600052601160045260246000fd5b600082821015610d7e57610d7e610d56565b500390565b6000816000190483118215151615610d9d57610d9d610d56565b500290565b634e487b7160e01b600052601260045260246000fd5b600082610dc757610dc7610da2565b500490565b601081526000602082016f4e6f2053747265616d2053686172657360801b81529150610d0f565b602080825281016103c281610dcc565b60008219821115610e1657610e16610d56565b500190565b6000816103c2565b60006103c28254610e1b565b6000610e39825490565b808452600083815260208082209501949081905b8381101561099757610e5e82610e23565b610e688882610945565b97505060019182019101610e4d565b604080835260009083018183610e8d8382610e2f565b925050600184018583036020870152610ea68382610e2f565b9695505050505050565b60408082528101610ec18185610e77565b90506107926020830184610931565b80516103c2816108ed565b600060208284031215610ef057610ef0600080fd5b60006109298484610ed056fea2646970667358221220e634755dc8ef21e1b5d9076a27cb9eb06550ca6746b8bd58e4499c2b862f0b7464736f6c634300080d0033",
  "immutableReferences": {},
  "source": "// SPDX-License-Identifier: AGPL 3.0\n// Original Copyright Aurora\n// Copyright Fathom 2022\n\npragma solidity 0.8.13;\n\nimport \"../StakingStorage.sol\";\nimport \"../interfaces/IStakingGetter.sol\";\nimport \"./StakingInternals.sol\";\n\ncontract StakingGetters is StakingStorage, IStakingGetter, StakingInternals {\n    function getUsersPendingRewards(address account, uint256 streamId) external view override returns (uint256) {\n        return users[account].pendings[streamId];\n    }\n\n    function getAllLocks(address account) external view override returns (LockedBalance[] memory) {\n        return locks[account];\n    }\n\n    function getStreamClaimableAmountPerLock(uint256 streamId, address account, uint256 lockId) external view override returns (uint256) {\n        require(streams[streamId].status == StreamStatus.ACTIVE, \"stream not active\");\n        require(lockId <= locks[account].length, \"bad index\");\n        uint256 latestRps = _getLatestRewardsPerShare(streamId);\n        User storage userAccount = users[account];\n        LockedBalance storage lock = locks[account][lockId - 1];\n        uint256 userRpsPerLock = userAccount.rpsDuringLastClaimForLock[lockId][streamId];\n        uint256 userSharesOfLock = lock.positionStreamShares;\n        return ((latestRps - userRpsPerLock) * userSharesOfLock) / RPS_MULTIPLIER;\n    }\n\n    function getStream(\n        uint256 streamId\n    )\n        external\n        view\n        override\n        returns (\n            address streamOwner,\n            address rewardToken,\n            uint256 rewardDepositAmount,\n            uint256 rewardClaimedAmount,\n            uint256 maxDepositAmount,\n            uint256 rps,\n            uint256 tau,\n            StreamStatus status\n        )\n    {\n        Stream storage stream = streams[streamId];\n        return (\n            stream.owner,\n            stream.rewardToken,\n            stream.rewardDepositAmount,\n            stream.rewardClaimedAmount,\n            stream.maxDepositAmount,\n            stream.rps,\n            stream.tau,\n            stream.status\n        );\n    }\n\n    function getStreamSchedule(uint256 streamId) external view override returns (uint256[] memory scheduleTimes, uint256[] memory scheduleRewards) {\n        return (streams[streamId].schedule.time, streams[streamId].schedule.reward);\n    }\n\n    function getStreamsCount() external view override returns (uint256) {\n        return streams.length;\n    }\n\n    function getLatestRewardsPerShare(uint256 streamId) external view override returns (uint256) {\n        return _getLatestRewardsPerShare(streamId);\n    }\n\n    function getWeight() external view override returns (Weight memory) {\n        return weight;\n    }\n}\n",
  "sourcePath": "/Users/zachshort/Fathom/fathom-dao-smart-contracts/contracts/dao/staking/packages/StakingGetters.sol",
  "compiler": {
    "name": "solc",
    "version": "0.8.13+commit.abaa5c0e.Darwin.appleclang"
  },
  "schemaVersion": "3.4.10",
  "updatedAt": "2022-12-06T23:42:15.975Z",
  "devdoc": {
    "kind": "dev",
    "methods": {},
    "version": 1
  },
  "userdoc": {
    "kind": "user",
    "methods": {
      "maxLockPositions()": {
        "notice": "Checks if the staking is initialized"
      },
      "totalAmountOfStakedToken()": {
        "notice": "The below three are used for autocompounding feature and weighted shares"
      },
      "totalAmountOfVoteToken()": {
        "notice": "voteToken -> vote Token"
      }
    },
    "version": 1
  }
}