{
    "contractName": "StakingPackage",
    "abi": [
        {
            "anonymous": false,
            "inputs": [
                {
                    "indexed": false,
                    "internalType": "uint8",
                    "name": "version",
                    "type": "uint8"
                }
            ],
            "name": "Initialized",
            "type": "event"
        },
        {
            "anonymous": false,
            "inputs": [
                {
                    "indexed": true,
                    "internalType": "address",
                    "name": "account",
                    "type": "address"
                },
                {
                    "indexed": true,
                    "internalType": "uint256",
                    "name": "amount",
                    "type": "uint256"
                },
                {
                    "indexed": true,
                    "internalType": "uint256",
                    "name": "lockId",
                    "type": "uint256"
                }
            ],
            "name": "PartialUnstaked",
            "type": "event"
        },
        {
            "anonymous": false,
            "inputs": [
                {
                    "indexed": true,
                    "internalType": "uint256",
                    "name": "streamId",
                    "type": "uint256"
                },
                {
                    "indexed": true,
                    "internalType": "address",
                    "name": "account",
                    "type": "address"
                },
                {
                    "indexed": true,
                    "internalType": "uint256",
                    "name": "pendings",
                    "type": "uint256"
                }
            ],
            "name": "Pending",
            "type": "event"
        },
        {
            "anonymous": false,
            "inputs": [
                {
                    "indexed": true,
                    "internalType": "uint256",
                    "name": "streamId",
                    "type": "uint256"
                },
                {
                    "indexed": true,
                    "internalType": "address",
                    "name": "user",
                    "type": "address"
                },
                {
                    "indexed": false,
                    "internalType": "uint256",
                    "name": "pendingAmount",
                    "type": "uint256"
                }
            ],
            "name": "Released",
            "type": "event"
        },
        {
            "anonymous": false,
            "inputs": [
                {
                    "indexed": true,
                    "internalType": "bytes32",
                    "name": "role",
                    "type": "bytes32"
                },
                {
                    "indexed": true,
                    "internalType": "bytes32",
                    "name": "previousAdminRole",
                    "type": "bytes32"
                },
                {
                    "indexed": true,
                    "internalType": "bytes32",
                    "name": "newAdminRole",
                    "type": "bytes32"
                }
            ],
            "name": "RoleAdminChanged",
            "type": "event"
        },
        {
            "anonymous": false,
            "inputs": [
                {
                    "indexed": true,
                    "internalType": "bytes32",
                    "name": "role",
                    "type": "bytes32"
                },
                {
                    "indexed": true,
                    "internalType": "address",
                    "name": "account",
                    "type": "address"
                },
                {
                    "indexed": true,
                    "internalType": "address",
                    "name": "sender",
                    "type": "address"
                }
            ],
            "name": "RoleGranted",
            "type": "event"
        },
        {
            "anonymous": false,
            "inputs": [
                {
                    "indexed": true,
                    "internalType": "bytes32",
                    "name": "role",
                    "type": "bytes32"
                },
                {
                    "indexed": true,
                    "internalType": "address",
                    "name": "account",
                    "type": "address"
                },
                {
                    "indexed": true,
                    "internalType": "address",
                    "name": "sender",
                    "type": "address"
                }
            ],
            "name": "RoleRevoked",
            "type": "event"
        },
        {
            "anonymous": false,
            "inputs": [
                {
                    "indexed": false,
                    "internalType": "address",
                    "name": "account",
                    "type": "address"
                },
                {
                    "indexed": false,
                    "internalType": "uint256",
                    "name": "amount",
                    "type": "uint256"
                },
                {
                    "indexed": true,
                    "internalType": "uint256",
                    "name": "streamShares",
                    "type": "uint256"
                },
                {
                    "indexed": true,
                    "internalType": "uint256",
                    "name": "nVoteToken",
                    "type": "uint256"
                },
                {
                    "indexed": true,
                    "internalType": "uint256",
                    "name": "lockId",
                    "type": "uint256"
                },
                {
                    "indexed": false,
                    "internalType": "uint256",
                    "name": "end",
                    "type": "uint256"
                }
            ],
            "name": "Staked",
            "type": "event"
        },
        {
            "anonymous": false,
            "inputs": [
                {
                    "indexed": true,
                    "internalType": "uint256",
                    "name": "streamId",
                    "type": "uint256"
                },
                {
                    "indexed": true,
                    "internalType": "address",
                    "name": "owner",
                    "type": "address"
                },
                {
                    "indexed": true,
                    "internalType": "address",
                    "name": "token",
                    "type": "address"
                },
                {
                    "indexed": false,
                    "internalType": "uint256",
                    "name": "tokenAmount",
                    "type": "uint256"
                }
            ],
            "name": "StreamCreated",
            "type": "event"
        },
        {
            "anonymous": false,
            "inputs": [
                {
                    "indexed": true,
                    "internalType": "uint256",
                    "name": "streamId",
                    "type": "uint256"
                },
                {
                    "indexed": true,
                    "internalType": "address",
                    "name": "owner",
                    "type": "address"
                },
                {
                    "indexed": true,
                    "internalType": "address",
                    "name": "token",
                    "type": "address"
                }
            ],
            "name": "StreamProposalCancelled",
            "type": "event"
        },
        {
            "anonymous": false,
            "inputs": [
                {
                    "indexed": true,
                    "internalType": "uint256",
                    "name": "streamId",
                    "type": "uint256"
                },
                {
                    "indexed": true,
                    "internalType": "address",
                    "name": "streamOwner",
                    "type": "address"
                },
                {
                    "indexed": true,
                    "internalType": "address",
                    "name": "rewardToken",
                    "type": "address"
                },
                {
                    "indexed": false,
                    "internalType": "uint256",
                    "name": "maxDepositAmount",
                    "type": "uint256"
                }
            ],
            "name": "StreamProposed",
            "type": "event"
        },
        {
            "anonymous": false,
            "inputs": [
                {
                    "indexed": true,
                    "internalType": "uint256",
                    "name": "streamId",
                    "type": "uint256"
                },
                {
                    "indexed": true,
                    "internalType": "address",
                    "name": "owner",
                    "type": "address"
                },
                {
                    "indexed": true,
                    "internalType": "address",
                    "name": "token",
                    "type": "address"
                }
            ],
            "name": "StreamRemoved",
            "type": "event"
        },
        {
            "anonymous": false,
            "inputs": [
                {
                    "indexed": true,
                    "internalType": "address",
                    "name": "account",
                    "type": "address"
                },
                {
                    "indexed": true,
                    "internalType": "uint256",
                    "name": "amount",
                    "type": "uint256"
                },
                {
                    "indexed": true,
                    "internalType": "uint256",
                    "name": "lockId",
                    "type": "uint256"
                }
            ],
            "name": "Unstaked",
            "type": "event"
        },
        {
            "inputs": [],
            "name": "DEFAULT_ADMIN_ROLE",
            "outputs": [
                {
                    "internalType": "bytes32",
                    "name": "",
                    "type": "bytes32"
                }
            ],
            "stateMutability": "view",
            "type": "function"
        },
        {
            "inputs": [],
            "name": "PAUSE_ROLE",
            "outputs": [
                {
                    "internalType": "bytes32",
                    "name": "",
                    "type": "bytes32"
                }
            ],
            "stateMutability": "view",
            "type": "function"
        },
        {
            "inputs": [],
            "name": "STREAM_MANAGER_ROLE",
            "outputs": [
                {
                    "internalType": "bytes32",
                    "name": "",
                    "type": "bytes32"
                }
            ],
            "stateMutability": "view",
            "type": "function"
        },
        {
            "inputs": [],
            "name": "TREASURY_ROLE",
            "outputs": [
                {
                    "internalType": "bytes32",
                    "name": "",
                    "type": "bytes32"
                }
            ],
            "stateMutability": "view",
            "type": "function"
        },
        {
            "inputs": [
                {
                    "internalType": "uint256",
                    "name": "flags",
                    "type": "uint256"
                }
            ],
            "name": "adminPause",
            "outputs": [],
            "stateMutability": "nonpayable",
            "type": "function"
        },
        {
            "inputs": [
                {
                    "internalType": "uint256",
                    "name": "streamId",
                    "type": "uint256"
                }
            ],
            "name": "cancelStreamProposal",
            "outputs": [],
            "stateMutability": "nonpayable",
            "type": "function"
        },
        {
            "inputs": [
                {
                    "internalType": "uint256",
                    "name": "streamId",
                    "type": "uint256"
                }
            ],
            "name": "claimAllLockRewardsForStream",
            "outputs": [],
            "stateMutability": "nonpayable",
            "type": "function"
        },
        {
            "inputs": [
                {
                    "internalType": "uint256",
                    "name": "lockId",
                    "type": "uint256"
                }
            ],
            "name": "claimAllStreamRewardsForLock",
            "outputs": [],
            "stateMutability": "nonpayable",
            "type": "function"
        },
        {
            "inputs": [
                {
                    "internalType": "uint256",
                    "name": "streamId",
                    "type": "uint256"
                },
                {
                    "internalType": "uint256",
                    "name": "lockId",
                    "type": "uint256"
                }
            ],
            "name": "claimRewards",
            "outputs": [],
            "stateMutability": "nonpayable",
            "type": "function"
        },
        {
            "inputs": [
                {
                    "internalType": "uint256",
                    "name": "amount",
                    "type": "uint256"
                },
                {
                    "internalType": "uint256",
                    "name": "lockPeriod",
                    "type": "uint256"
                },
                {
                    "internalType": "address",
                    "name": "account",
                    "type": "address"
                }
            ],
            "name": "createLock",
            "outputs": [],
            "stateMutability": "nonpayable",
            "type": "function"
        },
        {
            "inputs": [
                {
                    "internalType": "uint256",
                    "name": "amount",
                    "type": "uint256"
                },
                {
                    "internalType": "uint256",
                    "name": "lockPeriod",
                    "type": "uint256"
                },
                {
                    "internalType": "address",
                    "name": "account",
                    "type": "address"
                }
            ],
            "name": "createLockWithoutEarlyWithdraw",
            "outputs": [],
            "stateMutability": "nonpayable",
            "type": "function"
        },
        {
            "inputs": [
                {
                    "internalType": "uint256",
                    "name": "streamId",
                    "type": "uint256"
                },
                {
                    "internalType": "uint256",
                    "name": "rewardTokenAmount",
                    "type": "uint256"
                }
            ],
            "name": "createStream",
            "outputs": [],
            "stateMutability": "nonpayable",
            "type": "function"
        },
        {
            "inputs": [
                {
                    "internalType": "uint256",
                    "name": "lockId",
                    "type": "uint256"
                }
            ],
            "name": "earlyUnlock",
            "outputs": [],
            "stateMutability": "nonpayable",
            "type": "function"
        },
        {
            "inputs": [
                {
                    "internalType": "address",
                    "name": "account",
                    "type": "address"
                }
            ],
            "name": "getAllLocks",
            "outputs": [
                {
                    "components": [
                        {
                            "internalType": "uint128",
                            "name": "amountOfToken",
                            "type": "uint128"
                        },
                        {
                            "internalType": "uint128",
                            "name": "amountOfVoteToken",
                            "type": "uint128"
                        },
                        {
                            "internalType": "uint128",
                            "name": "positionStreamShares",
                            "type": "uint128"
                        },
                        {
                            "internalType": "uint64",
                            "name": "end",
                            "type": "uint64"
                        },
                        {
                            "internalType": "address",
                            "name": "owner",
                            "type": "address"
                        }
                    ],
                    "internalType": "struct LockedBalance[]",
                    "name": "",
                    "type": "tuple[]"
                }
            ],
            "stateMutability": "view",
            "type": "function"
        },
        {
            "inputs": [
                {
                    "internalType": "uint256",
                    "name": "streamId",
                    "type": "uint256"
                }
            ],
            "name": "getLatestRewardsPerShare",
            "outputs": [
                {
                    "internalType": "uint256",
                    "name": "",
                    "type": "uint256"
                }
            ],
            "stateMutability": "view",
            "type": "function"
        },
        {
            "inputs": [
                {
                    "internalType": "bytes32",
                    "name": "role",
                    "type": "bytes32"
                }
            ],
            "name": "getRoleAdmin",
            "outputs": [
                {
                    "internalType": "bytes32",
                    "name": "",
                    "type": "bytes32"
                }
            ],
            "stateMutability": "view",
            "type": "function"
        },
        {
            "inputs": [
                {
                    "internalType": "uint256",
                    "name": "streamId",
                    "type": "uint256"
                }
            ],
            "name": "getStream",
            "outputs": [
                {
                    "internalType": "address",
                    "name": "streamOwner",
                    "type": "address"
                },
                {
                    "internalType": "address",
                    "name": "rewardToken",
                    "type": "address"
                },
                {
                    "internalType": "uint256",
                    "name": "rewardDepositAmount",
                    "type": "uint256"
                },
                {
                    "internalType": "uint256",
                    "name": "rewardClaimedAmount",
                    "type": "uint256"
                },
                {
                    "internalType": "uint256",
                    "name": "maxDepositAmount",
                    "type": "uint256"
                },
                {
                    "internalType": "uint256",
                    "name": "rps",
                    "type": "uint256"
                },
                {
                    "internalType": "uint256",
                    "name": "tau",
                    "type": "uint256"
                },
                {
                    "internalType": "enum StreamStatus",
                    "name": "status",
                    "type": "uint8"
                }
            ],
            "stateMutability": "view",
            "type": "function"
        },
        {
            "inputs": [
                {
                    "internalType": "uint256",
                    "name": "streamId",
                    "type": "uint256"
                },
                {
                    "internalType": "address",
                    "name": "account",
                    "type": "address"
                },
                {
                    "internalType": "uint256",
                    "name": "lockId",
                    "type": "uint256"
                }
            ],
            "name": "getStreamClaimableAmountPerLock",
            "outputs": [
                {
                    "internalType": "uint256",
                    "name": "",
                    "type": "uint256"
                }
            ],
            "stateMutability": "view",
            "type": "function"
        },
        {
            "inputs": [
                {
                    "internalType": "uint256",
                    "name": "streamId",
                    "type": "uint256"
                }
            ],
            "name": "getStreamSchedule",
            "outputs": [
                {
                    "internalType": "uint256[]",
                    "name": "scheduleTimes",
                    "type": "uint256[]"
                },
                {
                    "internalType": "uint256[]",
                    "name": "scheduleRewards",
                    "type": "uint256[]"
                }
            ],
            "stateMutability": "view",
            "type": "function"
        },
        {
            "inputs": [],
            "name": "getStreamsCount",
            "outputs": [
                {
                    "internalType": "uint256",
                    "name": "",
                    "type": "uint256"
                }
            ],
            "stateMutability": "view",
            "type": "function"
        },
        {
            "inputs": [
                {
                    "internalType": "address",
                    "name": "account",
                    "type": "address"
                },
                {
                    "internalType": "uint256",
                    "name": "streamId",
                    "type": "uint256"
                }
            ],
            "name": "getUsersPendingRewards",
            "outputs": [
                {
                    "internalType": "uint256",
                    "name": "",
                    "type": "uint256"
                }
            ],
            "stateMutability": "view",
            "type": "function"
        },
        {
            "inputs": [],
            "name": "getWeight",
            "outputs": [
                {
                    "components": [
                        {
                            "internalType": "uint32",
                            "name": "maxWeightShares",
                            "type": "uint32"
                        },
                        {
                            "internalType": "uint32",
                            "name": "minWeightShares",
                            "type": "uint32"
                        },
                        {
                            "internalType": "uint32",
                            "name": "maxWeightPenalty",
                            "type": "uint32"
                        },
                        {
                            "internalType": "uint32",
                            "name": "minWeightPenalty",
                            "type": "uint32"
                        },
                        {
                            "internalType": "uint32",
                            "name": "penaltyWeightMultiplier",
                            "type": "uint32"
                        }
                    ],
                    "internalType": "struct Weight",
                    "name": "",
                    "type": "tuple"
                }
            ],
            "stateMutability": "view",
            "type": "function"
        },
        {
            "inputs": [
                {
                    "internalType": "bytes32",
                    "name": "role",
                    "type": "bytes32"
                },
                {
                    "internalType": "address",
                    "name": "account",
                    "type": "address"
                }
            ],
            "name": "grantRole",
            "outputs": [],
            "stateMutability": "nonpayable",
            "type": "function"
        },
        {
            "inputs": [
                {
                    "internalType": "bytes32",
                    "name": "role",
                    "type": "bytes32"
                },
                {
                    "internalType": "address",
                    "name": "account",
                    "type": "address"
                }
            ],
            "name": "hasRole",
            "outputs": [
                {
                    "internalType": "bool",
                    "name": "",
                    "type": "bool"
                }
            ],
            "stateMutability": "view",
            "type": "function"
        },
        {
            "inputs": [
                {
                    "internalType": "address",
                    "name": "_admin",
                    "type": "address"
                },
                {
                    "internalType": "address",
                    "name": "_vault",
                    "type": "address"
                },
                {
                    "internalType": "address",
                    "name": "_mainToken",
                    "type": "address"
                },
                {
                    "internalType": "address",
                    "name": "_voteToken",
                    "type": "address"
                },
                {
                    "components": [
                        {
                            "internalType": "uint32",
                            "name": "maxWeightShares",
                            "type": "uint32"
                        },
                        {
                            "internalType": "uint32",
                            "name": "minWeightShares",
                            "type": "uint32"
                        },
                        {
                            "internalType": "uint32",
                            "name": "maxWeightPenalty",
                            "type": "uint32"
                        },
                        {
                            "internalType": "uint32",
                            "name": "minWeightPenalty",
                            "type": "uint32"
                        },
                        {
                            "internalType": "uint32",
                            "name": "penaltyWeightMultiplier",
                            "type": "uint32"
                        }
                    ],
                    "internalType": "struct Weight",
                    "name": "_weight",
                    "type": "tuple"
                },
                {
                    "internalType": "uint256[]",
                    "name": "scheduleTimes",
                    "type": "uint256[]"
                },
                {
                    "internalType": "uint256[]",
                    "name": "scheduleRewards",
                    "type": "uint256[]"
                },
                {
                    "internalType": "uint256",
                    "name": "tau",
                    "type": "uint256"
                },
                {
                    "components": [
                        {
                            "internalType": "uint32",
                            "name": "voteShareCoef",
                            "type": "uint32"
                        },
                        {
                            "internalType": "uint32",
                            "name": "voteLockCoef",
                            "type": "uint32"
                        }
                    ],
                    "internalType": "struct VoteCoefficient",
                    "name": "voteCoef",
                    "type": "tuple"
                },
                {
                    "internalType": "uint256",
                    "name": "_maxLocks",
                    "type": "uint256"
                },
                {
                    "internalType": "address",
                    "name": "_rewardsContract",
                    "type": "address"
                }
            ],
            "name": "initializeStaking",
            "outputs": [],
            "stateMutability": "nonpayable",
            "type": "function"
        },
        {
            "inputs": [],
            "name": "mainToken",
            "outputs": [
                {
                    "internalType": "address",
                    "name": "",
                    "type": "address"
                }
            ],
            "stateMutability": "view",
            "type": "function"
        },
        {
            "inputs": [],
            "name": "maxLockPeriod",
            "outputs": [
                {
                    "internalType": "uint256",
                    "name": "",
                    "type": "uint256"
                }
            ],
            "stateMutability": "view",
            "type": "function"
        },
        {
            "inputs": [],
            "name": "maxLockPositions",
            "outputs": [
                {
                    "internalType": "uint256",
                    "name": "",
                    "type": "uint256"
                }
            ],
            "stateMutability": "view",
            "type": "function"
        },
        {
            "inputs": [],
            "name": "paused",
            "outputs": [
                {
                    "internalType": "uint256",
                    "name": "",
                    "type": "uint256"
                }
            ],
            "stateMutability": "view",
            "type": "function"
        },
        {
            "inputs": [
                {
                    "internalType": "address",
                    "name": "",
                    "type": "address"
                },
                {
                    "internalType": "uint256",
                    "name": "",
                    "type": "uint256"
                }
            ],
            "name": "prohibitedEarlyWithdraw",
            "outputs": [
                {
                    "internalType": "bool",
                    "name": "",
                    "type": "bool"
                }
            ],
            "stateMutability": "view",
            "type": "function"
        },
        {
            "inputs": [
                {
                    "internalType": "address",
                    "name": "streamOwner",
                    "type": "address"
                },
                {
                    "internalType": "address",
                    "name": "rewardToken",
                    "type": "address"
                },
                {
                    "internalType": "uint256",
                    "name": "maxDepositAmount",
                    "type": "uint256"
                },
                {
                    "internalType": "uint256",
                    "name": "minDepositAmount",
                    "type": "uint256"
                },
                {
                    "internalType": "uint256[]",
                    "name": "scheduleTimes",
                    "type": "uint256[]"
                },
                {
                    "internalType": "uint256[]",
                    "name": "scheduleRewards",
                    "type": "uint256[]"
                },
                {
                    "internalType": "uint256",
                    "name": "tau",
                    "type": "uint256"
                }
            ],
            "name": "proposeStream",
            "outputs": [],
            "stateMutability": "nonpayable",
            "type": "function"
        },
        {
            "inputs": [
                {
                    "internalType": "uint256",
                    "name": "streamId",
                    "type": "uint256"
                },
                {
                    "internalType": "address",
                    "name": "streamFundReceiver",
                    "type": "address"
                }
            ],
            "name": "removeStream",
            "outputs": [],
            "stateMutability": "nonpayable",
            "type": "function"
        },
        {
            "inputs": [
                {
                    "internalType": "bytes32",
                    "name": "role",
                    "type": "bytes32"
                },
                {
                    "internalType": "address",
                    "name": "account",
                    "type": "address"
                }
            ],
            "name": "renounceRole",
            "outputs": [],
            "stateMutability": "nonpayable",
            "type": "function"
        },
        {
            "inputs": [
                {
                    "internalType": "bytes32",
                    "name": "role",
                    "type": "bytes32"
                },
                {
                    "internalType": "address",
                    "name": "account",
                    "type": "address"
                }
            ],
            "name": "revokeRole",
            "outputs": [],
            "stateMutability": "nonpayable",
            "type": "function"
        },
        {
            "inputs": [],
            "name": "rewardsCalculator",
            "outputs": [
                {
                    "internalType": "address",
                    "name": "",
                    "type": "address"
                }
            ],
            "stateMutability": "view",
            "type": "function"
        },
        {
            "inputs": [
                {
                    "internalType": "bytes4",
                    "name": "interfaceId",
                    "type": "bytes4"
                }
            ],
            "name": "supportsInterface",
            "outputs": [
                {
                    "internalType": "bool",
                    "name": "",
                    "type": "bool"
                }
            ],
            "stateMutability": "view",
            "type": "function"
        },
        {
            "inputs": [],
            "name": "totalAmountOfStakedToken",
            "outputs": [
                {
                    "internalType": "uint256",
                    "name": "",
                    "type": "uint256"
                }
            ],
            "stateMutability": "view",
            "type": "function"
        },
        {
            "inputs": [],
            "name": "totalAmountOfVoteToken",
            "outputs": [
                {
                    "internalType": "uint256",
                    "name": "",
                    "type": "uint256"
                }
            ],
            "stateMutability": "view",
            "type": "function"
        },
        {
            "inputs": [],
            "name": "totalPenaltyBalance",
            "outputs": [
                {
                    "internalType": "uint256",
                    "name": "",
                    "type": "uint256"
                }
            ],
            "stateMutability": "view",
            "type": "function"
        },
        {
            "inputs": [],
            "name": "totalStreamShares",
            "outputs": [
                {
                    "internalType": "uint256",
                    "name": "",
                    "type": "uint256"
                }
            ],
            "stateMutability": "view",
            "type": "function"
        },
        {
            "inputs": [
                {
                    "internalType": "uint256",
                    "name": "lockId",
                    "type": "uint256"
                }
            ],
            "name": "unlock",
            "outputs": [],
            "stateMutability": "nonpayable",
            "type": "function"
        },
        {
            "inputs": [
                {
                    "internalType": "uint256",
                    "name": "lockId",
                    "type": "uint256"
                },
                {
                    "internalType": "uint256",
                    "name": "amount",
                    "type": "uint256"
                }
            ],
            "name": "unlockPartially",
            "outputs": [],
            "stateMutability": "nonpayable",
            "type": "function"
        },
        {
            "inputs": [
                {
                    "components": [
                        {
                            "internalType": "uint32",
                            "name": "maxWeightShares",
                            "type": "uint32"
                        },
                        {
                            "internalType": "uint32",
                            "name": "minWeightShares",
                            "type": "uint32"
                        },
                        {
                            "internalType": "uint32",
                            "name": "maxWeightPenalty",
                            "type": "uint32"
                        },
                        {
                            "internalType": "uint32",
                            "name": "minWeightPenalty",
                            "type": "uint32"
                        },
                        {
                            "internalType": "uint32",
                            "name": "penaltyWeightMultiplier",
                            "type": "uint32"
                        }
                    ],
                    "internalType": "struct Weight",
                    "name": "_weight",
                    "type": "tuple"
                },
                {
                    "internalType": "address",
                    "name": "_voteToken",
                    "type": "address"
                },
                {
                    "internalType": "address",
                    "name": "_rewardsCalculator",
                    "type": "address"
                },
                {
                    "components": [
                        {
                            "internalType": "uint32",
                            "name": "voteShareCoef",
                            "type": "uint32"
                        },
                        {
                            "internalType": "uint32",
                            "name": "voteLockCoef",
                            "type": "uint32"
                        }
                    ],
                    "internalType": "struct VoteCoefficient",
                    "name": "_voteCoef",
                    "type": "tuple"
                },
                {
                    "internalType": "uint256",
                    "name": "_maxLockPeriod",
                    "type": "uint256"
                },
                {
                    "internalType": "uint256",
                    "name": "_maxLockPositions",
                    "type": "uint256"
                }
            ],
            "name": "updateConfig",
            "outputs": [],
            "stateMutability": "nonpayable",
            "type": "function"
        },
        {
            "inputs": [
                {
                    "internalType": "address",
                    "name": "_vault",
                    "type": "address"
                }
            ],
            "name": "updateVault",
            "outputs": [],
            "stateMutability": "nonpayable",
            "type": "function"
        },
        {
            "inputs": [
                {
                    "internalType": "address",
                    "name": "",
                    "type": "address"
                }
            ],
            "name": "users",
            "outputs": [
                {
                    "internalType": "uint128",
                    "name": "voteTokenBalance",
                    "type": "uint128"
                }
            ],
            "stateMutability": "view",
            "type": "function"
        },
        {
            "inputs": [],
            "name": "vault",
            "outputs": [
                {
                    "internalType": "address",
                    "name": "",
                    "type": "address"
                }
            ],
            "stateMutability": "view",
            "type": "function"
        },
        {
            "inputs": [],
            "name": "voteToken",
            "outputs": [
                {
                    "internalType": "address",
                    "name": "",
                    "type": "address"
                }
            ],
            "stateMutability": "view",
            "type": "function"
        },
        {
            "inputs": [],
            "name": "withdrawAllStreams",
            "outputs": [],
            "stateMutability": "nonpayable",
            "type": "function"
        },
        {
            "inputs": [
                {
                    "internalType": "address",
                    "name": "penaltyReceiver",
                    "type": "address"
                }
            ],
            "name": "withdrawPenalty",
            "outputs": [],
            "stateMutability": "nonpayable",
            "type": "function"
        },
        {
            "inputs": [
                {
                    "internalType": "uint256",
                    "name": "streamId",
                    "type": "uint256"
                }
            ],
            "name": "withdrawStream",
            "outputs": [],
            "stateMutability": "nonpayable",
            "type": "function"
        }
    ],
    "bytecode": "0x608060405234801561001057600080fd5b506001601255615da180620000266000396000f3fe608060405234801561001057600080fd5b50600436106103365760003560e01c806370bc770c116101b2578063a8d85f70116100f9578063d547741f116100a2578063e7563f3f1161007c578063e7563f3f1461080a578063eb6a97171461081d578063f604037314610825578063fbfa77cf1461082e57600080fd5b8063d547741f146107dc578063ddcf3e29146107ef578063e335e79a1461080257600080fd5b8063bd5cf8ff116100d3578063bd5cf8ff14610799578063cedb6668146107a2578063d11a57ec146107b557600080fd5b8063a8d85f70146106de578063a9b4b780146106fe578063b0abc9811461079057600080fd5b8063904033221161015b5780639a5311ed116101355780639a5311ed1461068d578063a217fddf146106a0578063a87430ba146106a857600080fd5b80639040332214610607578063911328121461061a57806391d148541461065457600080fd5b8063894e9a0d1161018c578063894e9a0d146105ba5780638ca6ce11146105e15780638d40bd03146105f457600080fd5b806370bc770c1461055857806372758f26146105795780637c9b8f0c1461058c57600080fd5b80633ba31abf1161028157806358b29f131161022a5780635f7461d6116102045780635f7461d6146105165780636198e339146105295780636d878d101461053c5780636db8e53d1461054f57600080fd5b806358b29f13146104e7578063594dd432146104fa5780635c975abb1461050d57600080fd5b80633fc15f151161025b5780633fc15f15146104b85780634b1d29b4146104cb57806355021b3a146104d457600080fd5b80633ba31abf1461046b5780633c4f8dd81461047e5780633ea005c81461049157600080fd5b80632f2ff15d116102e3578063382a7193116102bd578063382a719314610428578063389ed2671461043b5780633a3f15111461046257600080fd5b80632f2ff15d146103ef57806336085c511461040257806336568abe1461041557600080fd5b80632692c59f116103145780632692c59f146103b4578063277d96b7146103c95780632b6a7221146103dc57600080fd5b806301ffc9a71461033b578063160d66ae14610364578063248a9ca314610384575b600080fd5b61034e610349366004614321565b610841565b60405161035b9190614354565b60405180910390f35b600b54610377906001600160a01b031681565b60405161035b919061437c565b6103a761039236600461439b565b60009081526078602052604090206001015490565b60405161035b91906143c2565b6103c76103c236600461439b565b610878565b005b6103a76103d736600461439b565b6108fb565b6103c76103ea3660046143e4565b610906565b6103c76103fd366004614405565b6109ad565b6103c761041036600461439b565b6109d2565b6103c7610423366004614405565b610af0565b6103c761043636600461439b565b610b26565b6103a77f139c2898040ef16910dc9f44dc697df79363da767d8bc92f2e310312b816e46d81565b6103a760015481565b6103c7610479366004614405565b610be9565b6103c761048c366004614442565b610dfa565b6103a77f930802d0eadfb856cb83e01d1c4daa3c89e9c6d9f74cfbe13124decf2b33128a81565b600a54610377906001600160a01b031681565b6103a760005481565b6103c76104e2366004614599565b610e58565b6103c76104f53660046146ea565b61111f565b6103c7610508366004614814565b611563565b6103a760aa5481565b6103c761052436600461439b565b611612565b6103c761053736600461439b565b6116c0565b600d54610377906001600160a01b031681565b6103a760055481565b61056b61056636600461439b565b6117b1565b60405161035b9291906148a4565b6103c7610587366004614442565b6118af565b61034e61059a3660046148c9565b600260209081526000928352604080842090915290825290205460ff1681565b6105cd6105c836600461439b565b611957565b60405161035b98979695949392919061492f565b6103c76105ef366004614814565b6119ff565b6103c7610602366004614814565b611af7565b6103c761061536600461439b565b611d6b565b6103a76106283660046148c9565b6001600160a01b03919091166000908152600f6020908152604080832093835260019093019052205490565b61034e610662366004614405565b60009182526078602090815260408084206001600160a01b0393909316845291905290205460ff1690565b6103c761069b366004614a2c565b611e47565b6103a7600081565b6106d16106b63660046143e4565b600f602052600090815260409020546001600160801b031681565b60405161035b9190614ac8565b6106f16106ec3660046143e4565b611f3e565b60405161035b9190614b95565b6107836040805160a081018252600080825260208201819052918101829052606081018290526080810191909152506040805160a081018252600e5463ffffffff8082168352640100000000820481166020840152600160401b8204811693830193909352600160601b810483166060830152600160801b9004909116608082015290565b60405161035b9190614c0f565b6103a760045481565b6103a760065481565b6103c76107b036600461439b565b612002565b6103a77fe1dcbdb91df27212a29bc27177c840cf2f819ecf2187432e1fac86c2dd5dfca981565b6103c76107ea366004614405565b612061565b6103a76107fd366004614c1d565b612086565b6010546103a7565b6103c76108183660046143e4565b6121e4565b6103c7612288565b6103a760075481565b600c54610377906001600160a01b031681565b60006001600160e01b03198216637965db0b60e01b148061087257506301ffc9a760e01b6001600160e01b03198316145b92915050565b7f139c2898040ef16910dc9f44dc697df79363da767d8bc92f2e310312b816e46d6108a28161233e565b60aa5482811614806108d05750336000908152600080516020615d4c833981519152602052604090205460ff165b6108f55760405162461bcd60e51b81526004016108ec90614c9a565b60405180910390fd5b5060aa55565b60006108728261234b565b60018060aa5416600014806109375750336000908152600080516020615d4c833981519152602052604090205460ff165b6109535760405162461bcd60e51b81526004016108ec90614cd0565b7fe1dcbdb91df27212a29bc27177c840cf2f819ecf2187432e1fac86c2dd5dfca961097d8161233e565b60006007541161099f5760405162461bcd60e51b81526004016108ec90614d01565b6109a8836123d7565b505050565b6000828152607860205260409020600101546109c88161233e565b6109a8838361244f565b60018060aa541660001480610a035750336000908152600080516020615d4c833981519152602052604090205460ff165b610a1f5760405162461bcd60e51b81526004016108ec90614cd0565b610a28826124f1565b33600090815260026020908152604080832085845290915290205460ff1615610a635760405162461bcd60e51b81526004016108ec90614d38565b336000908152601160205260408120610a7d600185614d5e565b81548110610a8d57610a8d614d79565b90600052602060002090600302019050428160010160109054906101000a900467ffffffffffffffff1667ffffffffffffffff1611610ade5760405162461bcd60e51b81526004016108ec90614db1565b610ae66125d0565b6109a8833361267e565b6001600160a01b0381163314610b185760405162461bcd60e51b81526004016108ec90614e10565b610b22828261277e565b5050565b60018060aa541660001480610b575750336000908152600080516020615d4c833981519152602052604090205460ff165b610b735760405162461bcd60e51b81526004016108ec90614cd0565b336000908152600f6020908152604080832085845260018101909252822054909103610bb15760405162461bcd60e51b81526004016108ec90614e42565b60008381526002820160205260409020544211610be05760405162461bcd60e51b81526004016108ec90614e75565b6109a883612801565b7f930802d0eadfb856cb83e01d1c4daa3c89e9c6d9f74cfbe13124decf2b33128a610c138161233e565b82600003610c335760405162461bcd60e51b81526004016108ec90614ea4565b600060108481548110610c4857610c48614d79565b60009182526020909120600c9091020190506002600b82015460ff166002811115610c7557610c756148eb565b14610c925760405162461bcd60e51b81526004016108ec90614ed4565b600b8101805460ff1916905560048101546003820154600091610cb491614d5e565b6002830154600c546040516370a0823160e01b81529293506000926001600160a01b03928316926370a0823192610cf09291169060040161437c565b602060405180830381865afa158015610d0d573d6000803e3d6000fd5b505050506040513d601f19601f82011682018060405250810190610d319190614eef565b600c5460028501549192506001600160a01b039081169163da0c1a889188911684861115610d5f5784610d61565b855b6040518463ffffffff1660e01b8152600401610d7f93929190614f10565b600060405180830381600087803b158015610d9957600080fd5b505af1158015610dad573d6000803e3d6000fd5b505050600284015484546040516001600160a01b03928316935091169088907f661da9ced4b5d786f5b5f451a5f68af24721a01b0a65bb47fa4fdf70b80b887c90600090a4505050505050565b60018060aa541660001480610e2b5750336000908152600080516020615d4c833981519152602052604090205460ff165b610e475760405162461bcd60e51b81526004016108ec90614cd0565b610e52848484612903565b50505050565b7f930802d0eadfb856cb83e01d1c4daa3c89e9c6d9f74cfbe13124decf2b33128a610e828161233e565b610e9188888888888888612a0e565b600c54604051630480051d60e31b81526001600160a01b039091169063240028e890610ec1908a9060040161437c565b602060405180830381865afa158015610ede573d6000803e3d6000fd5b505050506040513d601f19601f82011682018060405250810190610f029190614f4b565b610f1e5760405162461bcd60e51b81526004016108ec90614f92565b600060405180604001604052808681526020018581525090506000601080549050905060106040518061016001604052808c6001600160a01b03168152602001336001600160a01b031681526020018b6001600160a01b0316815260200160008152602001600081526020018a81526020018981526020018681526020016000815260200184815260200160016002811115610fbc57610fbc6148eb565b905281546001808201845560009384526020938490208351600c9093020180546001600160a01b03199081166001600160a01b0394851617825584860151928201805482169385169390931790925560408401516002820180549093169316929092179055606082015160038201556080820151600482015560a0820151600582015560c0820151600682015560e08201516007820155610100820151600882015561012082015180518051939492939192600985019261108092849201906142a8565b50602082810151805161109992600185019201906142a8565b505050610140820151600b8201805460ff191660018360028111156110c0576110c06148eb565b02179055505050886001600160a01b03168a6001600160a01b0316827f16284487ea0f1368a3aac8128c3dd7d8e577839303a834c010386a8aea2265708b60405161110b91906143c2565b60405180910390a450505050505050505050565b600d80546001600160a01b0319166001600160a01b0383161790558451611180908c908b90889060009061115557611155614d79565b60200260200101518860008151811061117057611170614d79565b60200260200101518a8a8a612a0e565b6111a38989898d86886000015163ffffffff16896020015163ffffffff16612a83565b600c54604051630480051d60e31b81526001600160a01b039091169063240028e8906111d3908c9060040161437c565b602060405180830381865afa1580156111f0573d6000803e3d6000fd5b505050506040513d601f19601f820116820180604052508101906112149190614f4b565b6112305760405162461bcd60e51b81526004016108ec90614fd6565b61123b60008c612bf5565b6112657f930802d0eadfb856cb83e01d1c4daa3c89e9c6d9f74cfbe13124decf2b33128a8c61244f565b61128f7fe1dcbdb91df27212a29bc27177c840cf2f819ecf2187432e1fac86c2dd5dfca98c61244f565b600080604051806040016040528089815260200188815250905060106040518061016001604052808f6001600160a01b031681526020018f6001600160a01b03168152602001600a60009054906101000a90046001600160a01b03166001600160a01b031681526020018960008151811061130c5761130c614d79565b6020026020010151815260200160008152602001600081526020016000815260200188815260200160008152602001838152602001600280811115611353576113536148eb565b905281546001808201845560009384526020938490208351600c9093020180546001600160a01b03199081166001600160a01b0394851617825584860151928201805482169385169390931790925560408401516002820180549093169316929092179055606082015160038201556080820151600482015560a0820151600582015560c0820151600682015560e08201516007820155610100820151600882015561012082015180518051939492939192600985019261141792849201906142a8565b50602082810151805161143092600185019201906142a8565b505050610140820151600b8201805460ff19166001836002811115611457576114576148eb565b021790555050506301e1338067ffffffffffffffff16600081905550600a60009054906101000a90046001600160a01b03166001600160a01b03168d6001600160a01b0316837f16284487ea0f1368a3aac8128c3dd7d8e577839303a834c010386a8aea2265708a6000815181106114d1576114d1614d79565b60200260200101516040516114e691906143c2565b60405180910390a4600a5487516001600160a01b03918216918f169084907f4396d7c3edc1447dac8dd2b7143af95840c926a210524a0d3198012c7fdf37c7908b9060009061153757611537614d79565b602002602001015160405161154c91906143c2565b60405180910390a450505050505050505050505050565b60018060aa5416600014806115945750336000908152600080516020615d4c833981519152602052604090205460ff165b6115b05760405162461bcd60e51b81526004016108ec90614cd0565b336000908152601160205260409020548211156115df5760405162461bcd60e51b81526004016108ec90615007565b816000036115ff5760405162461bcd60e51b81526004016108ec9061504b565b6116076125d0565b6109a8338484612cff565b60018060aa5416600014806116435750336000908152600080516020615d4c833981519152602052604090205460ff165b61165f5760405162461bcd60e51b81526004016108ec90614cd0565b3360009081526011602052604090205482111561168e5760405162461bcd60e51b81526004016108ec90615007565b816000036116ae5760405162461bcd60e51b81526004016108ec9061504b565b6116b66125d0565b610b223383613025565b60018060aa5416600014806116f15750336000908152600080516020615d4c833981519152602052604090205460ff165b61170d5760405162461bcd60e51b81526004016108ec90614cd0565b611716826124f1565b336000908152601160205260408120611730600185614d5e565b8154811061174057611740614d79565b90600052602060002090600302019050428160010160109054906101000a900467ffffffffffffffff1667ffffffffffffffff1611156117925760405162461bcd60e51b81526004016108ec9061507f565b61179a6125d0565b80546001600160801b0316610e5281808633613092565b606080601083815481106117c7576117c7614d79565b90600052602060002090600c0201600901600001601084815481106117ee576117ee614d79565b90600052602060002090600c02016009016001018180548060200260200160405190810160405280929190818152602001828054801561184d57602002820191906000526020600020905b815481526020019060010190808311611839575b505050505091508080548060200260200160405190810160405280929190818152602001828054801561189f57602002820191906000526020600020905b81548152602001906001019080831161188b575b5050505050905091509150915091565b60018060aa5416600014806118e05750336000908152600080516020615d4c833981519152602052604090205460ff165b6118fc5760405162461bcd60e51b81526004016108ec90614cd0565b6001600160a01b038216600090815260026020908152604080832060119092528220546001929061192d908461508f565b81526020810191909152604001600020805460ff1916911515919091179055610e52848484612903565b600080600080600080600080600060108a8154811061197857611978614d79565b90600052602060002090600c020190508060000160009054906101000a90046001600160a01b03168160020160009054906101000a90046001600160a01b03168260030154836004015484600501548560080154866007015487600b0160009054906101000a900460ff169850985098509850985098509850985050919395975091939597565b60018060aa541660001480611a305750336000908152600080516020615d4c833981519152602052604090205460ff165b611a4c5760405162461bcd60e51b81526004016108ec90614cd0565b611a55836124f1565b336000908152601160205260408120611a6f600186614d5e565b81548110611a7f57611a7f614d79565b90600052602060002090600302019050428160010160109054906101000a900467ffffffffffffffff1667ffffffffffffffff161115611ad15760405162461bcd60e51b81526004016108ec9061507f565b611ad96125d0565b80546001600160801b0316611af081858733613092565b5050505050565b60018060aa541660001480611b285750336000908152600080516020615d4c833981519152602052604090205460ff165b611b445760405162461bcd60e51b81526004016108ec90614cd0565b600060108481548110611b5957611b59614d79565b60009182526020909120600c9091020190506001600b82015460ff166002811115611b8657611b866148eb565b14611ba35760405162461bcd60e51b81526004016108ec906150ca565b4281600901600001600081548110611bbd57611bbd614d79565b90600052602060002001541015611be65760405162461bcd60e51b81526004016108ec906150fc565b8060050154831115611c0a5760405162461bcd60e51b81526004016108ec9061512d565b8060060154831015611c2e5760405162461bcd60e51b81526004016108ec9061515d565b600b8101805460ff19166002179055600381018390556005810154831015611c5a57611c5a84846132b0565b6003810154600a82018054600090611c7457611c74614d79565b906000526020600020015414611c9c5760405162461bcd60e51b81526004016108ec90615193565b600281015481546040516001600160a01b03928316929091169086907f4396d7c3edc1447dac8dd2b7143af95840c926a210524a0d3198012c7fdf37c790611ce59088906143c2565b60405180910390a46002810154600c546040516323b872dd60e01b81526001600160a01b03928316926323b872dd92611d28923392909116908890600401614f10565b6020604051808303816000875af1158015611d47573d6000803e3d6000fd5b505050506040513d601f19601f82011682018060405250810190611af09190614f4b565b7f930802d0eadfb856cb83e01d1c4daa3c89e9c6d9f74cfbe13124decf2b33128a611d958161233e565b600060108381548110611daa57611daa614d79565b60009182526020909120600c9091020190506001600b82015460ff166002811115611dd757611dd76148eb565b14611df45760405162461bcd60e51b81526004016108ec906150ca565b600b8101805460ff19169055600281015481546040516001600160a01b03928316929091169085907ffadbcbd495527ce5e10fd0cceba57d404a4625dd6ce0499c254ac523789ef3ad90600090a4505050565b6000611e528161233e565b508551600e80546020808a015160408b015160608c01516080909c015163ffffffff908116600160801b0263ffffffff60801b199d8216600160601b026fffffffff00000000000000000000000019938316600160401b02939093166fffffffffffffffff0000000000000000199483166401000000000267ffffffffffffffff19909716988316989098179590951792909216959095179490941799909916179055600b80546001600160a01b039788166001600160a01b031991821617909155600d8054969097169516949094179094558151831660085593015116600955600091909155600155565b6001600160a01b0381166000908152601160209081526040808320805482518185028101850190935280835260609492939192909184015b82821015611ff75760008481526020908190206040805160a0810182526003860290920180546001600160801b038082168552600160801b91829004811685870152600180840154918216948601949094520467ffffffffffffffff166060840152600201546001600160a01b031660808301529083529092019101611f76565b505050509050919050565b60018060aa5416600014806120335750336000908152600080516020615d4c833981519152602052604090205460ff165b61204f5760405162461bcd60e51b81526004016108ec90614cd0565b6120576125d0565b610b2233836133b6565b60008281526078602052604090206001015461207c8161233e565b6109a8838361277e565b600060026010858154811061209d5761209d614d79565b60009182526020909120600b600c90920201015460ff1660028111156120c5576120c56148eb565b146120e25760405162461bcd60e51b81526004016108ec906151d7565b6001600160a01b03831660009081526011602052604090205482111561211a5760405162461bcd60e51b81526004016108ec90615207565b60006121258561234b565b6001600160a01b0385166000908152600f602090815260408083206011909252822092935091612156600187614d5e565b8154811061216657612166614d79565b600091825260208083208884526003868101835260408086208d87529093529190932054910290910160018101549092506001600160801b031674446c3b15f9926687d2c40534fdb564000000000000816121c18488614d5e565b6121cb9190615217565b6121d5919061524c565b955050505050505b9392505050565b60006121ef8161233e565b60aa546000036122115760405162461bcd60e51b81526004016108ec90615285565b6001600160a01b0382166122375760405162461bcd60e51b81526004016108ec906152b5565b600c546001600160a01b03908116908316036122655760405162461bcd60e51b81526004016108ec906152e5565b50600c80546001600160a01b0319166001600160a01b0392909216919091179055565b60018060aa5416600014806122b95750336000908152600080516020615d4c833981519152602052604090205460ff165b6122d55760405162461bcd60e51b81526004016108ec90614cd0565b336000908152600f60205260408120905b6010548110156109a85760008181526001830160205260409020541580159061231e5750600081815260028301602052604090205442115b1561232c5761232c81612801565b80612336816152f5565b9150506122e6565b612348813361346e565b50565b600060055460000361236f5760405162461bcd60e51b81526004016108ec90615336565b60055474446c3b15f9926687d2c40534fdb564000000000000612394846003546134ee565b61239e9190615217565b6123a8919061524c565b601083815481106123bb576123bb614d79565b90600052602060002090600c020160080154610872919061508f565b600780546000909155600c54600a54604051631b41835160e31b81526001600160a01b039283169263da0c1a8892612419928792909116908690600401614f10565b600060405180830381600087803b15801561243357600080fd5b505af1158015612447573d6000803e3d6000fd5b505050505050565b60008281526078602090815260408083206001600160a01b038516845290915290205460ff16610b225760008281526078602090815260408083206001600160a01b03851684529091529020805460ff191660011790556124ad3390565b6001600160a01b0316816001600160a01b0316837f2f8788117e7eff1d82e926ec794901d17c78024a50270940304540a733656f0d60405160405180910390a45050565b600081116125115760405162461bcd60e51b81526004016108ec90615368565b336000908152601160205260409020548111156125405760405162461bcd60e51b81526004016108ec90615007565b33600090815260116020526040812061255a600184614d5e565b8154811061256a5761256a614d79565b6000918252602090912060039091020180549091506001600160801b03166125a45760405162461bcd60e51b81526004016108ec9061539d565b60028101546001600160a01b03163314610b225760405162461bcd60e51b81526004016108ec906153cd565b42600354036125db57565b600454156126785760005b6010548110156126765760026010828154811061260557612605614d79565b60009182526020909120600b600c90920201015460ff16600281111561262d5761262d6148eb565b036126645761263b8161234b565b6010828154811061264e5761264e614d79565b90600052602060002090600c0201600801819055505b8061266e816152f5565b9150506125e6565b505b42600355565b6001600160a01b03811660009081526011602052604081206126a1600185614d5e565b815481106126b1576126b1614d79565b6000918252602090912060039091020160018101548154919250600160801b900467ffffffffffffffff16906001600160801b03166126f281808787613092565b60006126fe8342613588565b90506000620186a06127108484615217565b61271a919061524c565b6001600160a01b0387166000908152600f6020908152604080832083805260018101909252822080549394509092849290612756908490614d5e565b92505081905550816007600082825461276f919061508f565b90915550505050505050505050565b60008281526078602090815260408083206001600160a01b038516845290915290205460ff1615610b225760008281526078602090815260408083206001600160a01b0385168085529252808320805460ff1916905551339285917ff6391f5c32d9c69d2a47ea670b442974b53935d1edc7fd64eb21e047a839171b9190a45050565b336000818152600f602090815260408083208584526001810190925280832080549390555190929084907f3bfce8de0db7450cc169b94323c210e69a36c6a4a58c9f5d96bec4973adce392906128589085906143c2565b60405180910390a3600c54601080546001600160a01b039092169163da0c1a889133918790811061288b5761288b614d79565b600091825260209091206002600c9092020101546040516001600160e01b031960e085901b1681526128cc92916001600160a01b0316908690600401614f10565b600060405180830381600087803b1580156128e657600080fd5b505af11580156128fa573d6000803e3d6000fd5b50505050505050565b6001546001600160a01b038216600090815260116020526040902054111561293d5760405162461bcd60e51b81526004016108ec906153fd565b6000831161295d5760405162461bcd60e51b81526004016108ec9061542c565b60005482111561297f5760405162461bcd60e51b81526004016108ec90615462565b6129876125d0565b612992818484613644565b600a54600c546040516323b872dd60e01b81526001600160a01b03928316926323b872dd926129cb923392909116908890600401614f10565b6020604051808303816000875af11580156129ea573d6000803e3d6000fd5b505050506040513d601f19601f82011682018060405250810190610e529190614f4b565b600d546040516329b367cb60e11b81526001600160a01b0390911690635366cf9690612a4a908a908a908a908a908a908a908a90600401615472565b60006040518083038186803b158015612a6257600080fd5b505afa158015612a76573d6000803e3d6000fd5b5050505050505050505050565b6001600160a01b038716612aa95760405162461bcd60e51b81526004016108ec9061550d565b6001600160a01b038616612acf5760405162461bcd60e51b81526004016108ec90615542565b6001600160a01b038416612af55760405162461bcd60e51b81526004016108ec90615578565b612b056040860160208701615588565b63ffffffff16612b186020870187615588565b63ffffffff1611612b3b5760405162461bcd60e51b81526004016108ec906155c9565b612b4b6080860160608701615588565b63ffffffff16612b616060870160408801615588565b63ffffffff1611612b845760405162461bcd60e51b81526004016108ec906155fb565b600a80546001600160a01b03808a166001600160a01b031992831617909255600b80549289169290911691909117905584600e612bc182826157ae565b5050600c80546001600160a01b0319166001600160a01b039590951694909417909355600191909155600855600955505050565b601354610100900460ff1615808015612c155750601354600160ff909116105b80612c2f5750303b158015612c2f575060135460ff166001145b612c4b5760405162461bcd60e51b81526004016108ec90615803565b6013805460ff191660011790558015612c6e576013805461ff0019166101001790555b612c7661388a565b612c8160008361244f565b612cab7f139c2898040ef16910dc9f44dc697df79363da767d8bc92f2e310312b816e46d8361244f565b60aa83905580156109a8576013805461ff00191690556040517f7f26b83ff96e1f2b6a682f133852f6798a09c465da95921460cefb384740249890612cf290600190615827565b60405180910390a1505050565b6001600160a01b0383166000908152601160205260408120612d22600184614d5e565b81548110612d3257612d32614d79565b600091825260209091206003909102019050600260108481548110612d5957612d59614d79565b60009182526020909120600b600c90920201015460ff166002811115612d8157612d816148eb565b14612d9e5760405162461bcd60e51b81526004016108ec90615854565b6001600160a01b0384166000908152600f60205260408120825490916001600160801b039091169003612de35760405162461bcd60e51b81526004016108ec90615883565b60018201546000848152600383016020908152604080832088845290915281205460108054929374446c3b15f9926687d2c40534fdb564000000000000936001600160801b0390911692919089908110612e3f57612e3f614d79565b90600052602060002090600c020160080154612e5b9190614d5e565b612e659190615217565b612e6f919061524c565b905080600003612e8157505050505050565b600085815260018301602052604081208054839290612ea190849061508f565b90915550506010805486908110612eba57612eba614d79565b600091825260208083206008600c90930201919091015486835260038501825260408084208985529092529120556010805486908110612efc57612efc614d79565b90600052602060002090600c02016007015442612f19919061508f565b60008681526002840160205260409020556010805486908110612f3e57612f3e614d79565b90600052602060002090600c0201600301548160108781548110612f6457612f64614d79565b90600052602060002090600c020160040154612f80919061508f565b1115612f9e5760405162461bcd60e51b81526004016108ec906158c7565b8060108681548110612fb257612fb2614d79565b90600052602060002090600c02016004016000828254612fd2919061508f565b9091555050600085815260018301602052604080822054905190916001600160a01b0389169188917f5f1c6be51c8ec7fa7e7ddd9f798ec55927b06cfc8d9159987d1ae3358cb10b5991a4505050505050565b60105460005b81811015610e525760026010828154811061304857613048614d79565b60009182526020909120600b600c90920201015460ff166002811115613070576130706148eb565b0361308057613080848285612cff565b8061308a816152f5565b91505061302b565b6001600160a01b0381166000908152600f60209081526040808320601190925282209091906130c2600186614d5e565b815481106130d2576130d2614d79565b906000526020600020906003020190506004546000036131045760405162461bcd60e51b81526004016108ec9061590b565b80546001600160801b031660000361312e5760405162461bcd60e51b81526004016108ec9061593a565b80546001600160801b03808216835560068054600160801b9093049091169182919060009061315e908490614d5e565b909155505082546000906001600160801b031682101561319157835461318e9083906001600160801b0316614d5e565b90505b61319a816138b3565b84546001600160801b0319166001600160801b03919091161784556131c1878988886138e0565b600b546040516370a0823160e01b81526000916001600160a01b0316906370a08231906131f290899060040161437c565b602060405180830381865afa15801561320f573d6000803e3d6000fd5b505050506040513d601f19601f820116820180604052508101906132339190614eef565b905082811015613241578092505b600b54604051632770a7eb60e21b81526001600160a01b0390911690639dc29fac90613273908990879060040161594a565b600060405180830381600087803b15801561328d57600080fd5b505af11580156132a1573d6000803e3d6000fd5b50505050505050505050505050565b6000601083815481106132c5576132c5614d79565b600091825260208220600a600c90920201015491505b81811015610e5257601084815481106132f6576132f6614d79565b90600052602060002090600c020160050154836010868154811061331c5761331c614d79565b90600052602060002090600c0201600901600101838154811061334157613341614d79565b90600052602060002001546133569190615217565b613360919061524c565b6010858154811061337357613373614d79565b90600052602060002090600c0201600901600101828154811061339857613398614d79565b600091825260209091200155806133ae816152f5565b9150506132db565b6002601082815481106133cb576133cb614d79565b60009182526020909120600b600c90920201015460ff1660028111156133f3576133f36148eb565b146134105760405162461bcd60e51b81526004016108ec90615854565b6001600160a01b03821660009081526011602052604090208054806134475760405162461bcd60e51b81526004016108ec90615983565b60015b818111611af05761345c858583612cff565b80613466816152f5565b91505061344a565b60008281526078602090815260408083206001600160a01b038516845290915290205460ff16610b22576134ac816001600160a01b03166014613a9d565b6134b7836020613a9d565b6040516020016134c89291906159e1565b60408051601f198184030181529082905262461bcd60e51b82526108ec91600401615a77565b600d54601080546000926001600160a01b0316916351e1551a918690811061351857613518614d79565b90600052602060002090600c0201600901846040518363ffffffff1660e01b8152600401613547929190615b1d565b602060405180830381865afa158015613564573d6000803e3d6000fd5b505050506040513d601f19601f820116820180604052508101906121dd9190614eef565b60008280831061359c576000915050610872565b60006135a88483614d5e565b600054600e549192509082906135d49063ffffffff600160601b8204811691600160401b900416615b3d565b600e546135ee9190600160801b900463ffffffff16615b54565b63ffffffff166135fe9190615217565b613608919061524c565b600e5461362b9063ffffffff600160601b8204811691600160801b900416615b54565b63ffffffff1661363b919061508f565b95945050505050565b6001600160a01b0383166000908152600f6020526040812082156136fa57600954670de0b6b3a7640000908161367a8688615217565b6136849190615217565b61368e919061524c565b613698919061524c565b91506136a3826138b3565b815482906000906136be9084906001600160801b0316615b82565b92506101000a8154816001600160801b0302191690836001600160801b0316021790555081600660008282546136f4919061508f565b90915550505b60006040518060a00160405280613710876138b3565b6001600160801b03168152602001613727856138b3565b6001600160801b031681526000602082015260400161374e613749428861508f565b613c09565b67ffffffffffffffff90811682526001600160a01b03898116602093840181905260008181526011855260408082208054600180820183558285528885208a51998b01516001600160801b039a8b16600160801b918c168202176003909402909101928355938a0151908201805460608c015192909a166001600160c01b0319909a16999099179716909202959095179095556080860151600290950180546001600160a01b03191695909316949094179091559091525490915061381890879087908690613c33565b821561244757600b546040516340c10f1960e01b81526001600160a01b03909116906340c10f1990613850908990879060040161594a565b600060405180830381600087803b15801561386a57600080fd5b505af115801561387e573d6000803e3d6000fd5b50505050505050505050565b601354610100900460ff166138b15760405162461bcd60e51b81526004016108ec90615bfd565b565b60006001600160801b038211156138dc5760405162461bcd60e51b81526004016108ec90615c41565b5090565b6001600160a01b0381166000908152600f6020908152604080832060119092528220909190613910600186614d5e565b8154811061392057613920614d79565b9060005260206000209060030201905084600460008282546139429190614d5e565b90915550506001810154600580546001600160801b039092169160009061396a908490614d5e565b90915550506001810180546001600160801b0319908116909155815416815560006139958787614d5e565b90508683600101600080815260200190815260200160002060008282546139bc919061508f565b9091555050601080546000906139d4576139d4614d79565b90600052602060002090600c020160070154426139f1919061508f565b60008080526002850160205260409020558015613a5157613a1481868486613dd5565b8487856001600160a01b03167f845a16492d8f772c792e84d2c5495d37fca22ce33263b67322e92ef0be653c5060405160405180910390a46128fa565b613a5c838587613f07565b8487856001600160a01b03167f7fc4727e062e336010f2c282598ef5f14facb3de68cf8195c2f23e1454b2b74e60405160405180910390a450505050505050565b60606000613aac836002615217565b613ab790600261508f565b67ffffffffffffffff811115613acf57613acf614492565b6040519080825280601f01601f191660200182016040528015613af9576020820181803683370190505b509050600360fc1b81600081518110613b1457613b14614d79565b60200101906001600160f81b031916908160001a905350600f60fb1b81600181518110613b4357613b43614d79565b60200101906001600160f81b031916908160001a9053506000613b67846002615217565b613b7290600161508f565b90505b6001811115613bea576f181899199a1a9b1b9c1cb0b131b232b360811b85600f1660108110613ba657613ba6614d79565b1a60f81b828281518110613bbc57613bbc614d79565b60200101906001600160f81b031916908160001a90535060049490941c93613be381615c51565b9050613b75565b5083156121dd5760405162461bcd60e51b81526004016108ec90615c9a565b600067ffffffffffffffff8211156138dc5760405162461bcd60e51b81526004016108ec90615cde565b6001600160a01b0384166000908152600f6020908152604080832060119092528220909190613c63600185614d5e565b81548110613c7357613c73614d79565b906000526020600020906003020190508460046000828254613c95919061508f565b9091555060009050613ca8868642614148565b90508060056000828254613cbc919061508f565b90915550613ccb9050816138b3565b600183018054600090613ce89084906001600160801b0316615b82565b92506101000a8154816001600160801b0302191690836001600160801b031602179055506000601080549050905060005b81811015613d745760108181548110613d3457613d34614d79565b600091825260208083206008600c909302019190910154888352600388018252604080842085855290925291205580613d6c816152f5565b915050613d19565b508486837f6381ea17a5324d29cc015352644672ead5185c1c61a0d3a521eda97e35cec97e8b8b8860010160109054906101000a900467ffffffffffffffff16604051613dc393929190615d0d565b60405180910390a45050505050505050565b8360046000828254613de7919061508f565b90915550613df69050846138b3565b82548390600090613e119084906001600160801b0316615b82565b92506101000a8154816001600160801b0302191690836001600160801b031602179055506000613e4385600042614148565b9050613e4e816138b3565b600184018054600090613e6b9084906001600160801b0316615b82565b92506101000a8154816001600160801b0302191690836001600160801b031602179055508060056000828254613ea1919061508f565b909155505060105460005b818110156128fa5760108181548110613ec757613ec7614d79565b600091825260208083206008600c909302019190910154888352600387018252604080842085855290925291205580613eff816152f5565b915050613eac565b6010546001600160a01b038316600090815260116020526040902054828114801590613f335750600181115b156140a3576001600160a01b0384166000908152601160205260408120613f5b600184614d5e565b81548110613f6b57613f6b614d79565b600091825260208083206001600160a01b038916845260119091526040909220600390910290910191508190613fa2600187614d5e565b81548110613fb257613fb2614d79565b600091825260208220835460039092020180546001600160801b03199081166001600160801b0393841690811783558554600160801b908190048516810290911783556001808701805491850180549485169290961691821786555467ffffffffffffffff90839004169091026001600160c01b03199092161717909155600292830154920180546001600160a01b0319166001600160a01b03909316929092179091555b838110156140a057600083815260038801602081815260408084208585528252808420548985529282528084208585529091529091205580614098816152f5565b915050614057565b50505b60005b828110156140dc5760008281526003870160209081526040808320848452909152812055806140d4816152f5565b9150506140a6565b506001600160a01b038416600090815260116020526040902080548061410457614104615d35565b6000828152602081206003600019909301928302019081556001810180546001600160c01b031916905560020180546001600160a01b031916905590555050505050565b6000806103e88460085461415c9190615217565b614166919061524c565b614170908661508f565b905060006228207267ffffffffffffffff16601060008154811061419657614196614d79565b90600052602060002090600c02016009016000016000815481106141bc576141bc614d79565b90600052602060002001546141d1919061508f565b905060006141e36301e133808361508f565b905081851161420957600e546141ff9063ffffffff1684615217565b93505050506121dd565b80851061422b57600e546141ff90640100000000900463ffffffff1684615217565b6142358282614d5e565b61423f8683614d5e565b600e5461425c9063ffffffff640100000000820481169116615b3d565b61426c9063ffffffff1686615217565b6142769190615217565b614280919061524c565b600e546142939063ffffffff1685615217565b61429d919061508f565b979650505050505050565b8280548282559060005260206000209081019282156142e3579160200282015b828111156142e35782518255916020019190600101906142c8565b506138dc9291505b808211156138dc57600081556001016142eb565b6001600160e01b031981165b811461234857600080fd5b8035610872816142ff565b60006020828403121561433657614336600080fd5b60006143428484614316565b949350505050565b8015155b82525050565b60208101610872828461434a565b60006001600160a01b038216610872565b61434e81614362565b602081016108728284614373565b8061430b565b80356108728161438a565b6000602082840312156143b0576143b0600080fd5b60006143428484614390565b8061434e565b6020810161087282846143bc565b61430b81614362565b8035610872816143d0565b6000602082840312156143f9576143f9600080fd5b600061434284846143d9565b6000806040838503121561441b5761441b600080fd5b60006144278585614390565b9250506020614438858286016143d9565b9150509250929050565b60008060006060848603121561445a5761445a600080fd5b60006144668686614390565b935050602061447786828701614390565b9250506040614488868287016143d9565b9150509250925092565b634e487b7160e01b600052604160045260246000fd5b601f19601f830116810181811067ffffffffffffffff821117156144ce576144ce614492565b6040525050565b60006144e060405190565b90506144ec82826144a8565b919050565b600067ffffffffffffffff82111561450b5761450b614492565b5060209081020190565b6000614528614523846144f1565b6144d5565b8381529050602080820190840283018581111561454757614547600080fd5b835b8181101561456b578061455c8882614390565b84525060209283019201614549565b5050509392505050565b600082601f83011261458957614589600080fd5b8135614342848260208601614515565b600080600080600080600060e0888a0312156145b7576145b7600080fd5b60006145c38a8a6143d9565b97505060206145d48a828b016143d9565b96505060406145e58a828b01614390565b95505060606145f68a828b01614390565b945050608088013567ffffffffffffffff81111561461657614616600080fd5b6146228a828b01614575565b93505060a088013567ffffffffffffffff81111561464257614642600080fd5b61464e8a828b01614575565b92505060c061465f8a828b01614390565b91505092959891949750929550565b600060a0828403121561468357614683600080fd5b50919050565b63ffffffff811661430b565b803561087281614689565b6000604082840312156146b5576146b5600080fd5b6146bf60406144d5565b905060006146cd8484614695565b82525060206146de84848301614695565b60208301525092915050565b60008060008060008060008060008060006102008c8e03121561470f5761470f600080fd5b600061471b8e8e6143d9565b9b5050602061472c8e828f016143d9565b9a5050604061473d8e828f016143d9565b995050606061474e8e828f016143d9565b985050608061475f8e828f0161466e565b9750506101208c013567ffffffffffffffff81111561478057614780600080fd5b61478c8e828f01614575565b9650506101408c013567ffffffffffffffff8111156147ad576147ad600080fd5b6147b98e828f01614575565b9550506101606147cb8e828f01614390565b9450506101806147dd8e828f016146a0565b9350506101c06147ef8e828f01614390565b9250506101e06148018e828f016143d9565b9150509295989b509295989b9093969950565b6000806040838503121561482a5761482a600080fd5b60006148368585614390565b925050602061443885828601614390565b600061485383836143bc565b505060200190565b6000614865825190565b80845260209384019383018060005b838110156148995781516148888882614847565b975060208301925050600101614874565b509495945050505050565b604080825281016148b5818561485b565b90508181036020830152614342818461485b565b600080604083850312156148df576148df600080fd5b600061483685856143d9565b634e487b7160e01b600052602160045260246000fd5b60038110612348576123486148eb565b806144ec81614901565b600061087282614911565b61434e8161491b565b610100810161493e828b614373565b61494b602083018a614373565b61495860408301896143bc565b61496560608301886143bc565b61497260808301876143bc565b61497f60a08301866143bc565b61498c60c08301856143bc565b61499960e0830184614926565b9998505050505050505050565b600060a082840312156149bb576149bb600080fd5b6149c560a06144d5565b905060006149d38484614695565b82525060206149e484848301614695565b60208301525060406149f884828501614695565b6040830152506060614a0c84828501614695565b6060830152506080614a2084828501614695565b60808301525092915050565b6000806000806000806101608789031215614a4957614a49600080fd5b6000614a5589896149a6565b96505060a0614a6689828a016143d9565b95505060c0614a7789828a016143d9565b94505060e0614a8889828a016146a0565b935050610120614a9a89828a01614390565b925050610140614aac89828a01614390565b9150509295509295509295565b6001600160801b03811661434e565b602081016108728284614ab9565b67ffffffffffffffff811661434e565b805160a0830190614af78482614ab9565b506020820151614b0a6020850182614ab9565b506040820151614b1d6040850182614ab9565b506060820151614b306060850182614ad6565b506080820151610e526080850182614373565b6000614b4f8383614ae6565b505060a00190565b6000614b61825190565b80845260209384019383018060005b83811015614899578151614b848882614b43565b975060208301925050600101614b70565b602080825281016121dd8184614b57565b63ffffffff811661434e565b805160a0830190614bc38482614ba6565b506020820151614bd66020850182614ba6565b506040820151614be96040850182614ba6565b506060820151614bfc6060850182614ba6565b506080820151610e526080850182614ba6565b60a081016108728284614bb2565b600080600060608486031215614c3557614c35600080fd5b6000614c418686614390565b9350506020614c52868287016143d9565b925050604061448886828701614390565b601681526000602082017f6f6e6c792061646d696e2063616e20756e706175736500000000000000000000815291505b5060200190565b6020808252810161087281614c63565b600f81526000602082016e1c185d5cd9590818dbdb9d1c9858dd608a1b81529150614c93565b6020808252810161087281614caa565b600a8152600060208201696e6f2070656e616c747960b01b81529150614c93565b6020808252810161087281614ce0565b601081526000602082016f6561726c7920696e6665617369626c6560801b81529150614c93565b6020808252810161087281614d11565b634e487b7160e01b600052601160045260246000fd5b6000825b925082821015614d7457614d74614d48565b500390565b634e487b7160e01b600052603260045260246000fd5b600b81526000602082016a1b1bd8dac81bdc195b995960aa1b81529150614c93565b6020808252810161087281614d8f565b602f81526000602082017f416363657373436f6e74726f6c3a2063616e206f6e6c792072656e6f756e636581526e103937b632b9903337b91039b2b63360891b602082015291505b5060400190565b6020808252810161087281614dc1565b600b81526000602082016a6e6f2070656e64696e677360a81b81529150614c93565b6020808252810161087281614e20565b600c81526000602082016b1b9bdd081c995b19585cd95960a21b81529150614c93565b6020808252810161087281614e52565b6008815260006020820167053747265616d20360c41b81529150614c93565b6020808252810161087281614e85565b60098152600060208201684e6f2053747265616d60b81b81529150614c93565b6020808252810161087281614eb4565b80516108728161438a565b600060208284031215614f0457614f04600080fd5b60006143428484614ee4565b60608101614f1e8286614373565b614f2b6020830185614373565b61434260408301846143bc565b80151561430b565b805161087281614f38565b600060208284031215614f6057614f60600080fd5b60006143428484614f40565b600f81526000602082016e2ab739bab83837b93a102a37b5b2b760891b81529150614c93565b6020808252810161087281614f6c565b601181526000602082017f556e737570706f7274656420746f6b656e00000000000000000000000000000081529150614c93565b6020808252810161087281614fa2565b600a815260006020820169189859081b1bd8dada5960b21b81529150614c93565b6020808252810161087281614fe6565b601381526000602082017f6c6f636b49642063616e74206265207a65726f0000000000000000000000000081529150614c93565b6020808252810161087281615017565b600d81526000602082016c3637b1b5903737ba1037b832b760991b81529150614c93565b602080825281016108728161505b565b600082198211156150a2576150a2614d48565b500190565b600c81526000602082016b1b9bdd081c1c9bdc1bdcd95960a21b81529150614c93565b60208082528101610872816150a7565b600b81526000602082016a70726f702065787069726560a81b81529150614c93565b60208082528101610872816150da565b600a8152600060208201690e4eee4c8e640d0d2ced60b31b81529150614c93565b602080825281016108728161510c565b60098152600060208201687277726473206c6f7760b81b81529150614c93565b602080825281016108728161513d565b600f81526000602082016e189859081cdd185c9d081c1bda5b9d608a1b81529150614c93565b602080825281016108728161516d565b601181526000602082017f73747265616d206e6f742061637469766500000000000000000000000000000081529150614c93565b60208082528101610872816151a3565b60098152600060208201680c4c2c840d2dcc8caf60bb1b81529150614c93565b60208082528101610872816151e7565b600081600019048311821515161561523157615231614d48565b500290565b634e487b7160e01b600052601260045260246000fd5b60008261525b5761525b615236565b500490565b600e81526000602082016d726571756972656420706175736560901b81529150614c93565b6020808252810161087281615260565b60098152600060208201683d32b9379030b2323960b91b81529150614c93565b6020808252810161087281615295565b600981526000602082016839b0b6b29030b2323960b91b81529150614c93565b60208082528101610872816152c5565b6000600019820361530857615308614d48565b5060010190565b601081526000602082016f4e6f2053747265616d2053686172657360801b81529150614c93565b602080825281016108728161530f565b600b81526000602082016a1e995c9bc81b1bd8dada5960aa1b81529150614c93565b6020808252810161087281615346565b600e81526000602082016d1b9bc81b1bd8dac8185b5bdd5b9d60921b81529150614c93565b6020808252810161087281615378565b60098152600060208201683130b21037bbb732b960b91b81529150614c93565b60208082528101610872816153ad565b60098152600060208201686d6178206c6f636b7360b81b81529150614c93565b60208082528101610872816153dd565b60088152600060208201670616d6f756e7420360c41b81529150614c93565b602080825281016108728161540d565b600f81526000602082016e1b585e081b1bd8dac81c195c9a5bd9608a1b81529150614c93565b602080825281016108728161543c565b60e08101615480828a614373565b61548d6020830189614373565b61549a60408301886143bc565b6154a760608301876143bc565b81810360808301526154b9818661485b565b905081810360a08301526154cd818561485b565b90506154dc60c08301846143bc565b98975050505050505050565b600e81526000602082016d6d61696e2061646472207a65726f60901b81529150614c93565b60208082528101610872816154e8565b600e81526000602082016d766f74652061646472207a65726f60901b81529150614c93565b602080825281016108728161551d565b600f81526000602082016e7661756c742061646472207a65726f60881b81529150614c93565b6020808252810161087281615552565b60006020828403121561559d5761559d600080fd5b60006143428484614695565b600981526000602082016862616420736861726560b81b81529150614c93565b60208082528101610872816155a9565b600b81526000602082016a6261642070656e616c747960a81b81529150614c93565b60208082528101610872816155d9565b6000813561087281614689565b600063ffffffff835b81169019929092169190911792915050565b600061087263ffffffff8316615647565b90565b63ffffffff1690565b61565982615633565b615664818354615618565b8255505050565b600067ffffffff000000006156218460201b90565b61568982615633565b61566481835461566b565b60006bffffffff00000000000000006156218460401b90565b6156b682615633565b615664818354615694565b60006fffffffff0000000000000000000000006156218460601b90565b6156e782615633565b6156648183546156c1565b600063ffffffff60801b6156218460801b90565b61570f82615633565b6156648183546156f2565b8082806157268161560b565b90506157328184615650565b508291505060208301806157458161560b565b90506157518184615680565b508291505060408301806157648161560b565b905061577081846156ad565b508291505060608301806157838161560b565b905061578f81846156de565b508291505060808301806157a28161560b565b9050611af08184615706565b610b22828261571a565b602e81526000602082017f496e697469616c697a61626c653a20636f6e747261637420697320616c72656181526d191e481a5b9a5d1a585b1a5e995960921b60208201529150614e09565b60208082528101610872816157b8565b600060ff8216610872565b61434e81615813565b60208101610872828461581e565b6008815260006020820167696e61637469766560c01b81529150614c93565b6020808252810161087281615835565b60088152600060208201674e6f205374616b6560c01b81529150614c93565b6020808252810161087281615864565b601481526000602082017f696e73756666696369656e74207265776172647300000000000000000000000081529150614c93565b6020808252810161087281615893565b601181526000602082017f5a65726f20746f74616c20746f6b656e7300000000000000000000000000000081529150614c93565b60208082528101610872816158d7565b60088152600060208201672737903a37b5b2b760c11b81529150614c93565b602080825281016108728161591b565b604081016159588285614373565b6121dd60208301846143bc565b60078152600060208201666e6f206c6f636b60c81b81529150614c93565b6020808252810161087281615965565b60005b838110156159ae578181015183820152602001615996565b83811115610e525750506000910152565b60006159c9825190565b6159d7818560208601615993565b9290920192915050565b7f416363657373436f6e74726f6c3a206163636f756e742000000000000000000081526017016000615a1382856159bf565b7f206973206d697373696e6720726f6c65200000000000000000000000000000008152601101915061434282846159bf565b6000615a4f825190565b808452602084019350615a66818560208601615993565b601f01601f19169290920192915050565b602080825281016121dd8184615a45565b600081610872565b60006108728254615a88565b6000615aa6825490565b808452600083815260208082209501949081905b8381101561489957615acb82615a90565b615ad58882614847565b97505060019182019101615aba565b604080835260009083018183615afa8382615a9c565b925050600184018583036020870152615b138382615a9c565b9695505050505050565b60408082528101615b2e8185615ae4565b90506121dd60208301846143bc565b600063ffffffff8216915063ffffffff8316614d62565b600063ffffffff8216915063ffffffff831692508163ffffffff048311821515161561523157615231614d48565b60006001600160801b03821691506001600160801b0383169250826001600160801b03038211156150a2576150a2614d48565b602b81526000602082017f496e697469616c697a61626c653a20636f6e7472616374206973206e6f74206981526a6e697469616c697a696e6760a81b60208201529150614e09565b6020808252810161087281615bb5565b601c81526000602082017f426f72696e674d6174683a2075696e74313238204f766572666c6f770000000081529150614c93565b6020808252810161087281615c0d565b600081615c6057615c60614d48565b506000190190565b60208082527f537472696e67733a20686578206c656e67746820696e73756666696369656e7491019081526000614c93565b6020808252810161087281615c68565b601b81526000602082017f426f72696e674d6174683a2075696e743634204f766572666c6f77000000000081529150614c93565b6020808252810161087281615caa565b600061087261564467ffffffffffffffff841681565b61434e81615cee565b60608101615d1b8286614373565b615d2860208301856143bc565b6143426040830184615d04565b634e487b7160e01b600052603160045260246000fdfe081a134e404bb5bca49ef6b8477e647c1205f6d43d6a20bb692a968ac5aa7144a2646970667358221220accbf3681ea9888c5c8f6187ea00c42ed7818d0005924d38683335a7b2838c3f64736f6c634300080d0033",
    "immutableReferences": {},
    "source": "// SPDX-License-Identifier: AGPL 3.0\n// Copyright Fathom 2022\n\npragma solidity 0.8.13;\n\nimport \"./StakingHandler.sol\";\nimport \"./StakingGetters.sol\";\n\ncontract StakingPackage is StakingHandlers, StakingGetters {}\n",
    "sourcePath": "/Users/subiksinghshrestha/Documents/FATHOM/fathom-dao-smart-contracts/contracts/dao/staking/packages/StakingPackage.sol",
    "compiler": {
        "name": "solc",
        "version": "0.8.13+commit.abaa5c0e.Darwin.appleclang"
    },
    "schemaVersion": "3.4.10",
    "updatedAt": "2022-12-06T05:38:12.190Z",
    "devdoc": {
        "kind": "dev",
        "methods": {
            "adminPause(uint256)": {
                "details": "adminPause pauses this contract. Only pause role or default admin role can access this function.",
                "params": {
                    "flags": "flags variable is used for pausing this contract."
                }
            },
            "getRoleAdmin(bytes32)": {
                "details": "Returns the admin role that controls `role`. See {grantRole} and {revokeRole}. To change a role's admin, use {_setRoleAdmin}."
            },
            "grantRole(bytes32,address)": {
                "details": "Grants `role` to `account`. If `account` had not been already granted `role`, emits a {RoleGranted} event. Requirements: - the caller must have ``role``'s admin role. May emit a {RoleGranted} event."
            },
            "hasRole(bytes32,address)": {
                "details": "Returns `true` if `account` has been granted `role`."
            },
            "initializeStaking(address,address,address,address,(uint32,uint32,uint32,uint32,uint32),uint256[],uint256[],uint256,(uint32,uint32),uint256,address)": {
                "details": "initialize the contract and deploys the first stream of rewardsinitializable only once due to stakingInitialised flag",
                "params": {
                    "_admin": "the owner and manager of the main token stream",
                    "_mainToken": "token contract address",
                    "_vault": "The Vault address to store main token and rewards tokens",
                    "_weight": "Weighting coefficient for shares and penalties",
                    "scheduleRewards": "init schedule rewards",
                    "scheduleTimes": "init schedules times",
                    "tau": "release time constant per stream"
                }
            },
            "proposeStream(address,address,uint256,uint256,uint256[],uint256[],uint256)": {
                "details": "An admin of the staking contract can whitelist (propose) a stream. Whitelisting of the stream provides the option for the stream owner (presumably the issuing party of a specific token) to deposit some ERC-20 tokens on the staking contract and potentially get in return some main tokens immediately. ",
                "params": {
                    "maxDepositAmount": "The upper amount of the tokens that should be deposited by stream owner",
                    "rewardToken": "the address of the ERC-20 tokens to be deposited in the stream",
                    "scheduleRewards": "remaining rewards to be delivered at the beginning of each scheduled interval.  Last element is always zero. First value (in scheduleRewards) from array is supposed to be a total amount of rewards for stream.",
                    "scheduleTimes": "timestamp denoting the start of each scheduled interval. Last element is the end of the stream.",
                    "streamOwner": "only this account will be able to launch a stream",
                    "tau": "the tau is (pending release period) for this stream (e.g one day)"
                }
            },
            "renounceRole(bytes32,address)": {
                "details": "Revokes `role` from the calling account. Roles are often managed via {grantRole} and {revokeRole}: this function's purpose is to provide a mechanism for accounts to lose their privileges if they are compromised (such as when a trusted device is misplaced). If the calling account had been revoked `role`, emits a {RoleRevoked} event. Requirements: - the caller must be `account`. May emit a {RoleRevoked} event."
            },
            "revokeRole(bytes32,address)": {
                "details": "Revokes `role` from `account`. If `account` had been granted `role`, emits a {RoleRevoked} event. Requirements: - the caller must have ``role``'s admin role. May emit a {RoleRevoked} event."
            },
            "supportsInterface(bytes4)": {
                "details": "See {IERC165-supportsInterface}."
            }
        },
        "version": 1
    },
    "userdoc": {
        "kind": "user",
        "methods": {
            "initializeStaking(address,address,address,address,(uint32,uint32,uint32,uint32,uint32),uint256[],uint256[],uint256,(uint32,uint32),uint256,address)": {
                "notice": "By calling this function, the deployer of this contract must make sure that the Rewards amount was deposited to the treasury contract before initializing of the default Stream"
            },
            "maxLockPositions()": {
                "notice": "Checks if the staking is initialized"
            },
            "proposeStream(address,address,uint256,uint256,uint256[],uint256[],uint256)": {
                "notice": "Manager of Vault must call"
            },
            "totalAmountOfStakedToken()": {
                "notice": "The below three are used for autocompounding feature and weighted shares"
            },
            "totalAmountOfVoteToken()": {
                "notice": "voteToken -> vote Token"
            }
        },
        "version": 1
    }
}