{
  "_format": "hh-sol-artifact-1",
  "contractName": "StakingPackage",
  "sourceName": "contracts/dao/staking/packages/StakingPackage.sol",
  "abi": [
    {
      "anonymous": false,
      "inputs": [
        {
          "indexed": true,
          "internalType": "bool",
          "name": "oldFlag",
          "type": "bool"
        },
        {
          "indexed": true,
          "internalType": "bool",
          "name": "newFlag",
          "type": "bool"
        }
      ],
      "name": "EarlyWithdrawalFlagSet",
      "type": "event"
    },
    {
      "anonymous": false,
      "inputs": [
        {
          "indexed": true,
          "internalType": "uint256",
          "name": "oldMaxLockPositions",
          "type": "uint256"
        },
        {
          "indexed": true,
          "internalType": "uint256",
          "name": "newMaxLockPositions",
          "type": "uint256"
        }
      ],
      "name": "MaxLockPositionsSet",
      "type": "event"
    },
    {
      "anonymous": false,
      "inputs": [
        {
          "indexed": true,
          "internalType": "uint256",
          "name": "streamId",
          "type": "uint256"
        },
        {
          "indexed": true,
          "internalType": "address",
          "name": "account",
          "type": "address"
        },
        {
          "indexed": true,
          "internalType": "uint256",
          "name": "pendings",
          "type": "uint256"
        }
      ],
      "name": "Pending",
      "type": "event"
    },
    {
      "anonymous": false,
      "inputs": [
        {
          "indexed": true,
          "internalType": "uint256",
          "name": "streamId",
          "type": "uint256"
        },
        {
          "indexed": true,
          "internalType": "address",
          "name": "user",
          "type": "address"
        },
        {
          "indexed": false,
          "internalType": "uint256",
          "name": "pendingAmount",
          "type": "uint256"
        }
      ],
      "name": "Released",
      "type": "event"
    },
    {
      "anonymous": false,
      "inputs": [
        {
          "indexed": true,
          "internalType": "bytes32",
          "name": "role",
          "type": "bytes32"
        },
        {
          "indexed": true,
          "internalType": "bytes32",
          "name": "previousAdminRole",
          "type": "bytes32"
        },
        {
          "indexed": true,
          "internalType": "bytes32",
          "name": "newAdminRole",
          "type": "bytes32"
        }
      ],
      "name": "RoleAdminChanged",
      "type": "event"
    },
    {
      "anonymous": false,
      "inputs": [
        {
          "indexed": true,
          "internalType": "bytes32",
          "name": "role",
          "type": "bytes32"
        },
        {
          "indexed": true,
          "internalType": "address",
          "name": "account",
          "type": "address"
        },
        {
          "indexed": true,
          "internalType": "address",
          "name": "sender",
          "type": "address"
        }
      ],
      "name": "RoleGranted",
      "type": "event"
    },
    {
      "anonymous": false,
      "inputs": [
        {
          "indexed": true,
          "internalType": "bytes32",
          "name": "role",
          "type": "bytes32"
        },
        {
          "indexed": true,
          "internalType": "address",
          "name": "account",
          "type": "address"
        },
        {
          "indexed": true,
          "internalType": "address",
          "name": "sender",
          "type": "address"
        }
      ],
      "name": "RoleRevoked",
      "type": "event"
    },
    {
      "anonymous": false,
      "inputs": [
        {
          "indexed": false,
          "internalType": "address",
          "name": "account",
          "type": "address"
        },
        {
          "indexed": true,
          "internalType": "uint256",
          "name": "streamShares",
          "type": "uint256"
        },
        {
          "indexed": true,
          "internalType": "uint256",
          "name": "nVEMainTkn",
          "type": "uint256"
        },
        {
          "indexed": true,
          "internalType": "uint256",
          "name": "lockId",
          "type": "uint256"
        }
      ],
      "name": "Staked",
      "type": "event"
    },
    {
      "anonymous": false,
      "inputs": [
        {
          "indexed": true,
          "internalType": "uint256",
          "name": "streamId",
          "type": "uint256"
        },
        {
          "indexed": true,
          "internalType": "address",
          "name": "owner",
          "type": "address"
        },
        {
          "indexed": true,
          "internalType": "address",
          "name": "token",
          "type": "address"
        },
        {
          "indexed": false,
          "internalType": "uint256",
          "name": "tokenAmount",
          "type": "uint256"
        }
      ],
      "name": "StreamCreated",
      "type": "event"
    },
    {
      "anonymous": false,
      "inputs": [
        {
          "indexed": true,
          "internalType": "uint256",
          "name": "streamId",
          "type": "uint256"
        },
        {
          "indexed": true,
          "internalType": "address",
          "name": "streamOwner",
          "type": "address"
        },
        {
          "indexed": false,
          "internalType": "uint256",
          "name": "mainTknStreamOwnerReward",
          "type": "uint256"
        }
      ],
      "name": "StreamOwnerRewardReleased",
      "type": "event"
    },
    {
      "anonymous": false,
      "inputs": [
        {
          "indexed": true,
          "internalType": "uint256",
          "name": "streamId",
          "type": "uint256"
        },
        {
          "indexed": true,
          "internalType": "address",
          "name": "owner",
          "type": "address"
        },
        {
          "indexed": true,
          "internalType": "address",
          "name": "token",
          "type": "address"
        }
      ],
      "name": "StreamProposalCancelled",
      "type": "event"
    },
    {
      "anonymous": false,
      "inputs": [
        {
          "indexed": true,
          "internalType": "uint256",
          "name": "streamId",
          "type": "uint256"
        },
        {
          "indexed": true,
          "internalType": "address",
          "name": "streamOwner",
          "type": "address"
        },
        {
          "indexed": true,
          "internalType": "address",
          "name": "rewardToken",
          "type": "address"
        },
        {
          "indexed": false,
          "internalType": "uint256",
          "name": "maxDepositAmount",
          "type": "uint256"
        }
      ],
      "name": "StreamProposed",
      "type": "event"
    },
    {
      "anonymous": false,
      "inputs": [
        {
          "indexed": true,
          "internalType": "uint256",
          "name": "streamId",
          "type": "uint256"
        },
        {
          "indexed": true,
          "internalType": "address",
          "name": "owner",
          "type": "address"
        },
        {
          "indexed": true,
          "internalType": "address",
          "name": "token",
          "type": "address"
        }
      ],
      "name": "StreamRemoved",
      "type": "event"
    },
    {
      "anonymous": false,
      "inputs": [
        {
          "indexed": true,
          "internalType": "address",
          "name": "oldTreasuryAddress",
          "type": "address"
        },
        {
          "indexed": true,
          "internalType": "address",
          "name": "newTreasuryAddress",
          "type": "address"
        }
      ],
      "name": "TreasuryAddressSet",
      "type": "event"
    },
    {
      "anonymous": false,
      "inputs": [
        {
          "indexed": true,
          "internalType": "address",
          "name": "account",
          "type": "address"
        },
        {
          "indexed": true,
          "internalType": "uint256",
          "name": "amount",
          "type": "uint256"
        },
        {
          "indexed": true,
          "internalType": "uint256",
          "name": "lockId",
          "type": "uint256"
        }
      ],
      "name": "Unstaked",
      "type": "event"
    },
    {
      "inputs": [],
      "name": "DEFAULT_ADMIN_ROLE",
      "outputs": [
        {
          "internalType": "bytes32",
          "name": "",
          "type": "bytes32"
        }
      ],
      "stateMutability": "view",
      "type": "function"
    },
    {
      "inputs": [],
      "name": "GOVERNANCE_ROLE",
      "outputs": [
        {
          "internalType": "bytes32",
          "name": "",
          "type": "bytes32"
        }
      ],
      "stateMutability": "view",
      "type": "function"
    },
    {
      "inputs": [],
      "name": "PAUSE_ROLE",
      "outputs": [
        {
          "internalType": "bytes32",
          "name": "",
          "type": "bytes32"
        }
      ],
      "stateMutability": "view",
      "type": "function"
    },
    {
      "inputs": [],
      "name": "STREAM_MANAGER_ROLE",
      "outputs": [
        {
          "internalType": "bytes32",
          "name": "",
          "type": "bytes32"
        }
      ],
      "stateMutability": "view",
      "type": "function"
    },
    {
      "inputs": [],
      "name": "admin",
      "outputs": [
        {
          "internalType": "address",
          "name": "",
          "type": "address"
        }
      ],
      "stateMutability": "view",
      "type": "function"
    },
    {
      "inputs": [
        {
          "internalType": "uint256",
          "name": "flags",
          "type": "uint256"
        }
      ],
      "name": "adminPause",
      "outputs": [],
      "stateMutability": "nonpayable",
      "type": "function"
    },
    {
      "inputs": [
        {
          "internalType": "uint256",
          "name": "streamId",
          "type": "uint256"
        }
      ],
      "name": "cancelStreamProposal",
      "outputs": [],
      "stateMutability": "nonpayable",
      "type": "function"
    },
    {
      "inputs": [
        {
          "internalType": "uint256",
          "name": "streamId",
          "type": "uint256"
        }
      ],
      "name": "claimAllLockRewardsForStream",
      "outputs": [],
      "stateMutability": "nonpayable",
      "type": "function"
    },
    {
      "inputs": [
        {
          "internalType": "uint256",
          "name": "lockId",
          "type": "uint256"
        }
      ],
      "name": "claimAllRewards",
      "outputs": [],
      "stateMutability": "nonpayable",
      "type": "function"
    },
    {
      "inputs": [
        {
          "internalType": "uint256",
          "name": "streamId",
          "type": "uint256"
        },
        {
          "internalType": "uint256",
          "name": "lockId",
          "type": "uint256"
        }
      ],
      "name": "claimRewards",
      "outputs": [],
      "stateMutability": "nonpayable",
      "type": "function"
    },
    {
      "inputs": [
        {
          "internalType": "uint256",
          "name": "amount",
          "type": "uint256"
        },
        {
          "internalType": "uint256",
          "name": "unlockTime",
          "type": "uint256"
        }
      ],
      "name": "createLock",
      "outputs": [],
      "stateMutability": "nonpayable",
      "type": "function"
    },
    {
      "inputs": [
        {
          "internalType": "uint256",
          "name": "streamId",
          "type": "uint256"
        },
        {
          "internalType": "uint256",
          "name": "rewardTokenAmount",
          "type": "uint256"
        }
      ],
      "name": "createStream",
      "outputs": [],
      "stateMutability": "nonpayable",
      "type": "function"
    },
    {
      "inputs": [
        {
          "internalType": "uint256",
          "name": "lockId",
          "type": "uint256"
        }
      ],
      "name": "earlyUnlock",
      "outputs": [],
      "stateMutability": "nonpayable",
      "type": "function"
    },
    {
      "inputs": [],
      "name": "earlyWithdrawPenaltyWeight",
      "outputs": [
        {
          "internalType": "uint64",
          "name": "",
          "type": "uint64"
        }
      ],
      "stateMutability": "view",
      "type": "function"
    },
    {
      "inputs": [
        {
          "internalType": "address",
          "name": "account",
          "type": "address"
        }
      ],
      "name": "getAllLocks",
      "outputs": [
        {
          "components": [
            {
              "internalType": "uint128",
              "name": "amountOfMAINTkn",
              "type": "uint128"
            },
            {
              "internalType": "uint128",
              "name": "amountOfveMAINTkn",
              "type": "uint128"
            },
            {
              "internalType": "uint128",
              "name": "mainTknShares",
              "type": "uint128"
            },
            {
              "internalType": "uint128",
              "name": "positionStreamShares",
              "type": "uint128"
            },
            {
              "internalType": "uint64",
              "name": "end",
              "type": "uint64"
            },
            {
              "internalType": "address",
              "name": "owner",
              "type": "address"
            }
          ],
          "internalType": "struct LockedBalance[]",
          "name": "",
          "type": "tuple[]"
        }
      ],
      "stateMutability": "view",
      "type": "function"
    },
    {
      "inputs": [
        {
          "internalType": "uint256",
          "name": "streamId",
          "type": "uint256"
        }
      ],
      "name": "getLatestRewardsPerShare",
      "outputs": [
        {
          "internalType": "uint256",
          "name": "",
          "type": "uint256"
        }
      ],
      "stateMutability": "view",
      "type": "function"
    },
    {
      "inputs": [
        {
          "internalType": "address",
          "name": "account",
          "type": "address"
        },
        {
          "internalType": "uint256",
          "name": "lockId",
          "type": "uint256"
        }
      ],
      "name": "getLockInfo",
      "outputs": [
        {
          "components": [
            {
              "internalType": "uint128",
              "name": "amountOfMAINTkn",
              "type": "uint128"
            },
            {
              "internalType": "uint128",
              "name": "amountOfveMAINTkn",
              "type": "uint128"
            },
            {
              "internalType": "uint128",
              "name": "mainTknShares",
              "type": "uint128"
            },
            {
              "internalType": "uint128",
              "name": "positionStreamShares",
              "type": "uint128"
            },
            {
              "internalType": "uint64",
              "name": "end",
              "type": "uint64"
            },
            {
              "internalType": "address",
              "name": "owner",
              "type": "address"
            }
          ],
          "internalType": "struct LockedBalance",
          "name": "",
          "type": "tuple"
        }
      ],
      "stateMutability": "view",
      "type": "function"
    },
    {
      "inputs": [
        {
          "internalType": "uint256",
          "name": "streamId",
          "type": "uint256"
        },
        {
          "internalType": "address",
          "name": "account",
          "type": "address"
        }
      ],
      "name": "getPending",
      "outputs": [
        {
          "internalType": "uint256",
          "name": "",
          "type": "uint256"
        }
      ],
      "stateMutability": "view",
      "type": "function"
    },
    {
      "inputs": [
        {
          "internalType": "bytes32",
          "name": "role",
          "type": "bytes32"
        }
      ],
      "name": "getRoleAdmin",
      "outputs": [
        {
          "internalType": "bytes32",
          "name": "",
          "type": "bytes32"
        }
      ],
      "stateMutability": "view",
      "type": "function"
    },
    {
      "inputs": [
        {
          "internalType": "uint256",
          "name": "streamId",
          "type": "uint256"
        },
        {
          "internalType": "address",
          "name": "account",
          "type": "address"
        },
        {
          "internalType": "uint256",
          "name": "lockId",
          "type": "uint256"
        }
      ],
      "name": "getStreamClaimableAmountPerLock",
      "outputs": [
        {
          "internalType": "uint256",
          "name": "",
          "type": "uint256"
        }
      ],
      "stateMutability": "view",
      "type": "function"
    },
    {
      "inputs": [
        {
          "internalType": "address",
          "name": "account",
          "type": "address"
        },
        {
          "internalType": "uint256",
          "name": "streamId",
          "type": "uint256"
        }
      ],
      "name": "getUsersPendingRewards",
      "outputs": [
        {
          "internalType": "uint256",
          "name": "",
          "type": "uint256"
        }
      ],
      "stateMutability": "view",
      "type": "function"
    },
    {
      "inputs": [],
      "name": "govnContract",
      "outputs": [
        {
          "internalType": "address",
          "name": "",
          "type": "address"
        }
      ],
      "stateMutability": "view",
      "type": "function"
    },
    {
      "inputs": [
        {
          "internalType": "bytes32",
          "name": "role",
          "type": "bytes32"
        },
        {
          "internalType": "address",
          "name": "account",
          "type": "address"
        }
      ],
      "name": "grantRole",
      "outputs": [],
      "stateMutability": "nonpayable",
      "type": "function"
    },
    {
      "inputs": [
        {
          "internalType": "bytes32",
          "name": "role",
          "type": "bytes32"
        },
        {
          "internalType": "address",
          "name": "account",
          "type": "address"
        }
      ],
      "name": "hasRole",
      "outputs": [
        {
          "internalType": "bool",
          "name": "",
          "type": "bool"
        }
      ],
      "stateMutability": "view",
      "type": "function"
    },
    {
      "inputs": [
        {
          "internalType": "address",
          "name": "_vault",
          "type": "address"
        },
        {
          "internalType": "address",
          "name": "_mainTkn",
          "type": "address"
        },
        {
          "internalType": "address",
          "name": "_veMAINTkn",
          "type": "address"
        },
        {
          "components": [
            {
              "internalType": "uint32",
              "name": "maxWeightShares",
              "type": "uint32"
            },
            {
              "internalType": "uint32",
              "name": "minWeightShares",
              "type": "uint32"
            },
            {
              "internalType": "uint32",
              "name": "maxWeightPenalty",
              "type": "uint32"
            },
            {
              "internalType": "uint32",
              "name": "minWeightPenalty",
              "type": "uint32"
            },
            {
              "internalType": "uint32",
              "name": "penaltyWeightMultiplier",
              "type": "uint32"
            }
          ],
          "internalType": "struct Weight",
          "name": "_weight",
          "type": "tuple"
        },
        {
          "internalType": "address",
          "name": "streamOwner",
          "type": "address"
        },
        {
          "internalType": "uint256[]",
          "name": "scheduleTimes",
          "type": "uint256[]"
        },
        {
          "internalType": "uint256[]",
          "name": "scheduleRewards",
          "type": "uint256[]"
        },
        {
          "internalType": "uint256",
          "name": "tau",
          "type": "uint256"
        },
        {
          "internalType": "uint256",
          "name": "_voteShareCoef",
          "type": "uint256"
        },
        {
          "internalType": "uint256",
          "name": "_voteLockWeight",
          "type": "uint256"
        },
        {
          "internalType": "uint256",
          "name": "_maxLocks",
          "type": "uint256"
        }
      ],
      "name": "initializeStaking",
      "outputs": [],
      "stateMutability": "nonpayable",
      "type": "function"
    },
    {
      "inputs": [],
      "name": "mainTkn",
      "outputs": [
        {
          "internalType": "address",
          "name": "",
          "type": "address"
        }
      ],
      "stateMutability": "view",
      "type": "function"
    },
    {
      "inputs": [],
      "name": "maxLockPositions",
      "outputs": [
        {
          "internalType": "uint256",
          "name": "",
          "type": "uint256"
        }
      ],
      "stateMutability": "view",
      "type": "function"
    },
    {
      "inputs": [],
      "name": "paused",
      "outputs": [
        {
          "internalType": "uint256",
          "name": "",
          "type": "uint256"
        }
      ],
      "stateMutability": "view",
      "type": "function"
    },
    {
      "inputs": [
        {
          "internalType": "address",
          "name": "streamOwner",
          "type": "address"
        },
        {
          "internalType": "address",
          "name": "rewardToken",
          "type": "address"
        },
        {
          "internalType": "uint256",
          "name": "maxDepositAmount",
          "type": "uint256"
        },
        {
          "internalType": "uint256",
          "name": "minDepositAmount",
          "type": "uint256"
        },
        {
          "internalType": "uint256[]",
          "name": "scheduleTimes",
          "type": "uint256[]"
        },
        {
          "internalType": "uint256[]",
          "name": "scheduleRewards",
          "type": "uint256[]"
        },
        {
          "internalType": "uint256",
          "name": "tau",
          "type": "uint256"
        }
      ],
      "name": "proposeStream",
      "outputs": [],
      "stateMutability": "nonpayable",
      "type": "function"
    },
    {
      "inputs": [
        {
          "internalType": "uint256",
          "name": "streamId",
          "type": "uint256"
        },
        {
          "internalType": "address",
          "name": "streamFundReceiver",
          "type": "address"
        }
      ],
      "name": "removeStream",
      "outputs": [],
      "stateMutability": "nonpayable",
      "type": "function"
    },
    {
      "inputs": [
        {
          "internalType": "bytes32",
          "name": "role",
          "type": "bytes32"
        },
        {
          "internalType": "address",
          "name": "account",
          "type": "address"
        }
      ],
      "name": "renounceRole",
      "outputs": [],
      "stateMutability": "nonpayable",
      "type": "function"
    },
    {
      "inputs": [
        {
          "internalType": "bytes32",
          "name": "role",
          "type": "bytes32"
        },
        {
          "internalType": "address",
          "name": "account",
          "type": "address"
        }
      ],
      "name": "revokeRole",
      "outputs": [],
      "stateMutability": "nonpayable",
      "type": "function"
    },
    {
      "inputs": [
        {
          "internalType": "bool",
          "name": "_flag",
          "type": "bool"
        }
      ],
      "name": "setEarlyWithdrawalFlag",
      "outputs": [],
      "stateMutability": "nonpayable",
      "type": "function"
    },
    {
      "inputs": [
        {
          "internalType": "address",
          "name": "_govnContract",
          "type": "address"
        }
      ],
      "name": "setGovernanceContract",
      "outputs": [],
      "stateMutability": "nonpayable",
      "type": "function"
    },
    {
      "inputs": [
        {
          "internalType": "uint8",
          "name": "_maxLockPositions",
          "type": "uint8"
        }
      ],
      "name": "setMaxLockPositions",
      "outputs": [],
      "stateMutability": "nonpayable",
      "type": "function"
    },
    {
      "inputs": [
        {
          "internalType": "address",
          "name": "_treasury",
          "type": "address"
        }
      ],
      "name": "setTreasuryAddress",
      "outputs": [],
      "stateMutability": "nonpayable",
      "type": "function"
    },
    {
      "inputs": [
        {
          "internalType": "bytes4",
          "name": "interfaceId",
          "type": "bytes4"
        }
      ],
      "name": "supportsInterface",
      "outputs": [
        {
          "internalType": "bool",
          "name": "",
          "type": "bool"
        }
      ],
      "stateMutability": "view",
      "type": "function"
    },
    {
      "inputs": [],
      "name": "totalAmountOfStakedMAINTkn",
      "outputs": [
        {
          "internalType": "uint256",
          "name": "",
          "type": "uint256"
        }
      ],
      "stateMutability": "view",
      "type": "function"
    },
    {
      "inputs": [],
      "name": "totalAmountOfveMAINTkn",
      "outputs": [
        {
          "internalType": "uint256",
          "name": "",
          "type": "uint256"
        }
      ],
      "stateMutability": "view",
      "type": "function"
    },
    {
      "inputs": [],
      "name": "totalMAINTknShares",
      "outputs": [
        {
          "internalType": "uint256",
          "name": "",
          "type": "uint256"
        }
      ],
      "stateMutability": "view",
      "type": "function"
    },
    {
      "inputs": [],
      "name": "totalPenaltyBalance",
      "outputs": [
        {
          "internalType": "uint256",
          "name": "",
          "type": "uint256"
        }
      ],
      "stateMutability": "view",
      "type": "function"
    },
    {
      "inputs": [],
      "name": "totalStreamShares",
      "outputs": [
        {
          "internalType": "uint256",
          "name": "",
          "type": "uint256"
        }
      ],
      "stateMutability": "view",
      "type": "function"
    },
    {
      "inputs": [
        {
          "internalType": "uint256",
          "name": "lockId",
          "type": "uint256"
        }
      ],
      "name": "unlock",
      "outputs": [],
      "stateMutability": "nonpayable",
      "type": "function"
    },
    {
      "inputs": [
        {
          "internalType": "address",
          "name": "",
          "type": "address"
        }
      ],
      "name": "users",
      "outputs": [
        {
          "internalType": "uint128",
          "name": "veMAINTknBalance",
          "type": "uint128"
        },
        {
          "internalType": "uint128",
          "name": "veMAINTknReleased",
          "type": "uint128"
        }
      ],
      "stateMutability": "view",
      "type": "function"
    },
    {
      "inputs": [],
      "name": "vault",
      "outputs": [
        {
          "internalType": "address",
          "name": "",
          "type": "address"
        }
      ],
      "stateMutability": "view",
      "type": "function"
    },
    {
      "inputs": [],
      "name": "veMAINTkn",
      "outputs": [
        {
          "internalType": "address",
          "name": "",
          "type": "address"
        }
      ],
      "stateMutability": "view",
      "type": "function"
    },
    {
      "inputs": [],
      "name": "voteLockWeight",
      "outputs": [
        {
          "internalType": "uint256",
          "name": "",
          "type": "uint256"
        }
      ],
      "stateMutability": "view",
      "type": "function"
    },
    {
      "inputs": [
        {
          "internalType": "uint256",
          "name": "streamId",
          "type": "uint256"
        }
      ],
      "name": "withdraw",
      "outputs": [],
      "stateMutability": "nonpayable",
      "type": "function"
    },
    {
      "inputs": [],
      "name": "withdrawAll",
      "outputs": [],
      "stateMutability": "nonpayable",
      "type": "function"
    },
    {
      "inputs": [
        {
          "internalType": "address",
          "name": "penaltyReceiver",
          "type": "address"
        }
      ],
      "name": "withdrawPenalty",
      "outputs": [],
      "stateMutability": "nonpayable",
      "type": "function"
    }
  ],
  "bytecode": "0x608060405234801561001057600080fd5b506001601455615f5680620000266000396000f3fe608060405234801561001057600080fd5b50600436106102d65760003560e01c80636605bfda11610182578063a217fddf116100e9578063d547741f116100a2578063f36c8f5c1161007c578063f36c8f5c146106e9578063f6040373146106fe578063f851a44014610707578063fbfa77cf1461071a57600080fd5b8063d547741f146106b0578063ddcf3e29146106c3578063eb55a47c146106d657600080fd5b8063a217fddf14610617578063a87430ba1461061f578063a8d85f7014610661578063b52c05fe14610681578063cb6a496d14610694578063cedb66681461069d57600080fd5b8063853828b61161013b578063853828b6146105895780638659ef62146105915780638d40bd03146105a457806390403322146105b757806391132812146105ca57806391d148541461060457600080fd5b80636605bfda146104fd578063670d2dfc146105105780636db8e53d146105235780637e5839131461052c5780637ebd739f1461053f5780637f37df3b1461055257600080fd5b80632f2ff15d116102415780633a3f1511116101fa57806355021b3a116101d457806355021b3a146104bb578063594dd432146104ce5780635c975abb146104e15780636198e339146104ea57600080fd5b80633a3f15111461048a5780633ba31abf146104935780633ea005c8146104a657600080fd5b80632f2ff15d146103fa578063338e30781461040d57806336085c511461043457806336568abe14610447578063369bd2c51461045a578063389ed2671461046357600080fd5b8063248a9ca311610293578063248a9ca3146103785780632692c59f1461039b578063277d96b7146103ae5780632851ed12146103c15780632b6a7221146103d45780632e1a7d4d146103e757600080fd5b806301ffc9a7146102db5780631129753f1461030457806315b9672c14610319578063160d3fee1461033957806319e220a41461034f5780631f5b2ac01461036f575b600080fd5b6102ee6102e9366004614661565b61072d565b6040516102fb9190614694565b60405180910390f35b6103176103123660046146c7565b610764565b005b61032c6103273660046146f9565b6107b7565b6040516102fb91906147cd565b61034260035481565b6040516102fb91906147e1565b600c54610362906001600160a01b031681565b6040516102fb91906147ef565b61034260055481565b6103426103863660046147fd565b60009081526015602052604090206001015490565b6103176103a93660046147fd565b6108e3565b6103426103bc3660046147fd565b61091c565b6103176103cf3660046149c0565b610927565b6103176103e23660046146c7565b610d10565b6103176103f53660046147fd565b610d8f565b610317610408366004614ae9565b610e0f565b60085461042790600160a01b90046001600160401b031681565b6040516102fb9190614b1c565b6103176104423660046147fd565b610e34565b610317610455366004614ae9565b61100a565b610342600a5481565b6103427f139c2898040ef16910dc9f44dc697df79363da767d8bc92f2e310312b816e46d81565b61034260125481565b6103176104a1366004614ae9565b61103c565b610342600080516020615f0183398151915281565b6103176104c9366004614b2a565b6111db565b6103176104dc366004614bfd565b611490565b61034260175481565b6103176104f83660046147fd565b611509565b61031761050b3660046146c7565b6116a2565b61031761051e366004614c32565b61170d565b61034260045481565b601354610362906001600160a01b031681565b61031761054d3660046147fd565b61177d565b610342610560366004614ae9565b6001600160a01b03166000908152600e6020908152604080832093835260019093019052205490565b6103176117f5565b600b54610362906001600160a01b031681565b6103176105b2366004614bfd565b61189d565b6103176105c53660046147fd565b611b02565b6103426105d83660046146f9565b6001600160a01b03919091166000908152600e6020908152604080832093835260019093019052205490565b6102ee610612366004614ae9565b611bcc565b610342600081565b61065361062d3660046146c7565b600e602052600090815260409020546001600160801b0380821691600160801b90041682565b6040516102fb929190614c53565b61067461066f3660046146c7565b611bf7565b6040516102fb9190614ccb565b61031761068f366004614bfd565b611ccd565b61034260025481565b6103176106ab3660046147fd565b611eb5565b6103176106be366004614ae9565b611efe565b6103426106d1366004614cdc565b611f23565b6103176106e4366004614d40565b61202c565b610342600080516020615ee183398151915281565b61034260075481565b601654610362906001600160a01b031681565b600d54610362906001600160a01b031681565b60006001600160e01b03198216637965db0b60e01b148061075e57506301ffc9a760e01b6001600160e01b03198316145b92915050565b600080516020615ee183398151915261077c8161206a565b610794600080516020615ee183398151915283612074565b50601380546001600160a01b0319166001600160a01b0392909216919091179055565b6040805160c08101825260008082526020808301829052828401829052606083018290526080830182905260a083018290526001600160a01b03861682526010905291909120548211156108265760405162461bcd60e51b815260040161081d90614d87565b60405180910390fd5b6001600160a01b0383166000908152601060205260409020610849600184614dad565b8154811061085957610859614dc8565b60009182526020918290206040805160c08101825260039390930290910180546001600160801b038082168552600160801b9182900481169585019590955260018201548086169385019390935290910490921660608201526002909101546001600160401b0381166080830152600160401b90046001600160a01b031660a08201529392505050565b60175481811614806108fb57506108fb600033611bcc565b6109175760405162461bcd60e51b815260040161081d90614e0b565b601755565b600061075e826120fa565b60005460ff161561094a5760405162461bcd60e51b815260040161081d90614e45565b61098d878b8760008151811061096257610962614dc8565b60200260200101518860008151811061097d5761097d614dc8565b60200260200101518a8a8a61217e565b61099c8a8a8a8e878787612424565b600d54604051630480051d60e31b81526001600160a01b039091169063240028e8906109cc908d906004016147ef565b602060405180830381865afa1580156109e9573d6000803e3d6000fd5b505050506040513d601f19601f82011682018060405250810190610a0d9190614e60565b610a295760405162461bcd60e51b815260040161081d90614ea9565b610a3360006125e7565b610a4b600080516020615f0183398151915233612074565b610a63600080516020615ee183398151915233612074565b6000806040518060400160405280898152602001888152509050600f6040518061016001604052808b6001600160a01b031681526020018b6001600160a01b03168152602001600b60009054906101000a90046001600160a01b03166001600160a01b031681526020016000815260200160008152602001600081526020016000815260200188815260200160008152602001838152602001600280811115610b0e57610b0e614eb9565b905281546001808201845560009384526020938490208351600c9093020180546001600160a01b03199081166001600160a01b0394851617825584860151928201805482169385169390931790925560408401516002820180549093169316929092179055606082015160038201556080820151600482015560a0820151600582015560c0820151600682015560e082015160078201556101008201516008820155610120820151805180519394929391926009850192610bd292849201906145e8565b506020828101518051610beb92600185019201906145e8565b505050610140820151600b8201805460ff19166001836002811115610c1257610c12614eb9565b0217905550506013805460ff60a01b1916600160a01b179055506000805460ff1916600117815587516001600160a01b03808f1692908c169185917f16284487ea0f1368a3aac8128c3dd7d8e577839303a834c010386a8aea226570918c9190610c7e57610c7e614dc8565b6020026020010151604051610c9391906147e1565b60405180910390a48b6001600160a01b0316896001600160a01b0316837f4396d7c3edc1447dac8dd2b7143af95840c926a210524a0d3198012c7fdf37c78a600081518110610ce457610ce4614dc8565b6020026020010151604051610cf991906147e1565b60405180910390a450505050505050505050505050565b6001806017541660001480610d2b5750610d2b600033611bcc565b610d475760405162461bcd60e51b815260040161081d90614ef5565b600080516020615ee1833981519152610d5f8161206a565b600060075411610d815760405162461bcd60e51b815260040161081d90614f26565b610d8a83612651565b505050565b6001806017541660001480610daa5750610daa600033611bcc565b610dc65760405162461bcd60e51b815260040161081d90614ef5565b336000908152600e602090815260408083208584526002019091529020544211610e025760405162461bcd60e51b815260040161081d90614f5d565b610e0b826126e2565b5050565b600082815260156020526040902060010154610e2a8161206a565b610d8a8383612074565b610e3c6127db565b6001806017541660001480610e575750610e57600033611bcc565b610e735760405162461bcd60e51b815260040161081d90614ef5565b601354600160a01b900460ff161515600114610ea15760405162461bcd60e51b815260040161081d90614f95565b81600003610ec15760405162461bcd60e51b815260040161081d90614fc4565b33600090815260106020526040902054821115610ef05760405162461bcd60e51b815260040161081d90614ff9565b336000908152601060205260408120610f0a600185614dad565b81548110610f1a57610f1a614dc8565b6000918252602090912060039091020180549091506001600160801b0316610f545760405162461bcd60e51b815260040161081d9061502e565b6002810154426001600160401b0390911611610f825760405162461bcd60e51b815260040161081d90615060565b6002810154600160401b90046001600160a01b03163314610fb55760405162461bcd60e51b815260040161081d90615090565b610fbd612804565b600354600182015460025460009291610fe1916001600160801b03909116906150a0565b610feb91906150d5565b9050610ffa84828385336128e5565b5050506110076001601455565b50565b6001600160a01b03811633146110325760405162461bcd60e51b815260040161081d90615138565b610e0b82826129bd565b600080516020615f018339815191526110548161206a565b826000036110745760405162461bcd60e51b815260040161081d90615167565b6000600f848154811061108957611089614dc8565b60009182526020909120600c9091020190506002600b82015460ff1660028111156110b6576110b6614eb9565b146110d35760405162461bcd60e51b815260040161081d90615197565b600b8101805460ff19169055600481015460038201546000916110f591614dad565b6002830154909150600090611112906001600160a01b0316612a24565b600d5460028501549192506001600160a01b039081169163da0c1a8891889116848611156111405784611142565b855b6040518463ffffffff1660e01b8152600401611160939291906151a7565b600060405180830381600087803b15801561117a57600080fd5b505af115801561118e573d6000803e3d6000fd5b505050600284015484546040516001600160a01b03928316935091169088907f661da9ced4b5d786f5b5f451a5f68af24721a01b0a65bb47fa4fdf70b80b887c90600090a4505050505050565b600080516020615f018339815191526111f38161206a565b6112028888888888888861217e565b600d54604051630480051d60e31b81526001600160a01b039091169063240028e890611232908a906004016147ef565b602060405180830381865afa15801561124f573d6000803e3d6000fd5b505050506040513d601f19601f820116820180604052508101906112739190614e60565b61128f5760405162461bcd60e51b815260040161081d906151f5565b600060405180604001604052808681526020018581525090506000600f805490509050600f6040518061016001604052808c6001600160a01b03168152602001336001600160a01b031681526020018b6001600160a01b0316815260200160008152602001600081526020018a8152602001898152602001868152602001600081526020018481526020016001600281111561132d5761132d614eb9565b905281546001808201845560009384526020938490208351600c9093020180546001600160a01b03199081166001600160a01b0394851617825584860151928201805482169385169390931790925560408401516002820180549093169316929092179055606082015160038201556080820151600482015560a0820151600582015560c0820151600682015560e0820151600782015561010082015160088201556101208201518051805193949293919260098501926113f192849201906145e8565b50602082810151805161140a92600185019201906145e8565b505050610140820151600b8201805460ff1916600183600281111561143157611431614eb9565b02179055505050886001600160a01b03168a6001600160a01b0316827f16284487ea0f1368a3aac8128c3dd7d8e577839303a834c010386a8aea2265708b60405161147c91906147e1565b60405180910390a450505050505050505050565b60018060175416600014806114ab57506114ab600033611bcc565b6114c75760405162461bcd60e51b815260040161081d90614ef5565b336000908152601060205260409020548211156114f65760405162461bcd60e51b815260040161081d90614ff9565b6114fe612804565b610d8a338484612a98565b6115116127db565b600180601754166000148061152c575061152c600033611bcc565b6115485760405162461bcd60e51b815260040161081d90614ef5565b816000036115685760405162461bcd60e51b815260040161081d90614fc4565b336000908152601060205260409020548211156115975760405162461bcd60e51b815260040161081d90614ff9565b3360009081526010602052604081206115b1600185614dad565b815481106115c1576115c1614dc8565b6000918252602090912060039091020180549091506001600160801b03166115fb5760405162461bcd60e51b815260040161081d9061502e565b6002810154426001600160401b03909116111561162a5760405162461bcd60e51b815260040161081d90615229565b6002810154600160401b90046001600160a01b0316331461165d5760405162461bcd60e51b815260040161081d90615090565b611665612804565b600354600182015460025460009291611689916001600160801b03909116906150a0565b61169391906150d5565b9050610ffa8482838533612d6c565b600080516020615ee18339815191526116ba8161206a565b600880546001600160a01b038481166001600160a01b0319831681179093556040519116919082907f1db696c9becb6c7e5b140934fe902d723d35791ef36d36c9b1586f6a502fd29790600090a3505050565b600080516020615ee18339815191526117258161206a565b6013805460ff60a01b198116600160a01b851515818102929092179093556040519290910460ff1691821515907f6cd354be06b6c3ce9871ee8831b718be7a99ce8fe7c914e03ee420fa85bc6a7590600090a3505050565b60018060175416600014806117985750611798600033611bcc565b6117b45760405162461bcd60e51b815260040161081d90614ef5565b336000908152601060205260409020548211156117e35760405162461bcd60e51b815260040161081d90614ff9565b6117eb612804565b610e0b3383612e9b565b60018060175416600014806118105750611810600033611bcc565b61182c5760405162461bcd60e51b815260040161081d90614ef5565b336000908152600e60205260408120600f5490915b81811015611897576000818152600184016020526040902054158015906118775750600081815260028401602052604090205442115b1561188557611885816126e2565b8061188f81615239565b915050611841565b50505050565b60018060175416600014806118b857506118b8600033611bcc565b6118d45760405162461bcd60e51b815260040161081d90614ef5565b6000600f84815481106118e9576118e9614dc8565b60009182526020909120600c9091020190506001600b82015460ff16600281111561191657611916614eb9565b146119335760405162461bcd60e51b815260040161081d9061527c565b428160090160000160008154811061194d5761194d614dc8565b906000526020600020015410156119765760405162461bcd60e51b815260040161081d906152b9565b806005015483111561199a5760405162461bcd60e51b815260040161081d906152ec565b80600601548310156119be5760405162461bcd60e51b815260040161081d9061531e565b600b8101805460ff191660021790556003810183905560058101548310156119ea576119ea8484612f08565b6003810154600a82018054600090611a0457611a04614dc8565b906000526020600020015414611a2c5760405162461bcd60e51b815260040161081d90615358565b600281015481546040516001600160a01b03928316929091169086907f4396d7c3edc1447dac8dd2b7143af95840c926a210524a0d3198012c7fdf37c790611a759088906147e1565b60405180910390a46002810154600d546040516323b872dd60e01b81526001600160a01b03928316926323b872dd92611ab89233929091169088906004016151a7565b6020604051808303816000875af1158015611ad7573d6000803e3d6000fd5b505050506040513d601f19601f82011682018060405250810190611afb9190614e60565b5050505050565b600080516020615f01833981519152611b1a8161206a565b6000600f8381548110611b2f57611b2f614dc8565b60009182526020909120600c9091020190506001600b82015460ff166002811115611b5c57611b5c614eb9565b14611b795760405162461bcd60e51b815260040161081d90615391565b600b8101805460ff19169055600281015481546040516001600160a01b03928316929091169085907ffadbcbd495527ce5e10fd0cceba57d404a4625dd6ce0499c254ac523789ef3ad90600090a4505050565b60009182526015602090815260408084206001600160a01b0393909316845291905290205460ff1690565b6001600160a01b0381166000908152601060209081526040808320805482518185028101850190935280835260609492939192909184015b82821015611cc25760008481526020908190206040805160c0810182526003860290920180546001600160801b038082168552600160801b9182900481168587015260018084015480831695870195909552919093049092166060840152600201546001600160401b0381166080840152600160401b90046001600160a01b031660a08301529083529092019101611c2f565b505050509050919050565b611cd56127db565b6001806017541660001480611cf05750611cf0600033611bcc565b611d0c5760405162461bcd60e51b815260040161081d90614ef5565b601254336000908152601060205260409020541115611d3d5760405162461bcd60e51b815260040161081d906153c1565b60008311611d5d5760405162461bcd60e51b815260040161081d906153f0565b611d664261300e565b81600003611d72574291505b42821015611d925760405162461bcd60e51b815260040161081d90615424565b611da362093a806301e13380615434565b611dad9042615434565b821115611dcc5760405162461bcd60e51b815260040161081d9061546d565b611dd4612804565b6040805160c0810182526000808252602082018190529181018290526060810182905260808101611e0485613051565b6001600160401b03168152602001336001600160a01b03168152509050611e2c33828661307e565b600b54600d546040516323b872dd60e01b81526001600160a01b03928316926323b872dd92611e659233929091169089906004016151a7565b6020604051808303816000875af1158015611e84573d6000803e3d6000fd5b505050506040513d601f19601f82011682018060405250810190611ea89190614e60565b505050610e0b6001601455565b6001806017541660001480611ed05750611ed0600033611bcc565b611eec5760405162461bcd60e51b815260040161081d90614ef5565b611ef4612804565b610e0b3383613225565b600082815260156020526040902060010154611f198161206a565b610d8a83836129bd565b6001600160a01b038216600090815260106020526040812054821115611f5b5760405162461bcd60e51b815260040161081d90614d87565b6000611f66856120fa565b6001600160a01b0385166000908152600e602090815260408083206010909252822092935091611f97600187614dad565b81548110611fa757611fa7614dc8565b600091825260208083208884526003868101835260408086208d8752909352919093205491029091019150611fdb8161300e565b6001820154600160801b90046001600160801b03166c7e37be2022c0914b2680000000816120098488614dad565b61201391906150a0565b61201d91906150d5565b955050505050505b9392505050565b6012805460ff83169182905560405190919082907f46a30b28ed71185fea149df29e60cb4e801e2371324ab100861181aaa4e28b6d90600090a35050565b61100781336133b5565b61207e8282611bcc565b610e0b5760008281526015602090815260408083206001600160a01b03851684529091529020805460ff191660011790556120b63390565b6001600160a01b0316816001600160a01b0316837f2f8788117e7eff1d82e926ec794901d17c78024a50270940304540a733656f0d60405160405180910390a45050565b600060045460000361211e5760405162461bcd60e51b815260040161081d906154b1565b6004546c7e37be2022c0914b268000000061213b84600154613419565b61214591906150a0565b61214f91906150d5565b600f838154811061216257612162614dc8565b90600052602060002090600c02016008015461075e9190615434565b6001600160a01b0387166121a45760405162461bcd60e51b815260040161081d906154ec565b6001600160a01b0386166121ca5760405162461bcd60e51b815260040161081d90615527565b600085116121ea5760405162461bcd60e51b815260040161081d9061555e565b6000841161220a5760405162461bcd60e51b815260040161081d90615595565b8484111561222a5760405162461bcd60e51b815260040161081d906155cf565b8160008151811061223d5761223d614dc8565b602002602001015185146122635760405162461bcd60e51b815260040161081d9061562a565b428360008151811061227757612277614dc8565b60200260200101511161229c5760405162461bcd60e51b815260040161081d9061566c565b81518351146122bd5760405162461bcd60e51b815260040161081d906156bc565b6002835110156122df5760405162461bcd60e51b815260040161081d906156f6565b806000036122ff5760405162461bcd60e51b815260040161081d9061572f565b60015b83518110156123d45783612317600183614dad565b8151811061232757612327614dc8565b602002602001015184828151811061234157612341614dc8565b6020026020010151116123665760405162461bcd60e51b815260040161081d9061576c565b82612372600183614dad565b8151811061238257612382614dc8565b602002602001015183828151811061239c5761239c614dc8565b602002602001015111156123c25760405162461bcd60e51b815260040161081d906157b0565b806123cc81615239565b915050612302565b5081600183516123e49190614dad565b815181106123f4576123f4614dc8565b602002602001015160001461241b5760405162461bcd60e51b815260040161081d906157f4565b50505050505050565b6001600160a01b03871661244a5760405162461bcd60e51b815260040161081d90615829565b6001600160a01b0386166124705760405162461bcd60e51b815260040161081d9061585e565b6001600160a01b0384166124965760405162461bcd60e51b815260040161081d90615893565b846020015163ffffffff16856000015163ffffffff16116124c95760405162461bcd60e51b815260040161081d906158cb565b846060015163ffffffff16856040015163ffffffff16116124fc5760405162461bcd60e51b815260040161081d90615905565b600b80546001600160a01b039889166001600160a01b031991821617909155600c8054978916978216979097179096558451601180546020880151604089015160608a01516080909a015163ffffffff908116600160801b0263ffffffff60801b199b8216600160601b0263ffffffff60601b19938316600160401b02939093166fffffffffffffffff0000000000000000199483166401000000000267ffffffffffffffff199096169290971691909117939093179190911693909317929092179690961617909455600d8054939096169290941691909117909355600992909255600a55601255565b60185460ff161561260a5760405162461bcd60e51b815260040161081d9061593e565b612615600033612074565b61263f7f139c2898040ef16910dc9f44dc697df79363da767d8bc92f2e310312b816e46d33612074565b6017556018805460ff19166001179055565b60078054600091829055600680549192839261266e908490615434565b9091555050600d54600b54604051631b41835160e31b81526001600160a01b039283169263da0c1a88926126ac9287929091169086906004016151a7565b600060405180830381600087803b1580156126c657600080fd5b505af11580156126da573d6000803e3d6000fd5b505050505050565b336000818152600e602090815260408083208584526001810190925280832080549390555190929084907f3bfce8de0db7450cc169b94323c210e69a36c6a4a58c9f5d96bec4973adce392906127399085906147e1565b60405180910390a3600d54600f80546001600160a01b039092169163da0c1a889133918790811061276c5761276c614dc8565b600091825260209091206002600c9092020101546040516001600160e01b031960e085901b1681526127ad92916001600160a01b03169086906004016151a7565b600060405180830381600087803b1580156127c757600080fd5b505af115801561241b573d6000803e3d6000fd5b6002601454036127fd5760405162461bcd60e51b815260040161081d90615982565b6002601455565b426001540361280f57565b600f546003541580159061282257508015155b156128de576128346000600154613419565b600260008282546128459190615434565b90915550600190505b818110156128dc576002600f828154811061286b5761286b614dc8565b60009182526020909120600b600c90920201015460ff16600281111561289357612893614eb9565b036128ca576128a1816120fa565b600f82815481106128b4576128b4614dc8565b90600052602060002090600c0201600801819055505b806128d481615239565b91505061284e565b505b5042600155565b60028201546001600160401b03166129008686868686612d6c565b600061290c824261356d565b90506000620186a061291e88846150a0565b61292891906150d5565b6001600160a01b0385166000908152600e602090815260408083208380526001810190925290912054919250908211156129745760405162461bcd60e51b815260040161081d906159b5565b600080805260018201602052604081208054849290612994908490614dad565b9250508190555081600760008282546129ad9190615434565b9091555050505050505050505050565b6129c78282611bcc565b15610e0b5760008281526015602090815260408083206001600160a01b0385168085529252808320805460ff1916905551339285917ff6391f5c32d9c69d2a47ea670b442974b53935d1edc7fd64eb21e047a839171b9190a45050565b600d546040516370a0823160e01b81526000916001600160a01b03808516926370a0823192612a579216906004016147ef565b602060405180830381865afa158015612a74573d6000803e3d6000fd5b505050506040513d601f19601f8201168201806040525081019061075e91906159d0565b6001600160a01b0383166000908152601060205260408120612abb600184614dad565b81548110612acb57612acb614dc8565b9060005260206000209060030201905082600003612afb5760405162461bcd60e51b815260040161081d90615a18565b6002600f8481548110612b1057612b10614dc8565b60009182526020909120600b600c90920201015460ff166002811115612b3857612b38614eb9565b14612b555760405162461bcd60e51b815260040161081d90615a53565b6001600160a01b0384166000908152600e60205260408120600183015490916001600160801b039091169003612b9d5760405162461bcd60e51b815260040161081d90615a87565b600182015460008481526003830160209081526040808320888452909152812054600f805492936c7e37be2022c0914b268000000093600160801b9091046001600160801b031692919089908110612bf757612bf7614dc8565b90600052602060002090600c020160080154612c139190614dad565b612c1d91906150a0565b612c2791906150d5565b905080600003612c3957505050505050565b600085815260018301602052604081208054839290612c59908490615434565b9091555050600f805486908110612c7257612c72614dc8565b600091825260208083206008600c9093020191909101548683526003850182526040808420898552909252912055600f805486908110612cb457612cb4614dc8565b90600052602060002090600c02016007015442612cd19190615434565b6000868152600284016020526040902055600f805482919087908110612cf957612cf9614dc8565b90600052602060002090600c02016004016000828254612d199190615434565b9091555050600085815260018301602052604080822054905190916001600160a01b0389169188917f5f1c6be51c8ec7fa7e7ddd9f798ec55927b06cfc8d9159987d1ae3358cb10b5991a4505050505050565b6001600160a01b0381166000908152600e602052604090208254600160801b90046001600160801b0316612da08483613635565b612dad8685878a876136c2565b600c546040516370a0823160e01b81526000916001600160a01b0316906370a0823190612dde9087906004016147ef565b602060405180830381865afa158015612dfb573d6000803e3d6000fd5b505050506040513d601f19601f82011682018060405250810190612e1f91906159d0565b905081811015612e2d578091505b600c54604051632770a7eb60e21b81526001600160a01b0390911690639dc29fac90612e5f9087908690600401615a97565b600060405180830381600087803b158015612e7957600080fd5b505af1158015612e8d573d6000803e3d6000fd5b505050505050505050505050565b600f5460015b81811015611897576002600f8281548110612ebe57612ebe614dc8565b60009182526020909120600b600c90920201015460ff166002811115612ee657612ee6614eb9565b03612ef657612ef6848285612a98565b80612f0081615239565b915050612ea1565b6000600f8381548110612f1d57612f1d614dc8565b600091825260208220600a600c90920201015491505b8181101561189757600f8481548110612f4e57612f4e614dc8565b90600052602060002090600c02016005015483600f8681548110612f7457612f74614dc8565b90600052602060002090600c02016009016001018381548110612f9957612f99614dc8565b9060005260206000200154612fae91906150a0565b612fb891906150d5565b600f8581548110612fcb57612fcb614dc8565b90600052602060002090600c02016009016001018281548110612ff057612ff0614dc8565b6000918252602090912001558061300681615239565b915050612f33565b6110078160405160240161302291906147e1565b60408051601f198184030181529190526020810180516001600160e01b031663f82c50f160e01b1790526137f1565b60006001600160401b0382111561307a5760405162461bcd60e51b815260040161081d90615ae6565b5090565b60004283608001516001600160401b03166130999190614dad565b905060006130a8838387613812565b90506130b3816138a0565b846020018181516130c49190615af6565b6001600160801b031690525082156130fb576130df836138a0565b845185906130ee908390615af6565b6001600160801b03169052505b6001600160a01b0385811660008181526010602090815260408083208054600180820183558286528486208c51958d01516001600160801b03968716600160801b9188168202176003909402909101928355938c015160608d01519086169516909302939093179183019190915560808901516002909201805460a08b01516001600160401b039094166001600160e01b031990911617600160401b939096169290920294909417905552546131b3868584846138c9565b81156126da57600c546040516340c10f1960e01b81526001600160a01b03909116906340c10f19906131eb9089908690600401615a97565b600060405180830381600087803b15801561320557600080fd5b505af1158015613219573d6000803e3d6000fd5b50505050505050505050565b806000036132455760405162461bcd60e51b815260040161081d90615a18565b6002600f828154811061325a5761325a614dc8565b60009182526020909120600b600c90920201015460ff16600281111561328257613282614eb9565b1461329f5760405162461bcd60e51b815260040161081d90615a53565b6001600160a01b038216600090815260106020908152604080832080548251818502810185019093528083529192909190849084015b828210156133685760008481526020908190206040805160c0810182526003860290920180546001600160801b038082168552600160801b9182900481168587015260018084015480831695870195909552919093049092166060840152600201546001600160401b0381166080840152600160401b90046001600160a01b031660a083015290835290920191016132d5565b5050825192935050508061338e5760405162461bcd60e51b815260040161081d90615b50565b60015b818111611afb576133a3858583612a98565b806133ad81615239565b915050613391565b6133bf8282611bcc565b610e0b576133d7816001600160a01b03166014613abf565b6133e2836020613abf565b6040516020016133f3929190615bae565b60408051601f198184030181529082905262461bcd60e51b825261081d91600401615c38565b60004282111561343b5760405162461bcd60e51b815260040161081d90615c8b565b42820361344a5750600061075e565b6000600f848154811061345f5761345f614dc8565b90600052602060002090600c020160090160000160008154811061348557613485614dc8565b906000526020600020015490508042116134a357600091505061075e565b6000600f85815481106134b8576134b8614dc8565b90600052602060002090600c02016009016000016001600f87815481106134e1576134e1614dc8565b600091825260209091206009600c9092020101546134ff9190614dad565b8154811061350f5761350f614dc8565b9060005260206000200154905080841061352e5760009250505061075e565b6000808386111561354157859150613545565b8391505b82421015613554575042613557565b50815b613562878383613c2a565b979650505050505050565b6000828161357b8483614dad565b905081841061358f5760009250505061075e565b6135a062093a806301e13380615434565b60115482906135c59063ffffffff600160601b8204811691600160401b900416615c9b565b6011546135df9190600160801b900463ffffffff16615cb2565b63ffffffff166135ef91906150a0565b6135f991906150d5565b60115461361c9063ffffffff600160601b8204811691600160801b900416615cb2565b63ffffffff1661362c9190615434565b95945050505050565b81546001600160801b03808216845560058054600160801b90930490911691829190600090613665908490614dad565b909155505081546000906001600160801b03168210156136985782546136959083906001600160801b0316614dad565b90505b6136a1816138a0565b83546001600160801b0319166001600160801b039190911617909255505050565b6001600160a01b0381166000908152600e6020526040812060028054919286926136ed908490614dad565b9091555050600185015460048054600160801b9092046001600160801b03169160009061371b908490614dad565b90915550506001850154600380546001600160801b0390921691600090613743908490614dad565b9091555050600080805260018201602052604081208054889290613768908490615434565b9091555050600f805460009061378057613780614dc8565b90600052602060002090600c0201600701544261379d9190615434565b6000808052600283016020526040808220929092559051849188916001600160a01b038616917f7fc4727e062e336010f2c282598ef5f14facb3de68cf8195c2f23e1454b2b74e91a46126da818385613f95565b80516a636f6e736f6c652e6c6f67602083016000808483855afa5050505050565b6001600160a01b0381166000908152600e602052604081208161383586866141e4565b9050613840816138a0565b8254839060009061385b9084906001600160801b0316615af6565b92506101000a8154816001600160801b0302191690836001600160801b0316021790555080600560008282546138919190615434565b90915550909695505050505050565b60006001600160801b0382111561307a5760405162461bcd60e51b815260040161081d90615d14565b6001600160a01b0384166000908152600e60209081526040808320601090925282209091906138f9600185614dad565b8154811061390957613909614dc8565b90600052602060002090600302019050600061392486614225565b905085600260008282546139389190615434565b9250508190555080600360008282546139519190615434565b9091555060009050613964828742614286565b905080600460008282546139789190615434565b909155506139879050816138a0565b6001840180546010906139ab908490600160801b90046001600160801b0316615af6565b92506101000a8154816001600160801b0302191690836001600160801b031602179055506139d8826138a0565b6001840180546000906139f59084906001600160801b0316615af6565b82546001600160801b039182166101009390930a928302919092021990911617905550600f5460015b81811015613a7957600f8181548110613a3957613a39614dc8565b600091825260208083206008600c909302019190910154898352600389018252604080842085855290925291205580613a7181615239565b915050613a1e565b508587837fb4caaf29adda3eefee3ad552a8e85058589bf834c7466cae4ee58787f70589ed8c604051613aac91906147ef565b60405180910390a4505050505050505050565b60606000613ace8360026150a0565b613ad9906002615434565b6001600160401b03811115613af057613af061481e565b6040519080825280601f01601f191660200182016040528015613b1a576020820181803683370190505b509050600360fc1b81600081518110613b3557613b35614dc8565b60200101906001600160f81b031916908160001a905350600f60fb1b81600181518110613b6457613b64614dc8565b60200101906001600160f81b031916908160001a9053506000613b888460026150a0565b613b93906001615434565b90505b6001811115613c0b576f181899199a1a9b1b9c1cb0b131b232b360811b85600f1660108110613bc757613bc7614dc8565b1a60f81b828281518110613bdd57613bdd614dc8565b60200101906001600160f81b031916908160001a90535060049490941c93613c0481615d24565b9050613b96565b5083156120255760405162461bcd60e51b815260040161081d90615d6d565b600080600f8581548110613c4057613c40614dc8565b90600052602060002090600c02016009019050600080613c618787876143d1565b9092509050600080828403613d3f5784600101846001613c819190615434565b81548110613c9157613c91614dc8565b9060005260206000200154856001018581548110613cb157613cb1614dc8565b9060005260206000200154613cc69190614dad565b9050846000018481548110613cdd57613cdd614dc8565b60009182526020909120015485613cf5866001615434565b81548110613d0557613d05614dc8565b9060005260206000200154613d1a9190614dad565b613d248989614dad565b613d2e90836150a0565b613d3891906150d5565b9150613f89565b84600101846001613d509190615434565b81548110613d6057613d60614dc8565b9060005260206000200154856001018581548110613d8057613d80614dc8565b9060005260206000200154613d959190614dad565b9050846000018481548110613dac57613dac614dc8565b60009182526020909120015485613dc4866001615434565b81548110613dd457613dd4614dc8565b9060005260206000200154613de99190614dad565b8886613df6876001615434565b81548110613e0657613e06614dc8565b9060005260206000200154613e1b9190614dad565b613e2590836150a0565b613e2f91906150d5565b9150846001018381548110613e4657613e46614dc8565b906000526020600020015485600101856001613e629190615434565b81548110613e7257613e72614dc8565b9060005260206000200154613e879190614dad565b613e919083615434565b915084600101836001613ea49190615434565b81548110613eb457613eb4614dc8565b9060005260206000200154856001018481548110613ed457613ed4614dc8565b9060005260206000200154613ee99190614dad565b9050846000018381548110613f0057613f00614dc8565b60009182526020909120015485613f18856001615434565b81548110613f2857613f28614dc8565b9060005260206000200154613f3d9190614dad565b856000018481548110613f5257613f52614dc8565b906000526020600020015488613f689190614dad565b613f7290836150a0565b613f7c91906150d5565b613f869083615434565b91505b50979650505050505050565b600f546001600160a01b038316600090815260106020526040902054828114801590613fc15750600181115b15614149576001600160a01b0384166000908152601060205260408120613fe9600184614dad565b81548110613ff957613ff9614dc8565b600091825260208083206001600160a01b038916845260109091526040909220600390910290910191508190614030600187614dad565b8154811061404057614040614dc8565b60009182526020909120825460039092020180546001600160801b03199081166001600160801b0393841690811783558454600160801b908190048516810290911783556001808601805482860180549095169087169081178555905483900490951690910290931790556002928301805493909101805467ffffffffffffffff1981166001600160401b03909516948517825591546001600160a01b03600160401b9182900416026001600160e01b0319909216909317179091555b838110156141465760008381526003880160208181526040808420858552825280842054898552928252808420858552909152909120558061413e81615239565b9150506140fd565b50505b60015b8281101561418257600082815260038701602090815260408083208484529091528120558061417a81615239565b91505061414c565b506001600160a01b03841660009081526010602052604090208054806141aa576141aa615d7d565b600082815260208120600360001990930192830201818155600181019190915560020180546001600160e01b031916905590555050505050565b6000670de0b6b3a7640000600a54670de0b6b3a7640000848661420791906150a0565b61421191906150a0565b61421b91906150d5565b61202591906150d5565b6003546000908190810361423a57508161075e565b60006003548461424a91906150a0565b90506002548161425a91906150d5565b9150806002548361426b91906150a0565b101561427f5761427c600183615434565b91505b5092915050565b6000806103e88460095461429a91906150a0565b6142a491906150d5565b6142ae9086615434565b9050600062282072600f6000815481106142ca576142ca614dc8565b90600052602060002090600c02016009016000016000815481106142f0576142f0614dc8565b90600052602060002001546143059190615434565b905060006143176301e1338083615434565b905081851161433d576011546143339063ffffffff16846150a0565b9350505050612025565b80851061435f5760115461433390640100000000900463ffffffff16846150a0565b6143698282614dad565b6143738683614dad565b6011546143909063ffffffff640100000000820481169116615c9b565b6143a09063ffffffff16866150a0565b6143aa91906150a0565b6143b491906150d5565b6011546143c79063ffffffff16856150a0565b6135629190615434565b6000806000600f86815481106143e9576143e9614dc8565b600091825260209091206009600c909202010180549091508061441e5760405162461bcd60e51b815260040161081d90615dc0565b85851161443d5760405162461bcd60e51b815260040161081d90615e04565b8160000160008154811061445357614453614dc8565b906000526020600020015486101561447d5760405162461bcd60e51b815260040161081d90615e48565b81614489600183614dad565b8154811061449957614499614dc8565b90600052602060002001548511156144c35760405162461bcd60e51b815260040161081d90615e8c565b60015b81811015614519578260000181815481106144e3576144e3614dc8565b906000526020600020015487101561450757614500600182614dad565b9450614519565b8061451181615239565b9150506144c6565b5081614526600183614dad565b8154811061453657614536614dc8565b9060005260206000200154850361455957614552600282614dad565b92506145be565b6000614566856001615434565b90505b818110156145bc5782600001818154811061458657614586614dc8565b90600052602060002001548610156145aa576145a3600182614dad565b93506145bc565b806145b481615239565b915050614569565b505b828411156145de5760405162461bcd60e51b815260040161081d90615ed0565b5050935093915050565b828054828255906000526020600020908101928215614623579160200282015b82811115614623578251825591602001919060010190614608565b5061307a9291505b8082111561307a576000815560010161462b565b6001600160e01b031981165b811461100757600080fd5b803561075e8161463f565b60006020828403121561467657614676600080fd5b60006146828484614656565b949350505050565b8015155b82525050565b6020810161075e828461468a565b60006001600160a01b03821661075e565b61464b816146a2565b803561075e816146b3565b6000602082840312156146dc576146dc600080fd5b600061468284846146bc565b8061464b565b803561075e816146e8565b6000806040838503121561470f5761470f600080fd5b600061471b85856146bc565b925050602061472c858286016146ee565b9150509250929050565b6001600160801b03811661468e565b6001600160401b03811661468e565b61468e816146a2565b805160c083019061476e8482614736565b5060208201516147816020850182614736565b5060408201516147946040850182614736565b5060608201516147a76060850182614736565b5060808201516147ba6080850182614745565b5060a082015161189760a0850182614754565b60c0810161075e828461475d565b8061468e565b6020810161075e82846147db565b6020810161075e8284614754565b60006020828403121561481257614812600080fd5b600061468284846146ee565b634e487b7160e01b600052604160045260246000fd5b601f19601f83011681018181106001600160401b03821117156148595761485961481e565b6040525050565b600061486b60405190565b90506148778282614834565b919050565b63ffffffff811661464b565b803561075e8161487c565b600060a082840312156148a8576148a8600080fd5b6148b260a0614860565b905060006148c08484614888565b82525060206148d184848301614888565b60208301525060406148e584828501614888565b60408301525060606148f984828501614888565b606083015250608061490d84828501614888565b60808301525092915050565b60006001600160401b038211156149325761493261481e565b5060209081020190565b600061494f61494a84614919565b614860565b8381529050602080820190840283018581111561496e5761496e600080fd5b835b81811015614992578061498388826146ee565b84525060209283019201614970565b5050509392505050565b600082601f8301126149b0576149b0600080fd5b813561468284826020860161493c565b60008060008060008060008060008060006101e08c8e0312156149e5576149e5600080fd5b60006149f18e8e6146bc565b9b50506020614a028e828f016146bc565b9a50506040614a138e828f016146bc565b9950506060614a248e828f01614893565b985050610100614a368e828f016146bc565b9750506101208c01356001600160401b03811115614a5657614a56600080fd5b614a628e828f0161499c565b9650506101408c01356001600160401b03811115614a8257614a82600080fd5b614a8e8e828f0161499c565b955050610160614aa08e828f016146ee565b945050610180614ab28e828f016146ee565b9350506101a0614ac48e828f016146ee565b9250506101c0614ad68e828f016146ee565b9150509295989b509295989b9093969950565b60008060408385031215614aff57614aff600080fd5b6000614b0b85856146ee565b925050602061472c858286016146bc565b6020810161075e8284614745565b600080600080600080600060e0888a031215614b4857614b48600080fd5b6000614b548a8a6146bc565b9750506020614b658a828b016146bc565b9650506040614b768a828b016146ee565b9550506060614b878a828b016146ee565b94505060808801356001600160401b03811115614ba657614ba6600080fd5b614bb28a828b0161499c565b93505060a08801356001600160401b03811115614bd157614bd1600080fd5b614bdd8a828b0161499c565b92505060c0614bee8a828b016146ee565b91505092959891949750929550565b60008060408385031215614c1357614c13600080fd5b600061471b85856146ee565b80151561464b565b803561075e81614c1f565b600060208284031215614c4757614c47600080fd5b60006146828484614c27565b60408101614c618285614736565b6120256020830184614736565b6000614c7a838361475d565b505060c00190565b6000614c8c825190565b80845260209384019383018060005b83811015614cc0578151614caf8882614c6e565b975060208301925050600101614c9b565b509495945050505050565b602080825281016120258184614c82565b600080600060608486031215614cf457614cf4600080fd5b6000614d0086866146ee565b9350506020614d11868287016146bc565b9250506040614d22868287016146ee565b9150509250925092565b60ff811661464b565b803561075e81614d2c565b600060208284031215614d5557614d55600080fd5b60006146828484614d35565b600c81526000602082016b0deeae840decc40d2dcc8caf60a31b815291505b5060200190565b6020808252810161075e81614d61565b634e487b7160e01b600052601160045260246000fd5b6000825b925082821015614dc357614dc3614d97565b500390565b634e487b7160e01b600052603260045260246000fd5b60168152600060208201756f6e6c792061646d696e2063616e20756e706175736560501b81529150614d80565b6020808252810161075e81614dde565b6013815260006020820172105b1c9958591e481a5b9d1a585a5b1a5cd959606a1b81529150614d80565b6020808252810161075e81614e1b565b805161075e81614c1f565b600060208284031215614e7557614e75600080fd5b60006146828484614e55565b60118152600060208201702ab739bab83837b93a32b2103a37b5b2b760791b81529150614d80565b6020808252810161075e81614e81565b634e487b7160e01b600052602160045260246000fd5b600f81526000602082016e1c185d5cd9590818dbdb9d1c9858dd608a1b81529150614d80565b6020808252810161075e81614ecf565b600a8152600060208201696e6f2070656e616c747960b01b81529150614d80565b6020808252810161075e81614f05565b601081526000602082016f1b9bdd081c995b19585cd959081e595d60821b81529150614d80565b6020808252810161075e81614f36565b60118152600060208201706e6f206561726c7920776974686472617760781b81529150614d80565b6020808252810161075e81614f6d565b600881526000602082016706c6f636b496420360c41b81529150614d80565b6020808252810161075e81614fa5565b600e81526000602082016d1a5b9d985b1a59081b1bd8dada5960921b81529150614d80565b6020808252810161075e81614fd4565b600e81526000602082016d1b9bc81b1bd8dac8185b5bdd5b9d60921b81529150614d80565b6020808252810161075e81615009565b600b81526000602082016a1b1bd8dac81bdc195b995960aa1b81529150614d80565b6020808252810161075e8161503e565b60098152600060208201683130b21037bbb732b960b91b81529150614d80565b6020808252810161075e81615070565b60008160001904831182151516156150ba576150ba614d97565b500290565b634e487b7160e01b600052601260045260246000fd5b6000826150e4576150e46150bf565b500490565b602f81526000602082017f416363657373436f6e74726f6c3a2063616e206f6e6c792072656e6f756e636581526e103937b632b9903337b91039b2b63360891b602082015291505b5060400190565b6020808252810161075e816150e9565b6008815260006020820167053747265616d20360c41b81529150614d80565b6020808252810161075e81615148565b60098152600060208201684e6f2053747265616d60b81b81529150614d80565b6020808252810161075e81615177565b606081016151b58286614754565b6151c26020830185614754565b61468260408301846147db565b600f81526000602082016e2ab739bab83837b93a102a37b5b2b760891b81529150614d80565b6020808252810161075e816151cf565b600d81526000602082016c3637b1b5903737ba1037b832b760991b81529150614d80565b6020808252810161075e81615205565b6000600019820361524c5761524c614d97565b5060010190565b601281526000602082017114dd1c99585b481b9d081c1c9bdc1bdcd95960721b81529150614d80565b6020808252810161075e81615253565b601681526000602082017553747265616d2070726f706f73616c2065787069726560501b81529150614d80565b6020808252810161075e8161528c565b600c81526000602082016b0a4caeec2e4c8e640d0d2ced60a31b81529150614d80565b6020808252810161075e816152c9565b600b81526000602082016a52657761726473206c6f7760a81b81529150614d80565b6020808252810161075e816152fc565b60138152600060208201721a5b9d985b1a59081cdd185c9d081c1bda5b9d606a1b81529150614d80565b6020808252810161075e8161532e565b60128152600060208201711cdd1c99585b481b9d081c1c9bdc1bdcd95960721b81529150614d80565b6020808252810161075e81615368565b60098152600060208201686d6178206c6f636b7360b81b81529150614d80565b6020808252810161075e816153a1565b60088152600060208201670616d6f756e7420360c41b81529150614d80565b6020808252810161075e816153d1565b600d81526000602082016c626164206c6f636b2074696d6560981b81529150614d80565b6020808252810161075e81615400565b6000821982111561544757615447614d97565b500190565b600a81526000602082016936b0bc1018903cb2b0b960b11b81529150614d80565b6020808252810161075e8161544c565b601981526000602082017f4e6f2053747265616d205368617265732074696c6c206e6f770000000000000081529150614d80565b6020808252810161075e8161547d565b601481526000602082017324b73b30b634b21029ba3932b0b69027bbb732b960611b81529150614d80565b6020808252810161075e816154c1565b601481526000602082017324b73b30b634b2102932bbb0b932102a37b5b2b760611b81529150614d80565b6020808252810161075e816154fc565b601081526000602082016f16995c9bc813585e0811195c1bdcda5d60821b81529150614d80565b6020808252810161075e81615537565b601081526000602082016f16995c9bc8135a5b8811195c1bdcda5d60821b81529150614d80565b6020808252810161075e8161556e565b6013815260006020820172125b9d985b1a5908135a5b8811195c1bdcda5d606a1b81529150614d80565b6020808252810161075e816155a5565b602e81526000602082017f4d6178204465706f736974204d75737420457175616c2066697273742053636881526d6564756c6564207265776172647360901b60208201529150615131565b6020808252810161075e816155df565b60208082527f496e76616c69642050726f706f73616c2045787069726174696f6e204461746591019081526000614d80565b6020808252810161075e8161563a565b602381526000602082017f496e76616c6964205363686564756c65732c206c656e677468206e6f742065718152621d585b60ea1b60208201529150615131565b6020808252810161075e8161567c565b60138152600060208201720814d8da19591d5b195cc81d1bc814da1bdc9d606a1b81529150614d80565b6020808252810161075e816156cc565b6012815260006020820171125b9d985b1a590815185d4814195c9a5bd960721b81529150614d80565b6020808252810161075e81615706565b6016815260006020820175496e76616c6964207363686564756c652074696d657360501b81529150614d80565b6020808252810161075e8161573f565b601881526000602082017f496e76616c6964205363686564756c652052657761726473000000000000000081529150614d80565b6020808252810161075e8161577c565b601c81526000602082017f496e76616c6964205363686564756c6520456e6420526577617264730000000081529150614d80565b6020808252810161075e816157c0565b600e81526000602082016d6d61696e2061646472207a65726f60901b81529150614d80565b6020808252810161075e81615804565b600e81526000602082016d766f74652061646472207a65726f60901b81529150614d80565b6020808252810161075e81615839565b600e81526000602082016d7661756c7441646472207a65726f60901b81529150614d80565b6020808252810161075e8161586e565b6011815260006020820170696e76616c69642073686172652077747360781b81529150614d80565b6020808252810161075e816158a3565b6013815260006020820172696e76616c69642070656e616c74792077747360681b81529150614d80565b6020808252810161075e816158db565b6012815260006020820171185b1c9958591e481a5b9d1a585b1a5e995960721b81529150614d80565b6020808252810161075e81615915565b601f81526000602082017f5265656e7472616e637947756172643a207265656e7472616e742063616c6c0081529150614d80565b6020808252810161075e8161594e565b600c81526000602082016b0e0cadcc2d8e8f240d0d2ced60a31b81529150614d80565b6020808252810161075e81615992565b805161075e816146e8565b6000602082840312156159e5576159e5600080fd5b600061468284846159c5565b601081526000602082016f149155d0549114d7d0d3d35413d5539160821b81529150614d80565b6020808252810161075e816159f1565b60148152600060208201731a5b9858dd1a5d99481bdc881c1c9bdc1bdcd95960621b81529150614d80565b6020808252810161075e81615a28565b600d81526000602082016c4c6f636b204e6f205374616b6560981b81529150614d80565b6020808252810161075e81615a63565b60408101615aa58285614754565b61202560208301846147db565b601b81526000602082017f426f72696e674d6174683a2075696e743634204f766572666c6f77000000000081529150614d80565b6020808252810161075e81615ab2565b60006001600160801b03821691506001600160801b0383169250826001600160801b030382111561544757615447614d97565b601081526000602082016f3737903637b1b5903837b9b4ba34b7b760811b81529150614d80565b6020808252810161075e81615b29565b60005b83811015615b7b578181015183820152602001615b63565b838111156118975750506000910152565b6000615b96825190565b615ba4818560208601615b60565b9290920192915050565b7f416363657373436f6e74726f6c3a206163636f756e742000000000000000000081526017016000615be08285615b8c565b7001034b99036b4b9b9b4b733903937b6329607d1b815260110191506146828284615b8c565b6000615c10825190565b808452602084019350615c27818560208601615b60565b601f01601f19169290920192915050565b602080825281016120258184615c06565b602581526000602082017f67657452657761726473416d6f756e743a20496e76616c6964206c6173742055815264706461746560d81b60208201529150615131565b6020808252810161075e81615c49565b600063ffffffff8216915063ffffffff8316614db1565b600063ffffffff8216915063ffffffff831692508163ffffffff04831182151516156150ba576150ba614d97565b601c81526000602082017f426f72696e674d6174683a2075696e74313238204f766572666c6f770000000081529150614d80565b6020808252810161075e81615ce0565b600081615d3357615d33614d97565b506000190190565b60208082527f537472696e67733a20686578206c656e67746820696e73756666696369656e7491019081526000614d80565b6020808252810161075e81615d3b565b634e487b7160e01b600052603160045260246000fd5b60168152600060208201751cd8da19591d5b195cc81a5cc81b9bdd081c9a59da1d60521b81529150614d80565b6020808252810161075e81615d93565b601b81526000602082017f496e76616c69642052657761726420517565727920506572696f64000000000081529150614d80565b6020808252810161075e81615dd0565b601c81526000602082017f5175657279204265666f7265205363686564756c65732073746172740000000081529150614d80565b6020808252810161075e81615e14565b601881526000602082017f7175657279206166746572207363686564756c6520656e64000000000000000081529150614d80565b6020808252810161075e81615e58565b601981526000602082017f496e76616c696420696e6465782063616c63756c6174696f6e0000000000000081529150614d80565b6020808252810161075e81615e9c56fe71840dc4906352362b0cdaf79870196c8e42acafade72d5d5a6d59291253ceb1930802d0eadfb856cb83e01d1c4daa3c89e9c6d9f74cfbe13124decf2b33128aa2646970667358221220cac39151429be2dd74ea7b76f414de40b585c275d2434f894dc3736bda1d983b64736f6c634300080d0033",
  "linkReferences": {},
  "deployedLinkReferences": {}
}